{
  "contractName": "AddressBook",
  "abi": [
    {
      "constant": true,
      "inputs": [
        {
          "name": "",
          "type": "address"
        },
        {
          "name": "",
          "type": "uint256"
        },
        {
          "name": "",
          "type": "uint256"
        }
      ],
      "name": "addBookMap",
      "outputs": [
        {
          "name": "",
          "type": "address"
        }
      ],
      "payable": false,
      "stateMutability": "view",
      "type": "function"
    },
    {
      "constant": true,
      "inputs": [
        {
          "name": "",
          "type": "uint256"
        }
      ],
      "name": "categoryIndex",
      "outputs": [
        {
          "name": "",
          "type": "string"
        }
      ],
      "payable": false,
      "stateMutability": "view",
      "type": "function"
    },
    {
      "constant": true,
      "inputs": [
        {
          "name": "",
          "type": "address"
        }
      ],
      "name": "organizationMap",
      "outputs": [
        {
          "name": "name",
          "type": "string"
        }
      ],
      "payable": false,
      "stateMutability": "view",
      "type": "function"
    },
    {
      "constant": true,
      "inputs": [
        {
          "name": "",
          "type": "address"
        },
        {
          "name": "",
          "type": "address"
        },
        {
          "name": "",
          "type": "uint256"
        }
      ],
      "name": "addressInfo",
      "outputs": [
        {
          "name": "",
          "type": "string"
        }
      ],
      "payable": false,
      "stateMutability": "view",
      "type": "function"
    },
    {
      "inputs": [],
      "payable": false,
      "stateMutability": "nonpayable",
      "type": "constructor"
    },
    {
      "anonymous": false,
      "inputs": [
        {
          "indexed": true,
          "name": "orgransationAdd",
          "type": "address"
        },
        {
          "indexed": true,
          "name": "addedAddress",
          "type": "address"
        },
        {
          "indexed": true,
          "name": "timeC",
          "type": "uint256"
        }
      ],
      "name": "AddressAddEvent",
      "type": "event"
    },
    {
      "anonymous": false,
      "inputs": [
        {
          "indexed": true,
          "name": "orgransationAdd",
          "type": "address"
        },
        {
          "indexed": true,
          "name": "removedAddress",
          "type": "address"
        },
        {
          "indexed": true,
          "name": "timeC",
          "type": "uint256"
        }
      ],
      "name": "AddressRemoveEvent",
      "type": "event"
    },
    {
      "constant": true,
      "inputs": [
        {
          "name": "_orgAdd",
          "type": "address"
        },
        {
          "name": "_index",
          "type": "uint256"
        },
        {
          "name": "_toAddAddress",
          "type": "address"
        }
      ],
      "name": "getIndexof",
      "outputs": [
        {
          "name": "",
          "type": "uint256"
        }
      ],
      "payable": false,
      "stateMutability": "view",
      "type": "function"
    },
    {
      "constant": true,
      "inputs": [
        {
          "name": "_orgAdd",
          "type": "address"
        },
        {
          "name": "_index",
          "type": "uint256"
        },
        {
          "name": "_ofAddress",
          "type": "address"
        }
      ],
      "name": "getInfoOf",
      "outputs": [
        {
          "name": "",
          "type": "string"
        }
      ],
      "payable": false,
      "stateMutability": "view",
      "type": "function"
    },
    {
      "constant": true,
      "inputs": [
        {
          "name": "_idx",
          "type": "uint256"
        }
      ],
      "name": "getcategoryIndex",
      "outputs": [
        {
          "name": "",
          "type": "string"
        }
      ],
      "payable": false,
      "stateMutability": "view",
      "type": "function"
    },
    {
      "constant": true,
      "inputs": [
        {
          "name": "_orgAdd",
          "type": "address"
        },
        {
          "name": "_index",
          "type": "uint256"
        }
      ],
      "name": "iterateArrayOf",
      "outputs": [
        {
          "name": "",
          "type": "address[]"
        }
      ],
      "payable": false,
      "stateMutability": "view",
      "type": "function"
    },
    {
      "constant": false,
      "inputs": [
        {
          "name": "_name",
          "type": "string"
        },
        {
          "name": "_secMainAdd",
          "type": "address"
        }
      ],
      "name": "regOrg",
      "outputs": [],
      "payable": false,
      "stateMutability": "nonpayable",
      "type": "function"
    },
    {
      "constant": false,
      "inputs": [
        {
          "name": "_orgAdd",
          "type": "address"
        },
        {
          "name": "_index",
          "type": "uint256"
        },
        {
          "name": "_toAddAddress",
          "type": "address"
        },
        {
          "name": "_info",
          "type": "string"
        }
      ],
      "name": "addAddressToBook",
      "outputs": [],
      "payable": false,
      "stateMutability": "nonpayable",
      "type": "function"
    },
    {
      "constant": false,
      "inputs": [
        {
          "name": "_orgAdd",
          "type": "address"
        },
        {
          "name": "_index",
          "type": "uint256"
        },
        {
          "name": "_toRemoveAddress",
          "type": "address"
        },
        {
          "name": "_indexofAddressinMap",
          "type": "uint256"
        }
      ],
      "name": "removeAddressFromBook",
      "outputs": [],
      "payable": false,
      "stateMutability": "nonpayable",
      "type": "function"
    },
    {
      "constant": false,
      "inputs": [
        {
          "name": "_orgAdd",
          "type": "address"
        },
        {
          "name": "_newMainAdress",
          "type": "address"
        }
      ],
      "name": "changeSecMainAddress",
      "outputs": [],
      "payable": false,
      "stateMutability": "nonpayable",
      "type": "function"
    },
    {
      "constant": false,
      "inputs": [
        {
          "name": "_index",
          "type": "uint256"
        },
        {
          "name": "_info",
          "type": "string"
        }
      ],
      "name": "addNewCategoryIndex",
      "outputs": [],
      "payable": false,
      "stateMutability": "nonpayable",
      "type": "function"
    },
    {
      "constant": true,
      "inputs": [
        {
          "name": "_orgAdd",
          "type": "address"
        },
        {
          "name": "_checkedAdd",
          "type": "address"
        },
        {
          "name": "_category",
          "type": "uint256"
        },
        {
          "name": "_idx",
          "type": "uint256"
        }
      ],
      "name": "checkEofAddress",
      "outputs": [
        {
          "name": "",
          "type": "bool"
        }
      ],
      "payable": false,
      "stateMutability": "view",
      "type": "function"
    }
  ],
  "bytecode": "0x608060405273f62fef864d88e3d70f22468eee3b412b671149466000806101000a81548173ffffffffffffffffffffffffffffffffffffffff021916908373ffffffffffffffffffffffffffffffffffffffff1602179055503480156200006557600080fd5b506040805190810160405280600f81526020017f546f6b656e20436f6e747261637473000000000000000000000000000000000081525060016000600181526020019081526020016000209080519060200190620000c59291906200024c565b506040805190810160405280600881526020017f70726f6a6563747300000000000000000000000000000000000000000000000081525060016000600281526020019081526020016000209080519060200190620001259291906200024c565b506040805190810160405280601381526020017f6d6f6e657941646d696e697374726174696f6e0000000000000000000000000081525060016000600381526020019081526020016000209080519060200190620001859291906200024c565b506040805190810160405280600981526020017f656d706c6f79656573000000000000000000000000000000000000000000000081525060016000600481526020019081526020016000209080519060200190620001e59291906200024c565b506040805190810160405280600981526020017f696e766573746f7273000000000000000000000000000000000000000000000081525060016000600581526020019081526020016000209080519060200190620002459291906200024c565b50620002fb565b828054600181600116156101000203166002900490600052602060002090601f016020900481019282601f106200028f57805160ff1916838001178555620002c0565b82800160010185558215620002c0579182015b82811115620002bf578251825591602001919060010190620002a2565b5b509050620002cf9190620002d3565b5090565b620002f891905b80821115620002f4576000816000905550600101620002da565b5090565b90565b611ebc806200030b6000396000f3006080604052600436106100d0576000357c0100000000000000000000000000000000000000000000000000000000900463ffffffff16806311eda612146100d557806315f0d538146101775780631edd6a68146101ea5780631fa3439c1461028157806326bc876c146102f857806331d4e6dc1461038757806363c4d8481461042d578063713edc49146104e0578063780fdaa1146105865780637ae398e4146106425780637c7b8a5d14610728578063a4d0969c146107b1578063cc403b2814610814578063db3d3ce214610895575b600080fd5b3480156100e157600080fd5b50610120600480360381019080803573ffffffffffffffffffffffffffffffffffffffff1690602001909291908035906020019092919050505061097b565b6040518080602001828103825283818151815260200191508051906020019060200280838360005b83811015610163578082015181840152602081019050610148565b505050509050019250505060405180910390f35b34801561018357600080fd5b506101e860048036038101908080359060200190929190803590602001908201803590602001908080601f0160208091040260200160405190810160405280939291908181526020018383808284378201915050505050509192919290505050610a5a565b005b3480156101f657600080fd5b5061023f600480360381019080803573ffffffffffffffffffffffffffffffffffffffff1690602001909291908035906020019092919080359060200190929190505050610be9565b604051808273ffffffffffffffffffffffffffffffffffffffff1673ffffffffffffffffffffffffffffffffffffffff16815260200191505060405180910390f35b34801561028d57600080fd5b506102f6600480360381019080803573ffffffffffffffffffffffffffffffffffffffff16906020019092919080359060200190929190803573ffffffffffffffffffffffffffffffffffffffff16906020019092919080359060200190929190505050610c43565b005b34801561030457600080fd5b5061036d600480360381019080803573ffffffffffffffffffffffffffffffffffffffff169060200190929190803573ffffffffffffffffffffffffffffffffffffffff1690602001909291908035906020019092919080359060200190929190505050611033565b604051808215151515815260200191505060405180910390f35b34801561039357600080fd5b506103b260048036038101908080359060200190929190505050611102565b6040518080602001828103825283818151815260200191508051906020019080838360005b838110156103f25780820151818401526020810190506103d7565b50505050905090810190601f16801561041f5780820380516001836020036101000a031916815260200191505b509250505060405180910390f35b34801561043957600080fd5b506104de600480360381019080803573ffffffffffffffffffffffffffffffffffffffff16906020019092919080359060200190929190803573ffffffffffffffffffffffffffffffffffffffff169060200190929190803590602001908201803590602001908080601f01602080910402602001604051908101604052809392919081815260200183838082843782019150505050505091929192905050506111b2565b005b3480156104ec57600080fd5b5061050b600480360381019080803590602001909291905050506116d2565b6040518080602001828103825283818151815260200191508051906020019080838360005b8381101561054b578082015181840152602081019050610530565b50505050905090810190601f1680156105785780820380516001836020036101000a031916815260200191505b509250505060405180910390f35b34801561059257600080fd5b506105c7600480360381019080803573ffffffffffffffffffffffffffffffffffffffff169060200190929190505050611787565b6040518080602001828103825283818151815260200191508051906020019080838360005b838110156106075780820151818401526020810190506105ec565b50505050905090810190601f1680156106345780820380516001836020036101000a031916815260200191505b509250505060405180910390f35b34801561064e57600080fd5b506106ad600480360381019080803573ffffffffffffffffffffffffffffffffffffffff16906020019092919080359060200190929190803573ffffffffffffffffffffffffffffffffffffffff16906020019092919050505061183d565b6040518080602001828103825283818151815260200191508051906020019080838360005b838110156106ed5780820151818401526020810190506106d2565b50505050905090810190601f16801561071a5780820380516001836020036101000a031916815260200191505b509250505060405180910390f35b34801561073457600080fd5b506107af600480360381019080803590602001908201803590602001908080601f0160208091040260200160405190810160405280939291908181526020018383808284378201915050505050509192919290803573ffffffffffffffffffffffffffffffffffffffff16906020019092919050505061196e565b005b3480156107bd57600080fd5b50610812600480360381019080803573ffffffffffffffffffffffffffffffffffffffff169060200190929190803573ffffffffffffffffffffffffffffffffffffffff169060200190929190505050611ad0565b005b34801561082057600080fd5b5061087f600480360381019080803573ffffffffffffffffffffffffffffffffffffffff16906020019092919080359060200190929190803573ffffffffffffffffffffffffffffffffffffffff169060200190929190505050611c40565b6040518082815260200191505060405180910390f35b3480156108a157600080fd5b50610900600480360381019080803573ffffffffffffffffffffffffffffffffffffffff169060200190929190803573ffffffffffffffffffffffffffffffffffffffff16906020019092919080359060200190929190505050611cd9565b6040518080602001828103825283818151815260200191508051906020019080838360005b83811015610940578082015181840152602081019050610925565b50505050905090810190601f16801561096d5780820380516001836020036101000a031916815260200191505b509250505060405180910390f35b6060600360008473ffffffffffffffffffffffffffffffffffffffff1673ffffffffffffffffffffffffffffffffffffffff1681526020019081526020016000206000838152602001908152602001600020805480602002602001604051908101604052809291908181526020018280548015610a4d57602002820191906000526020600020905b8160009054906101000a900473ffffffffffffffffffffffffffffffffffffffff1673ffffffffffffffffffffffffffffffffffffffff1681526020019060010190808311610a03575b5050505050905092915050565b6000809054906101000a900473ffffffffffffffffffffffffffffffffffffffff1673ffffffffffffffffffffffffffffffffffffffff163373ffffffffffffffffffffffffffffffffffffffff16141515610b1e576040517f08c379a000000000000000000000000000000000000000000000000000000000815260040180806020018281038252600b8152602001807f77726f6e67204f776e657200000000000000000000000000000000000000000081525060200191505060405180910390fd5b600060016000848152602001908152602001600020805460018160011615610100020316600290049050141515610bbd576040517f08c379a00000000000000000000000000000000000000000000000000000000081526004018080602001828103825260128152602001807f6e6f7420656d7074792063617465676f7279000000000000000000000000000081525060200191505060405180910390fd5b80600160008481526020019081526020016000209080519060200190610be4929190611da3565b505050565b600360205282600052604060002060205281600052604060002081815481101515610c1057fe5b90600052602060002001600092509250509054906101000a900473ffffffffffffffffffffffffffffffffffffffff1681565b6000600260008673ffffffffffffffffffffffffffffffffffffffff1673ffffffffffffffffffffffffffffffffffffffff1681526020019081526020016000209050806001016001600281101515610c9857fe5b0160009054906101000a900473ffffffffffffffffffffffffffffffffffffffff1673ffffffffffffffffffffffffffffffffffffffff163373ffffffffffffffffffffffffffffffffffffffff161480610d515750806001016000600281101515610d0057fe5b0160009054906101000a900473ffffffffffffffffffffffffffffffffffffffff1673ffffffffffffffffffffffffffffffffffffffff163373ffffffffffffffffffffffffffffffffffffffff16145b1515610d5c57600080fd5b8273ffffffffffffffffffffffffffffffffffffffff16600360008773ffffffffffffffffffffffffffffffffffffffff1673ffffffffffffffffffffffffffffffffffffffff168152602001908152602001600020600086815260200190815260200160002083815481101515610dd057fe5b9060005260206000200160009054906101000a900473ffffffffffffffffffffffffffffffffffffffff1673ffffffffffffffffffffffffffffffffffffffff16141515610e1d57600080fd5b600360008673ffffffffffffffffffffffffffffffffffffffff1673ffffffffffffffffffffffffffffffffffffffff168152602001908152602001600020600085815260200190815260200160002082815481101515610e7a57fe5b9060005260206000200160006101000a81549073ffffffffffffffffffffffffffffffffffffffff0219169055600460008673ffffffffffffffffffffffffffffffffffffffff1673ffffffffffffffffffffffffffffffffffffffff16815260200190815260200160002060008473ffffffffffffffffffffffffffffffffffffffff1673ffffffffffffffffffffffffffffffffffffffff16815260200190815260200160002060008581526020019081526020016000206000610f409190611e23565b600560008673ffffffffffffffffffffffffffffffffffffffff1673ffffffffffffffffffffffffffffffffffffffff16815260200190815260200160002060008473ffffffffffffffffffffffffffffffffffffffff1673ffffffffffffffffffffffffffffffffffffffff168152602001908152602001600020600085815260200190815260200160002060009055428373ffffffffffffffffffffffffffffffffffffffff168673ffffffffffffffffffffffffffffffffffffffff167fa10abcf7dab0dd2788b8ebe22fd4ec6051adfe5da6d4850af2d32e31ff8c659960405160405180910390a45050505050565b6000600360008673ffffffffffffffffffffffffffffffffffffffff1673ffffffffffffffffffffffffffffffffffffffff16815260200190815260200160002060008481526020019081526020016000208281548110151561109257fe5b9060005260206000200160009054906101000a900473ffffffffffffffffffffffffffffffffffffffff1673ffffffffffffffffffffffffffffffffffffffff168473ffffffffffffffffffffffffffffffffffffffff161415156110f657600080fd5b60019050949350505050565b60016020528060005260406000206000915090508054600181600116156101000203166002900480601f0160208091040260200160405190810160405280929190818152602001828054600181600116156101000203166002900480156111aa5780601f1061117f576101008083540402835291602001916111aa565b820191906000526020600020905b81548152906001019060200180831161118d57829003601f168201915b505050505081565b600080600260008773ffffffffffffffffffffffffffffffffffffffff1673ffffffffffffffffffffffffffffffffffffffff168152602001908152602001600020915081600101600160028110151561120857fe5b0160009054906101000a900473ffffffffffffffffffffffffffffffffffffffff1673ffffffffffffffffffffffffffffffffffffffff163373ffffffffffffffffffffffffffffffffffffffff1614806112c1575081600101600060028110151561127057fe5b0160009054906101000a900473ffffffffffffffffffffffffffffffffffffffff1673ffffffffffffffffffffffffffffffffffffffff163373ffffffffffffffffffffffffffffffffffffffff16145b15156112cc57600080fd5b6000600160008781526020019081526020016000208054600181600116156101000203166002900490501415151561130357600080fd5b6000600360008873ffffffffffffffffffffffffffffffffffffffff1673ffffffffffffffffffffffffffffffffffffffff168152602001908152602001600020600087815260200190815260200160002080549050141561141557600360008773ffffffffffffffffffffffffffffffffffffffff1673ffffffffffffffffffffffffffffffffffffffff1681526020019081526020016000206000868152602001908152602001600020600090806001815401808255809150509060018203906000526020600020016000909192909190916101000a81548173ffffffffffffffffffffffffffffffffffffffff021916908373ffffffffffffffffffffffffffffffffffffffff160217905550505b6000611422878787611c40565b14151561142e57600080fd5b600360008773ffffffffffffffffffffffffffffffffffffffff1673ffffffffffffffffffffffffffffffffffffffff16815260200190815260200160002060008681526020019081526020016000208490806001815401808255809150509060018203906000526020600020016000909192909190916101000a81548173ffffffffffffffffffffffffffffffffffffffff021916908373ffffffffffffffffffffffffffffffffffffffff1602179055505082600460008873ffffffffffffffffffffffffffffffffffffffff1673ffffffffffffffffffffffffffffffffffffffff16815260200190815260200160002060008673ffffffffffffffffffffffffffffffffffffffff1673ffffffffffffffffffffffffffffffffffffffff16815260200190815260200160002060008781526020019081526020016000209080519060200190611583929190611da3565b50600360008773ffffffffffffffffffffffffffffffffffffffff1673ffffffffffffffffffffffffffffffffffffffff168152602001908152602001600020600086815260200190815260200160002080549050905060018103600560008873ffffffffffffffffffffffffffffffffffffffff1673ffffffffffffffffffffffffffffffffffffffff16815260200190815260200160002060008673ffffffffffffffffffffffffffffffffffffffff1673ffffffffffffffffffffffffffffffffffffffff168152602001908152602001600020600087815260200190815260200160002081905550428473ffffffffffffffffffffffffffffffffffffffff168773ffffffffffffffffffffffffffffffffffffffff167feda943682d0220c8fb0bfaae7d576d1d98be579a0b77c78783b3c13bd2b968bc60405160405180910390a4505050505050565b6060600160008381526020019081526020016000208054600181600116156101000203166002900480601f01602080910402602001604051908101604052809291908181526020018280546001816001161561010002031660029004801561177b5780601f106117505761010080835404028352916020019161177b565b820191906000526020600020905b81548152906001019060200180831161175e57829003601f168201915b50505050509050919050565b6002602052806000526040600020600091509050806000018054600181600116156101000203166002900480601f0160208091040260200160405190810160405280929190818152602001828054600181600116156101000203166002900480156118335780601f1061180857610100808354040283529160200191611833565b820191906000526020600020905b81548152906001019060200180831161181657829003601f168201915b5050505050905081565b6060600460008573ffffffffffffffffffffffffffffffffffffffff1673ffffffffffffffffffffffffffffffffffffffff16815260200190815260200160002060008373ffffffffffffffffffffffffffffffffffffffff1673ffffffffffffffffffffffffffffffffffffffff16815260200190815260200160002060008481526020019081526020016000208054600181600116156101000203166002900480601f0160208091040260200160405190810160405280929190818152602001828054600181600116156101000203166002900480156119605780601f1061193557610100808354040283529160200191611960565b820191906000526020600020905b81548152906001019060200180831161194357829003601f168201915b505050505090509392505050565b60008083511415151561198057600080fd5b60008273ffffffffffffffffffffffffffffffffffffffff16141515156119a657600080fd5b600260003373ffffffffffffffffffffffffffffffffffffffff1673ffffffffffffffffffffffffffffffffffffffff1681526020019081526020016000209050600081600001805460018160011615610100020316600290049050141515611a0e57600080fd5b82816000019080519060200190611a26929190611da3565b5033816001016000600281101515611a3a57fe5b0160006101000a81548173ffffffffffffffffffffffffffffffffffffffff021916908373ffffffffffffffffffffffffffffffffffffffff16021790555081816001016001600281101515611a8c57fe5b0160006101000a81548173ffffffffffffffffffffffffffffffffffffffff021916908373ffffffffffffffffffffffffffffffffffffffff160217905550505050565b6000600260008473ffffffffffffffffffffffffffffffffffffffff1673ffffffffffffffffffffffffffffffffffffffff1681526020019081526020016000209050806001016001600281101515611b2557fe5b0160009054906101000a900473ffffffffffffffffffffffffffffffffffffffff1673ffffffffffffffffffffffffffffffffffffffff163373ffffffffffffffffffffffffffffffffffffffff161480611bde5750806001016000600281101515611b8d57fe5b0160009054906101000a900473ffffffffffffffffffffffffffffffffffffffff1673ffffffffffffffffffffffffffffffffffffffff163373ffffffffffffffffffffffffffffffffffffffff16145b1515611be957600080fd5b81816001016001600281101515611bfc57fe5b0160006101000a81548173ffffffffffffffffffffffffffffffffffffffff021916908373ffffffffffffffffffffffffffffffffffffffff160217905550505050565b6000600560008573ffffffffffffffffffffffffffffffffffffffff1673ffffffffffffffffffffffffffffffffffffffff16815260200190815260200160002060008373ffffffffffffffffffffffffffffffffffffffff1673ffffffffffffffffffffffffffffffffffffffff16815260200190815260200160002060008481526020019081526020016000205490509392505050565b600460205282600052604060002060205281600052604060002060205280600052604060002060009250925050508054600181600116156101000203166002900480601f016020809104026020016040519081016040528092919081815260200182805460018160011615610100020316600290048015611d9b5780601f10611d7057610100808354040283529160200191611d9b565b820191906000526020600020905b815481529060010190602001808311611d7e57829003601f168201915b505050505081565b828054600181600116156101000203166002900490600052602060002090601f016020900481019282601f10611de457805160ff1916838001178555611e12565b82800160010185558215611e12579182015b82811115611e11578251825591602001919060010190611df6565b5b509050611e1f9190611e6b565b5090565b50805460018160011615610100020316600290046000825580601f10611e495750611e68565b601f016020900490600052602060002090810190611e679190611e6b565b5b50565b611e8d91905b80821115611e89576000816000905550600101611e71565b5090565b905600a165627a7a72305820f3255307bd74a20fbb32514e79e6b5183be8b2d4b8c5cf0c97901bf0d9f567160029",
  "source": "pragma solidity ^0.4.23;\n\ncontract AddressBook{\n    \n    address owner = 0xf62fef864D88e3d70F22468EEe3B412b67114946;\n\n    struct Organization{\n        string name;\n        address[2] mainAddress;\n    }\n    \n    //Categories: 1 TokenContracts, 2 projects, 3 moneyAdministration, 4 employees, 5 investors ....\n    mapping(uint => string) public categoryIndex; \n    //orgAddress => (OrgName & 2 main address)\n    mapping (address => Organization) public organizationMap;\n    // orgAddress => categoryIndex(category) => newaddress\n    mapping (address => mapping( uint => address[])) public addBookMap;\n    // orgAddress => address => index(category) => infoAboutAddress\n    mapping (address => mapping(address => mapping(uint => string))) public addressInfo;\n    //index of address in the array in its category\n    mapping (address => mapping(address => mapping(uint => uint))) indexOfElement;\n\n    event AddressAddEvent(address indexed  orgransationAdd, address indexed addedAddress, uint indexed timeC );\n    event AddressRemoveEvent(address indexed  orgransationAdd, address indexed removedAddress, uint indexed timeC );\n    //constructor\n    constructor () public {\n        categoryIndex[1] = \"Token Contracts\";\n        categoryIndex[2] = \"projects\";\n        categoryIndex[3] = \"moneyAdministration\";\n        categoryIndex[4] = \"employees\";\n        categoryIndex[5] = \"investors\";\n    }\n    \n    //get Methods, all constant\n    function getIndexof(address _orgAdd, uint _index, address _toAddAddress) view public returns (uint) {\n        return indexOfElement[_orgAdd][_toAddAddress][_index];\n    }\n    \n    function getInfoOf(address _orgAdd, uint _index, address _ofAddress) view public returns (string) {\n        return addressInfo[_orgAdd][_ofAddress][_index];\n    }\n    \n    function getcategoryIndex(uint _idx) public view returns (string) {\n        return categoryIndex[_idx];\n    }\n    \n    function iterateArrayOf(address _orgAdd, uint _index) view public returns (address[]) {\n        return addBookMap[_orgAdd][_index];\n    }\n    \n    /**\n    resgister the name and the two main addresses of an organization\n    @dev    it is not preferd to hardcode the test wether the Org is already registered in the TSC contract or not\n    @param _name the offical name of the organisation. should not be null\n    @param _secMainAdd a sec address, which can change data. should not be null\n    */\n    function regOrg (string _name, address _secMainAdd) public {\n        require(bytes(_name).length != 0);\n        require(_secMainAdd != 0x0);\n        Organization storage org = organizationMap[msg.sender];\n        require(bytes(org.name).length == 0);\n        org.name = _name;\n        org.mainAddress[0] = msg.sender;\n        org.mainAddress[1] = _secMainAdd;\n    }\n    \n    /**\n    add an address to the organization address-book\n    @dev    the first element in the array is always 0x00 to prevent duplicate \n    @param _orgAdd the orignal address of the organisation\n    @param _index  to which category belong that address\n    @param _toAddAddress the new address\n    @param _info infomation about the address\n    */\n    function addAddressToBook (address _orgAdd, uint _index, address _toAddAddress, string _info) public {\n        Organization storage org = organizationMap[_orgAdd];\n        require(msg.sender == org.mainAddress[1] || msg.sender == org.mainAddress[0]);\n        require(bytes(categoryIndex[_index]).length != 0);\n        if((addBookMap[_orgAdd][_index]).length == 0){\n            addBookMap[_orgAdd][_index].push(0x0);\n        }\n        require(getIndexof(_orgAdd,_index,_toAddAddress) == 0);\n        addBookMap[_orgAdd][_index].push(_toAddAddress);\n        addressInfo[_orgAdd][_toAddAddress][_index] = _info;\n        uint i = (addBookMap[_orgAdd][_index]).length;\n        indexOfElement[_orgAdd][_toAddAddress][_index] = i-1;\n        emit AddressAddEvent(_orgAdd, _toAddAddress, block.timestamp);\n    }\n    \n    /**\n    remove an address from the organization address-book\n    @dev    could be improved to save more space in the array, but then you need to save the indexes of the addresses\n            a could removed indexofAddressinMap but then the user can delete mistakly another address\n    @param _orgAdd the orignal address of the organisation\n    @param _index  to which category belong that address\n    @param _toRemoveAddress the address to remove\n    @param _indexofAddressinMap the index of the removed address in the array\n    */\n    function removeAddressFromBook (address _orgAdd, uint _index, address _toRemoveAddress, uint _indexofAddressinMap) public {\n        Organization storage org = organizationMap[_orgAdd];\n        require(msg.sender == org.mainAddress[1] || msg.sender == org.mainAddress[0]);\n        require(addBookMap[_orgAdd][_index][_indexofAddressinMap] == _toRemoveAddress);\n        delete addBookMap[_orgAdd][_index][_indexofAddressinMap];\n        delete addressInfo[_orgAdd][_toRemoveAddress][_index];\n        delete indexOfElement[_orgAdd][_toRemoveAddress][_index];\n        emit AddressRemoveEvent(_orgAdd, _toRemoveAddress, block.timestamp);\n    }\n    \n    /**\n    change the infomration about the address \n    @param _orgAdd the orignal address of the organisation\n    @param _index  to which category belong that address\n    @param _add the wanted address \n    @param _newInfo the new infomation, like stopped or stolen or.....\n    */\n\n    //BAD FUNCTION!\n    // function changeInfoOfAddress(address _orgAdd, uint _index, address _add, string _newInfo) public {\n     //  revert();\n     //  Organization storage org = organizationMap[_orgAdd];\n     //   require(msg.sender == org.mainAddress[1] || msg.sender == org.mainAddress[0]);\n     //   addressInfo[_orgAdd][_add][_index] = _newInfo;\n    // }\n \n    /**\n    change the second main address for some reason\n    @notice the second Address can change it self\n    @param _orgAdd the orignal address of the organisation\n    @param _newMainAdress the new second main address \n    */\n    function changeSecMainAddress(address _orgAdd, address _newMainAdress) public {\n        Organization storage org = organizationMap[_orgAdd];\n        require(msg.sender == org.mainAddress[1] || msg.sender == org.mainAddress[0]);\n        org.mainAddress[1] = _newMainAdress;\n    }\n    \n    /**\n    add a new category to the originaly five categories, like 6 ICO \n    @dev    could be imporved by forcing a sequence \n    @param _index the new index of the category\n    @param _info  the name of the added category\n    */\n    function addNewCategoryIndex(uint _index, string _info) public {\n        require(msg.sender == owner, \"wrong Owner\");\n        require(bytes(categoryIndex[_index]).length == 0, \"not empty category\");\n        categoryIndex[_index] = _info;\n    }\n    \n    /**\n     * will be used to check if an address belong to the Organization\n     * @param _orgAdd the original address of the Organization\n     * @param _checkedAdd the given address\n     * @param _category in which category\n     * @param _idx the index in that category\n    */\n    function checkEofAddress(address _orgAdd, address _checkedAdd, uint _category, uint _idx) view external returns (bool){\n        require (_checkedAdd == addBookMap[_orgAdd][_category][_idx]); \n        return true;\n    }\n    \n}",
  "sourcePath": "C:\\Users\\MajdTL\\Desktop\\BachelorArbeit\\Bachelor_Thesis-master\\ProjectLastVersion 0.1\\contracts\\UseCase\\AddressBook.sol",
  "compiler": {
    "name": "solc",
    "version": "0.4.24+commit.e67f0147.Emscripten.clang"
  },
  "schemaVersion": "2.0.1",
  "updatedAt": "2018-08-28T12:40:46.010Z"
}