{
  "contractName": "DonationTokenOrg",
  "abi": [
    {
      "constant": true,
      "inputs": [],
      "name": "name",
      "outputs": [
        {
          "name": "",
          "type": "string"
        }
      ],
      "payable": false,
      "stateMutability": "view",
      "type": "function"
    },
    {
      "constant": true,
      "inputs": [],
      "name": "tokenId",
      "outputs": [
        {
          "name": "",
          "type": "uint256"
        }
      ],
      "payable": false,
      "stateMutability": "view",
      "type": "function"
    },
    {
      "constant": true,
      "inputs": [],
      "name": "totalSupply",
      "outputs": [
        {
          "name": "",
          "type": "uint256"
        }
      ],
      "payable": false,
      "stateMutability": "view",
      "type": "function"
    },
    {
      "constant": true,
      "inputs": [],
      "name": "vaultContract",
      "outputs": [
        {
          "name": "",
          "type": "address"
        }
      ],
      "payable": false,
      "stateMutability": "view",
      "type": "function"
    },
    {
      "constant": true,
      "inputs": [],
      "name": "decimals",
      "outputs": [
        {
          "name": "",
          "type": "uint256"
        }
      ],
      "payable": false,
      "stateMutability": "view",
      "type": "function"
    },
    {
      "constant": true,
      "inputs": [],
      "name": "symbol",
      "outputs": [
        {
          "name": "",
          "type": "string"
        }
      ],
      "payable": false,
      "stateMutability": "view",
      "type": "function"
    },
    {
      "constant": true,
      "inputs": [],
      "name": "mainOrgContract",
      "outputs": [
        {
          "name": "",
          "type": "address"
        }
      ],
      "payable": false,
      "stateMutability": "view",
      "type": "function"
    },
    {
      "constant": true,
      "inputs": [],
      "name": "managementContract",
      "outputs": [
        {
          "name": "",
          "type": "address"
        }
      ],
      "payable": false,
      "stateMutability": "view",
      "type": "function"
    },
    {
      "inputs": [],
      "payable": false,
      "stateMutability": "nonpayable",
      "type": "constructor"
    },
    {
      "payable": false,
      "stateMutability": "nonpayable",
      "type": "fallback"
    },
    {
      "anonymous": false,
      "inputs": [
        {
          "indexed": true,
          "name": "_from",
          "type": "address"
        },
        {
          "indexed": true,
          "name": "_to",
          "type": "address"
        },
        {
          "indexed": true,
          "name": "_tokenId",
          "type": "uint256"
        }
      ],
      "name": "Transfer",
      "type": "event"
    },
    {
      "anonymous": false,
      "inputs": [
        {
          "indexed": true,
          "name": "_orginialToken",
          "type": "uint256"
        },
        {
          "indexed": true,
          "name": "_splitedToken",
          "type": "uint256"
        },
        {
          "indexed": true,
          "name": "_owner",
          "type": "address"
        }
      ],
      "name": "Split",
      "type": "event"
    },
    {
      "constant": false,
      "inputs": [
        {
          "name": "_to",
          "type": "address"
        },
        {
          "name": "_tokenId",
          "type": "uint256"
        }
      ],
      "name": "transfer",
      "outputs": [
        {
          "name": "",
          "type": "uint256"
        }
      ],
      "payable": false,
      "stateMutability": "nonpayable",
      "type": "function"
    },
    {
      "constant": false,
      "inputs": [
        {
          "name": "_to",
          "type": "address"
        },
        {
          "name": "_value",
          "type": "uint256"
        }
      ],
      "name": "_mint",
      "outputs": [
        {
          "name": "",
          "type": "uint256"
        }
      ],
      "payable": false,
      "stateMutability": "nonpayable",
      "type": "function"
    },
    {
      "constant": false,
      "inputs": [
        {
          "name": "_tokenId",
          "type": "uint256"
        },
        {
          "name": "_from",
          "type": "address"
        }
      ],
      "name": "_burn",
      "outputs": [],
      "payable": false,
      "stateMutability": "nonpayable",
      "type": "function"
    },
    {
      "constant": false,
      "inputs": [
        {
          "name": "_tokenId",
          "type": "uint256"
        },
        {
          "name": "_valueOne",
          "type": "uint256"
        },
        {
          "name": "_valueTwo",
          "type": "uint256"
        }
      ],
      "name": "_split",
      "outputs": [],
      "payable": false,
      "stateMutability": "nonpayable",
      "type": "function"
    },
    {
      "constant": true,
      "inputs": [
        {
          "name": "_tokenId",
          "type": "uint256"
        }
      ],
      "name": "getOwner",
      "outputs": [
        {
          "name": "",
          "type": "address"
        }
      ],
      "payable": false,
      "stateMutability": "view",
      "type": "function"
    },
    {
      "constant": true,
      "inputs": [
        {
          "name": "_tokenId",
          "type": "uint256"
        }
      ],
      "name": "getValue",
      "outputs": [
        {
          "name": "",
          "type": "uint256"
        }
      ],
      "payable": false,
      "stateMutability": "view",
      "type": "function"
    },
    {
      "constant": false,
      "inputs": [
        {
          "name": "_tokenId",
          "type": "uint256"
        }
      ],
      "name": "setdonated",
      "outputs": [],
      "payable": false,
      "stateMutability": "nonpayable",
      "type": "function"
    },
    {
      "constant": false,
      "inputs": [
        {
          "name": "_add",
          "type": "address"
        }
      ],
      "name": "setmainOrgContract",
      "outputs": [],
      "payable": false,
      "stateMutability": "nonpayable",
      "type": "function"
    },
    {
      "constant": false,
      "inputs": [
        {
          "name": "_add",
          "type": "address"
        }
      ],
      "name": "setmanagementContract",
      "outputs": [],
      "payable": false,
      "stateMutability": "nonpayable",
      "type": "function"
    },
    {
      "constant": false,
      "inputs": [
        {
          "name": "_add",
          "type": "address"
        }
      ],
      "name": "setVaultContract",
      "outputs": [],
      "payable": false,
      "stateMutability": "nonpayable",
      "type": "function"
    }
  ],
  "bytecode": "0x608060405273f62fef864d88e3d70f22468eee3b412b671149466000806101000a81548173ffffffffffffffffffffffffffffffffffffffff021916908373ffffffffffffffffffffffffffffffffffffffff16021790555073601f186d8c2171b78766924af4614f56f94711b1600160006101000a81548173ffffffffffffffffffffffffffffffffffffffff021916908373ffffffffffffffffffffffffffffffffffffffff160217905550733f826e9555370dd06dd46f67c89bcc97d2b6e1dc600260006101000a81548173ffffffffffffffffffffffffffffffffffffffff021916908373ffffffffffffffffffffffffffffffffffffffff160217905550734a8db8aef091afc6b71fd617d200e0922368b15c600360006101000a81548173ffffffffffffffffffffffffffffffffffffffff021916908373ffffffffffffffffffffffffffffffffffffffff1602179055503480156200016457600080fd5b5060006009819055506040805190810160405280600281526020017f4454000000000000000000000000000000000000000000000000000000000000815250600b9080519060200190620001ba9291906200021f565b506000600a819055506040805190810160405280600c81526020017f446f6e61746520546f6b656e0000000000000000000000000000000000000000815250600c9080519060200190620002109291906200021f565b506001600881905550620002ce565b828054600181600116156101000203166002900490600052602060002090601f016020900481019282601f106200026257805160ff191683800117855562000293565b8280016001018555821562000293579182015b828111156200029257825182559160200191906001019062000275565b5b509050620002a29190620002a6565b5090565b620002cb91905b80821115620002c7576000816000905550600101620002ad565b5090565b90565b61150d80620002de6000396000f3006080604052600436106100fc576000357c0100000000000000000000000000000000000000000000000000000000900463ffffffff16806306fdde031461010e5780630ff4c9161461019e57806317d70f7c146101df57806318160ddd1461020a5780632274346b14610235578063243467f81461028c578063313ce567146102d95780633eee36c6146103045780634dc4957b146103455780634e6ec247146103885780638800cedd146103e95780638c3dc5cf1461041657806395d89b411461045957806396f4ada6146104e95780639940202e1461052c578063a9059cbb14610583578063b3e5cc4a146105e4578063c41a360a1461063b575b34801561010857600080fd5b50600080fd5b34801561011a57600080fd5b506101236106a8565b6040518080602001828103825283818151815260200191508051906020019080838360005b83811015610163578082015181840152602081019050610148565b50505050905090810190601f1680156101905780820380516001836020036101000a031916815260200191505b509250505060405180910390f35b3480156101aa57600080fd5b506101c960048036038101908080359060200190929190505050610746565b6040518082815260200191505060405180910390f35b3480156101eb57600080fd5b506101f4610763565b6040518082815260200191505060405180910390f35b34801561021657600080fd5b5061021f610769565b6040518082815260200191505060405180910390f35b34801561024157600080fd5b5061024a61076f565b604051808273ffffffffffffffffffffffffffffffffffffffff1673ffffffffffffffffffffffffffffffffffffffff16815260200191505060405180910390f35b34801561029857600080fd5b506102d760048036038101908080359060200190929190803573ffffffffffffffffffffffffffffffffffffffff169060200190929190505050610795565b005b3480156102e557600080fd5b506102ee61088a565b6040518082815260200191505060405180910390f35b34801561031057600080fd5b50610343600480360381019080803590602001909291908035906020019092919080359060200190929190505050610890565b005b34801561035157600080fd5b50610386600480360381019080803573ffffffffffffffffffffffffffffffffffffffff169060200190929190505050610ab1565b005b34801561039457600080fd5b506103d3600480360381019080803573ffffffffffffffffffffffffffffffffffffffff16906020019092919080359060200190929190505050610b54565b6040518082815260200191505060405180910390f35b3480156103f557600080fd5b5061041460048036038101908080359060200190929190505050610c76565b005b34801561042257600080fd5b50610457600480360381019080803573ffffffffffffffffffffffffffffffffffffffff169060200190929190505050610d58565b005b34801561046557600080fd5b5061046e610dfb565b6040518080602001828103825283818151815260200191508051906020019080838360005b838110156104ae578082015181840152602081019050610493565b50505050905090810190601f1680156104db5780820380516001836020036101000a031916815260200191505b509250505060405180910390f35b3480156104f557600080fd5b5061052a600480360381019080803573ffffffffffffffffffffffffffffffffffffffff169060200190929190505050610e99565b005b34801561053857600080fd5b50610541610f3c565b604051808273ffffffffffffffffffffffffffffffffffffffff1673ffffffffffffffffffffffffffffffffffffffff16815260200191505060405180910390f35b34801561058f57600080fd5b506105ce600480360381019080803573ffffffffffffffffffffffffffffffffffffffff16906020019092919080359060200190929190505050610f62565b6040518082815260200191505060405180910390f35b3480156105f057600080fd5b506105f96113eb565b604051808273ffffffffffffffffffffffffffffffffffffffff1673ffffffffffffffffffffffffffffffffffffffff16815260200191505060405180910390f35b34801561064757600080fd5b5061066660048036038101908080359060200190929190505050611411565b604051808273ffffffffffffffffffffffffffffffffffffffff1673ffffffffffffffffffffffffffffffffffffffff16815260200191505060405180910390f35b600c8054600181600116156101000203166002900480601f01602080910402602001604051908101604052809291908181526020018280546001816001161561010002031660029004801561073e5780601f106107135761010080835404028352916020019161073e565b820191906000526020600020905b81548152906001019060200180831161072157829003601f168201915b505050505081565b600060056000838152602001908152602001600020549050919050565b60085481565b60095481565b600360009054906101000a900473ffffffffffffffffffffffffffffffffffffffff1681565b600360009054906101000a900473ffffffffffffffffffffffffffffffffffffffff1673ffffffffffffffffffffffffffffffffffffffff163373ffffffffffffffffffffffffffffffffffffffff161415156107f157600080fd5b600060056000848152602001908152602001600020819055506004600083815260200190815260200160002060006101000a81549073ffffffffffffffffffffffffffffffffffffffff02191690558160008273ffffffffffffffffffffffffffffffffffffffff167fddf252ad1be2c89b69c2b068fc378daa952ba7f163c4a11628f55a4df523b3ef60405160405180910390a45050565b600a5481565b6004600084815260200190815260200160002060009054906101000a900473ffffffffffffffffffffffffffffffffffffffff1673ffffffffffffffffffffffffffffffffffffffff163373ffffffffffffffffffffffffffffffffffffffff16148061094a5750600260009054906101000a900473ffffffffffffffffffffffffffffffffffffffff1673ffffffffffffffffffffffffffffffffffffffff163373ffffffffffffffffffffffffffffffffffffffff16145b151561095557600080fd5b600560008481526020019081526020016000205481830114151561097857600080fd5b8160056000858152602001908152602001600020819055506109d06004600085815260200190815260200160002060009054906101000a900473ffffffffffffffffffffffffffffffffffffffff168260085461144e565b6007600084815260200190815260200160002060009054906101000a900460ff1660076000600854815260200190815260200160002060006101000a81548160ff0219169083151502179055506008600081548092919060010191905055506004600084815260200190815260200160002060009054906101000a900473ffffffffffffffffffffffffffffffffffffffff1673ffffffffffffffffffffffffffffffffffffffff16600160085403847f0c7f8b65a397f608cb1d393cc0595e8fb38861c0a7a968741c35f684ea0c554160405160405180910390a4505050565b6000809054906101000a900473ffffffffffffffffffffffffffffffffffffffff1673ffffffffffffffffffffffffffffffffffffffff163373ffffffffffffffffffffffffffffffffffffffff161415610b4c5780600260006101000a81548173ffffffffffffffffffffffffffffffffffffffff021916908373ffffffffffffffffffffffffffffffffffffffff160217905550610b51565b600080fd5b50565b6000600160009054906101000a900473ffffffffffffffffffffffffffffffffffffffff1673ffffffffffffffffffffffffffffffffffffffff163373ffffffffffffffffffffffffffffffffffffffff16141515610bb257600080fd5b600073ffffffffffffffffffffffffffffffffffffffff168373ffffffffffffffffffffffffffffffffffffffff1614151515610bee57600080fd5b60008214151515610bfe57600080fd5b610c0b838360085461144e565b6008600081548092919060010191905055506001600854038373ffffffffffffffffffffffffffffffffffffffff1660007fddf252ad1be2c89b69c2b068fc378daa952ba7f163c4a11628f55a4df523b3ef60405160405180910390a4600160085403905092915050565b600260009054906101000a900473ffffffffffffffffffffffffffffffffffffffff1673ffffffffffffffffffffffffffffffffffffffff163373ffffffffffffffffffffffffffffffffffffffff161480610d1e57506000809054906101000a900473ffffffffffffffffffffffffffffffffffffffff1673ffffffffffffffffffffffffffffffffffffffff163373ffffffffffffffffffffffffffffffffffffffff16145b1515610d2957600080fd5b60016007600083815260200190815260200160002060006101000a81548160ff02191690831515021790555050565b6000809054906101000a900473ffffffffffffffffffffffffffffffffffffffff1673ffffffffffffffffffffffffffffffffffffffff163373ffffffffffffffffffffffffffffffffffffffff161415610df35780600160006101000a81548173ffffffffffffffffffffffffffffffffffffffff021916908373ffffffffffffffffffffffffffffffffffffffff160217905550610df8565b600080fd5b50565b600b8054600181600116156101000203166002900480601f016020809104026020016040519081016040528092919081815260200182805460018160011615610100020316600290048015610e915780601f10610e6657610100808354040283529160200191610e91565b820191906000526020600020905b815481529060010190602001808311610e7457829003601f168201915b505050505081565b6000809054906101000a900473ffffffffffffffffffffffffffffffffffffffff1673ffffffffffffffffffffffffffffffffffffffff163373ffffffffffffffffffffffffffffffffffffffff161415610f345780600360006101000a81548173ffffffffffffffffffffffffffffffffffffffff021916908373ffffffffffffffffffffffffffffffffffffffff160217905550610f39565b600080fd5b50565b600160009054906101000a900473ffffffffffffffffffffffffffffffffffffffff1681565b600080600080600560008681526020019081526020016000205414151515610f8957600080fd5b6004600085815260200190815260200160002060009054906101000a900473ffffffffffffffffffffffffffffffffffffffff1691506004600085815260200190815260200160002060009054906101000a900473ffffffffffffffffffffffffffffffffffffffff1673ffffffffffffffffffffffffffffffffffffffff163373ffffffffffffffffffffffffffffffffffffffff161415611138576007600085815260200190815260200160002060009054906101000a900460ff1615156110e1576040517f08c379a000000000000000000000000000000000000000000000000000000000815260040180806020018281038252603a8152602001807f6669727374207472616e736665722063616e20626520696e766f6b6564206a7581526020017f737420666f726d206d616e6167656d656e74436f6e747261637400000000000081525060400191505060405180910390fd5b846004600086815260200190815260200160002060006101000a81548173ffffffffffffffffffffffffffffffffffffffff021916908373ffffffffffffffffffffffffffffffffffffffff160217905550611383565b6004600085815260200190815260200160002060009054906101000a900473ffffffffffffffffffffffffffffffffffffffff1673ffffffffffffffffffffffffffffffffffffffff163273ffffffffffffffffffffffffffffffffffffffff1614801561124b5750600260009054906101000a900473ffffffffffffffffffffffffffffffffffffffff1673ffffffffffffffffffffffffffffffffffffffff163373ffffffffffffffffffffffffffffffffffffffff16148061124a5750600360009054906101000a900473ffffffffffffffffffffffffffffffffffffffff1673ffffffffffffffffffffffffffffffffffffffff163373ffffffffffffffffffffffffffffffffffffffff16145b5b156112a757846004600086815260200190815260200160002060006101000a81548173ffffffffffffffffffffffffffffffffffffffff021916908373ffffffffffffffffffffffffffffffffffffffff160217905550611382565b600260009054906101000a900473ffffffffffffffffffffffffffffffffffffffff1673ffffffffffffffffffffffffffffffffffffffff163373ffffffffffffffffffffffffffffffffffffffff16141561137c574290506102586006600086815260200190815260200160002054018111151561132557600080fd5b846004600086815260200190815260200160002060006101000a81548173ffffffffffffffffffffffffffffffffffffffff021916908373ffffffffffffffffffffffffffffffffffffffff160217905550611381565b600080fd5b5b5b838573ffffffffffffffffffffffffffffffffffffffff168373ffffffffffffffffffffffffffffffffffffffff167fddf252ad1be2c89b69c2b068fc378daa952ba7f163c4a11628f55a4df523b3ef60405160405180910390a46008549250505092915050565b600260009054906101000a900473ffffffffffffffffffffffffffffffffffffffff1681565b60006004600083815260200190815260200160002060009054906101000a900473ffffffffffffffffffffffffffffffffffffffff169050919050565b826004600083815260200190815260200160002060006101000a81548173ffffffffffffffffffffffffffffffffffffffff021916908373ffffffffffffffffffffffffffffffffffffffff1602179055504260066000838152602001908152602001600020819055508160056000838152602001908152602001600020819055506001600954016009819055505050505600a165627a7a72305820d4a46999edd4c28a57a3da2350003bfce4d2439f342afabc5ba71df2f8fde4910029",
  "source": "pragma solidity ^0.4.23;\n\ncontract DonationTokenOrg{\n    \n    //hardcoded for each organization\n    address owner = 0xf62fef864D88e3d70F22468EEe3B412b67114946;\n\n    //hardcoded for easy testing, can be changed and set through functions\n    address public mainOrgContract = 0x601f186d8c2171b78766924af4614f56f94711b1; \n    address public managementContract = 0x3f826e9555370dd06dd46f67c89bcc97d2b6e1dc;\n    address public vaultContract = 0x4a8db8aef091afc6b71fd617d200e0922368b15c;\n\n    mapping (uint256 => address) private ownerOfToken;\n    mapping (uint256 => uint256) private valueOfToken;\n    //mapping (uint256 => address) private approvedTo;\n    mapping (uint256 => uint256) private timeOfMint;\n    mapping (uint256 => bool) private donated;\n    \n    uint256 public tokenId;\n    uint256 public totalSupply;\n    uint256 public decimals;\n    string public  symbol ;\n    string public  name;\n\n    modifier onlyOwner(){\n        if(msg.sender == owner){\n            _;\n        }else{\n            revert();\n        }\n    }\n   \n    // emit the events for transfer and transferFrom\n    event Transfer(address indexed _from, address indexed _to, uint256 indexed _tokenId); \n    // emit the events for transfer and transferFrom\n    event Split(uint256 indexed _orginialToken, uint256 indexed _splitedToken, address indexed _owner);\n\n    constructor() public {\n        totalSupply = 0;\n        symbol = \"DT\";\n        decimals = 0;\n        name = \"Donate Token\";\n        tokenId = 1;\n    }\n\n    /**\n     transfers a specific Token \n     @notice only the ownerOfToken will be changed, no token will be generated or removed\n     @param _to The address of the recipient\n     @param _tokenId The Id of token to be transferred\n     @return  the Token Id\n    */\n    function transfer(address _to, uint256 _tokenId) public returns (uint256) {\n        require(valueOfToken[_tokenId] != 0);\n        address oldOwner = ownerOfToken[_tokenId];\n        if(msg.sender == ownerOfToken[_tokenId]) {\n            require(donated[_tokenId], \"first transfer can be invoked just form managementContract\"); \n            ownerOfToken[_tokenId] = _to;\n        }\n        else\n            if(tx.origin == ownerOfToken[_tokenId] && (msg.sender == managementContract || msg.sender == vaultContract)){\n                ownerOfToken[_tokenId] = _to;\n        }   \n        else \n            if(msg.sender == managementContract){\n                uint256 t = block.timestamp;\n                require(t > (timeOfMint[_tokenId] + 10 minutes));\n                ownerOfToken[_tokenId] = _to;\n            }\n        else {\n                revert();\n        }\n        emit Transfer(oldOwner, _to, _tokenId);   \n        return (tokenId);\n    }\n  \n    /**\n     Mint token function\n     @dev   check mainOrgContract \n     @param _to The address that will own the minted token\n     @param _value value of Token\n     @return  the Token Id\n    */\n    function _mint(address _to, uint256 _value) public returns(uint256) {\n        require(msg.sender == mainOrgContract);\n        require(_to != address(0));\n        require(_value != 0);\n        addToken(_to, _value, tokenId);\n        tokenId++;\n        emit Transfer(0x0, _to, tokenId - 1);\n        return (tokenId - 1);\n    }\n    \n    /**\n     add a token ID to the list of a given address\n     @dev   can just be invoked from _mint and _split \n     @param _to address representing the new owner of the given token ID\n     @param _value the value of the added Token\n    */\n    function addToken(address _to, uint256 _value, uint _tokenId) internal {\n        ownerOfToken[_tokenId] = _to;\n        timeOfMint[_tokenId] = block.timestamp;\n        valueOfToken[_tokenId] = _value;\n        totalSupply = totalSupply + 1;\n    }\n    \n    /**\n     burn the Token\n     @dev   just change the value of the Token to null \n     @param _from address representing the old owner of the given token ID\n     @param _tokenId the Id of the burned Token\n    */\n    function _burn(uint256 _tokenId, address _from) external {\n        require(msg.sender == vaultContract);\n        valueOfToken[_tokenId] = 0;\n        delete ownerOfToken[_tokenId];\n        emit Transfer(_from, 0x0, _tokenId);\n    } \n    \n    /**\n     split the Token to two Tokens with new values\n     @dev    \n     @param _valueOne  the new value of the original Token\n     @param _valueTwo  the value of the new Token\n     @param _tokenId the Id of the burned Token\n    */\n    function _split(uint256 _tokenId, uint256 _valueOne, uint256 _valueTwo) public {\n        require(msg.sender == ownerOfToken[_tokenId] || msg.sender == managementContract);\n        require(_valueOne + _valueTwo == valueOfToken[_tokenId]);\n        valueOfToken[_tokenId] = _valueOne;\n        addToken(ownerOfToken[_tokenId], _valueTwo, tokenId);\n        donated[tokenId] = donated[_tokenId];\n        tokenId++;\n        emit Split(_tokenId, tokenId - 1, ownerOfToken[_tokenId]);\n    }\n\n    function getOwner(uint256 _tokenId) view public returns(address) {\n        return ownerOfToken[_tokenId];\n    }\n\n    function getValue(uint256 _tokenId) view public returns(uint256) {\n        return valueOfToken[_tokenId];\n    }\n \n    function setdonated(uint256 _tokenId) public {\n        require(msg.sender == managementContract || msg.sender == owner);\n        donated[_tokenId] = true;\n    }\n\n    function() public {\n        revert();\n    }\n\n    //set the related addresses of the contract \n    function setmainOrgContract(address _add) public onlyOwner {\n        mainOrgContract = _add;\n    }\n\n    function setmanagementContract(address _add) public onlyOwner {\n        managementContract = _add;\n    }\n\n    function setVaultContract(address _add) public onlyOwner {\n        vaultContract = _add;\n    }\n \n}\n\n",
  "sourcePath": "C:\\Users\\MajdTL\\Desktop\\BachelorArbeit\\Bachelor_Thesis-master\\ProjectLastVersion 0.1\\contracts\\Approach\\DonationTokenOrg.sol",
  "compiler": {
    "name": "solc",
    "version": "0.4.24+commit.e67f0147.Emscripten.clang"
  },
  "schemaVersion": "2.0.1",
  "updatedAt": "2018-08-28T12:40:48.344Z"
}