{
  "contractName": "MainOrg",
  "abi": [
    {
      "constant": true,
      "inputs": [],
      "name": "vaultContract",
      "outputs": [
        {
          "name": "",
          "type": "address"
        }
      ],
      "payable": false,
      "stateMutability": "view",
      "type": "function"
    },
    {
      "constant": true,
      "inputs": [],
      "name": "dTContract",
      "outputs": [
        {
          "name": "",
          "type": "address"
        }
      ],
      "payable": false,
      "stateMutability": "view",
      "type": "function"
    },
    {
      "constant": true,
      "inputs": [],
      "name": "faiContract",
      "outputs": [
        {
          "name": "",
          "type": "address"
        }
      ],
      "payable": false,
      "stateMutability": "view",
      "type": "function"
    },
    {
      "constant": true,
      "inputs": [],
      "name": "owner",
      "outputs": [
        {
          "name": "",
          "type": "address"
        }
      ],
      "payable": false,
      "stateMutability": "view",
      "type": "function"
    },
    {
      "constant": true,
      "inputs": [],
      "name": "faiBalance",
      "outputs": [
        {
          "name": "",
          "type": "uint256"
        }
      ],
      "payable": false,
      "stateMutability": "view",
      "type": "function"
    },
    {
      "constant": true,
      "inputs": [],
      "name": "managementContract",
      "outputs": [
        {
          "name": "",
          "type": "address"
        }
      ],
      "payable": false,
      "stateMutability": "view",
      "type": "function"
    },
    {
      "anonymous": false,
      "inputs": [
        {
          "indexed": false,
          "name": "_newCost",
          "type": "uint256"
        },
        {
          "indexed": false,
          "name": "_time",
          "type": "uint256"
        }
      ],
      "name": "ChangedCost",
      "type": "event"
    },
    {
      "constant": false,
      "inputs": [],
      "name": "donateEther",
      "outputs": [
        {
          "name": "_tokenId",
          "type": "uint256"
        }
      ],
      "payable": true,
      "stateMutability": "payable",
      "type": "function"
    },
    {
      "constant": false,
      "inputs": [
        {
          "name": "_addr",
          "type": "address"
        },
        {
          "name": "_amount",
          "type": "uint256"
        }
      ],
      "name": "addProjectinNeed",
      "outputs": [],
      "payable": false,
      "stateMutability": "nonpayable",
      "type": "function"
    },
    {
      "constant": false,
      "inputs": [
        {
          "name": "_amount",
          "type": "uint256"
        },
        {
          "name": "_to",
          "type": "address"
        }
      ],
      "name": "withdrawFai",
      "outputs": [],
      "payable": false,
      "stateMutability": "nonpayable",
      "type": "function"
    },
    {
      "constant": false,
      "inputs": [],
      "name": "refreshBalance",
      "outputs": [],
      "payable": false,
      "stateMutability": "nonpayable",
      "type": "function"
    },
    {
      "constant": false,
      "inputs": [
        {
          "name": "_add",
          "type": "address"
        }
      ],
      "name": "setDTContract",
      "outputs": [],
      "payable": false,
      "stateMutability": "nonpayable",
      "type": "function"
    },
    {
      "constant": false,
      "inputs": [
        {
          "name": "_add",
          "type": "address"
        }
      ],
      "name": "setFaiContract",
      "outputs": [],
      "payable": false,
      "stateMutability": "nonpayable",
      "type": "function"
    },
    {
      "constant": false,
      "inputs": [
        {
          "name": "_add",
          "type": "address"
        }
      ],
      "name": "setVaultContract",
      "outputs": [],
      "payable": false,
      "stateMutability": "nonpayable",
      "type": "function"
    },
    {
      "constant": false,
      "inputs": [
        {
          "name": "_add",
          "type": "address"
        }
      ],
      "name": "setManagementContract",
      "outputs": [],
      "payable": false,
      "stateMutability": "nonpayable",
      "type": "function"
    },
    {
      "constant": false,
      "inputs": [
        {
          "name": "_currentCost",
          "type": "uint256"
        }
      ],
      "name": "setcurrentCost",
      "outputs": [],
      "payable": false,
      "stateMutability": "nonpayable",
      "type": "function"
    },
    {
      "constant": false,
      "inputs": [],
      "name": "withdrawEther",
      "outputs": [],
      "payable": false,
      "stateMutability": "nonpayable",
      "type": "function"
    }
  ],
  "bytecode": "0x608060405273f62fef864d88e3d70f22468eee3b412b671149466000806101000a81548173ffffffffffffffffffffffffffffffffffffffff021916908373ffffffffffffffffffffffffffffffffffffffff16021790555073bfd0c2b508af2b14d85d2e0c94b5341cdada27ec600160006101000a81548173ffffffffffffffffffffffffffffffffffffffff021916908373ffffffffffffffffffffffffffffffffffffffff1602179055507343ddcbc37fb400976be522e20098a15ac846d044600260006101000a81548173ffffffffffffffffffffffffffffffffffffffff021916908373ffffffffffffffffffffffffffffffffffffffff160217905550734a8db8aef091afc6b71fd617d200e0922368b15c600360006101000a81548173ffffffffffffffffffffffffffffffffffffffff021916908373ffffffffffffffffffffffffffffffffffffffff160217905550733f826e9555370dd06dd46f67c89bcc97d2b6e1dc600460006101000a81548173ffffffffffffffffffffffffffffffffffffffff021916908373ffffffffffffffffffffffffffffffffffffffff1602179055506103e86005553480156101be57600080fd5b506110cd806101ce6000396000f3006080604052600436106100e5576000357c0100000000000000000000000000000000000000000000000000000000900463ffffffff1680624e1944146100ea5780631df77caa146101015780632274346b146101445780632c758fe71461019b5780633f2e1d82146101f25780637362377b14610235578063790fef801461024c578063863451dd146102a35780638da5cb5b146102c157806396f4ada614610318578063b2748de51461035b578063b3e5cc4a14610386578063bf92ee78146103dd578063ca245b1914610420578063dc987b551461044d578063de3de8291461049a575b600080fd5b3480156100f657600080fd5b506100ff6104e7565b005b34801561010d57600080fd5b50610142600480360381019080803573ffffffffffffffffffffffffffffffffffffffff1690602001909291905050506105ed565b005b34801561015057600080fd5b50610159610690565b604051808273ffffffffffffffffffffffffffffffffffffffff1673ffffffffffffffffffffffffffffffffffffffff16815260200191505060405180910390f35b3480156101a757600080fd5b506101b06106b6565b604051808273ffffffffffffffffffffffffffffffffffffffff1673ffffffffffffffffffffffffffffffffffffffff16815260200191505060405180910390f35b3480156101fe57600080fd5b50610233600480360381019080803573ffffffffffffffffffffffffffffffffffffffff1690602001909291905050506106dc565b005b34801561024157600080fd5b5061024a61077f565b005b34801561025857600080fd5b5061026161083e565b604051808273ffffffffffffffffffffffffffffffffffffffff1673ffffffffffffffffffffffffffffffffffffffff16815260200191505060405180910390f35b6102ab610864565b6040518082815260200191505060405180910390f35b3480156102cd57600080fd5b506102d6610952565b604051808273ffffffffffffffffffffffffffffffffffffffff1673ffffffffffffffffffffffffffffffffffffffff16815260200191505060405180910390f35b34801561032457600080fd5b50610359600480360381019080803573ffffffffffffffffffffffffffffffffffffffff169060200190929190505050610977565b005b34801561036757600080fd5b50610370610a1a565b6040518082815260200191505060405180910390f35b34801561039257600080fd5b5061039b610a20565b604051808273ffffffffffffffffffffffffffffffffffffffff1673ffffffffffffffffffffffffffffffffffffffff16815260200191505060405180910390f35b3480156103e957600080fd5b5061041e600480360381019080803573ffffffffffffffffffffffffffffffffffffffff169060200190929190505050610a46565b005b34801561042c57600080fd5b5061044b60048036038101908080359060200190929190505050610ae9565b005b34801561045957600080fd5b50610498600480360381019080803573ffffffffffffffffffffffffffffffffffffffff16906020019092919080359060200190929190505050610b9b565b005b3480156104a657600080fd5b506104e560048036038101908080359060200190929190803573ffffffffffffffffffffffffffffffffffffffff169060200190929190505050610ce1565b005b6000600260009054906101000a900473ffffffffffffffffffffffffffffffffffffffff1690508073ffffffffffffffffffffffffffffffffffffffff166370a08231306040518263ffffffff167c0100000000000000000000000000000000000000000000000000000000028152600401808273ffffffffffffffffffffffffffffffffffffffff1673ffffffffffffffffffffffffffffffffffffffff168152602001915050602060405180830381600087803b1580156105a957600080fd5b505af11580156105bd573d6000803e3d6000fd5b505050506040513d60208110156105d357600080fd5b810190808051906020019092919050505060068190555050565b6000809054906101000a900473ffffffffffffffffffffffffffffffffffffffff1673ffffffffffffffffffffffffffffffffffffffff163373ffffffffffffffffffffffffffffffffffffffff1614156106885780600460006101000a81548173ffffffffffffffffffffffffffffffffffffffff021916908373ffffffffffffffffffffffffffffffffffffffff16021790555061068d565b600080fd5b50565b600360009054906101000a900473ffffffffffffffffffffffffffffffffffffffff1681565b600160009054906101000a900473ffffffffffffffffffffffffffffffffffffffff1681565b6000809054906101000a900473ffffffffffffffffffffffffffffffffffffffff1673ffffffffffffffffffffffffffffffffffffffff163373ffffffffffffffffffffffffffffffffffffffff1614156107775780600160006101000a81548173ffffffffffffffffffffffffffffffffffffffff021916908373ffffffffffffffffffffffffffffffffffffffff16021790555061077c565b600080fd5b50565b6000809054906101000a900473ffffffffffffffffffffffffffffffffffffffff1673ffffffffffffffffffffffffffffffffffffffff163373ffffffffffffffffffffffffffffffffffffffff161415610837573373ffffffffffffffffffffffffffffffffffffffff166108fc3073ffffffffffffffffffffffffffffffffffffffff16319081150290604051600060405180830381858888f19350505050158015610831573d6000803e3d6000fd5b5061083c565b600080fd5b565b600260009054906101000a900473ffffffffffffffffffffffffffffffffffffffff1681565b60008060006108716104e7565b66b1a2bc2ec5000034101515156108f0576040517f08c379a00000000000000000000000000000000000000000000000000000000081526004018080602001828103825260108152602001807f6e6f7420656e6f7567682065746865720000000000000000000000000000000081525060200191505060405180910390fd5b60055434029150670de0b6b3a76400008281151561090a57fe5b049050610939600360009054906101000a900473ffffffffffffffffffffffffffffffffffffffff1682610e87565b6109416104e7565b61094b3382610f92565b9250505090565b6000809054906101000a900473ffffffffffffffffffffffffffffffffffffffff1681565b6000809054906101000a900473ffffffffffffffffffffffffffffffffffffffff1673ffffffffffffffffffffffffffffffffffffffff163373ffffffffffffffffffffffffffffffffffffffff161415610a125780600360006101000a81548173ffffffffffffffffffffffffffffffffffffffff021916908373ffffffffffffffffffffffffffffffffffffffff160217905550610a17565b600080fd5b50565b60065481565b600460009054906101000a900473ffffffffffffffffffffffffffffffffffffffff1681565b6000809054906101000a900473ffffffffffffffffffffffffffffffffffffffff1673ffffffffffffffffffffffffffffffffffffffff163373ffffffffffffffffffffffffffffffffffffffff161415610ae15780600260006101000a81548173ffffffffffffffffffffffffffffffffffffffff021916908373ffffffffffffffffffffffffffffffffffffffff160217905550610ae6565b600080fd5b50565b6000809054906101000a900473ffffffffffffffffffffffffffffffffffffffff1673ffffffffffffffffffffffffffffffffffffffff163373ffffffffffffffffffffffffffffffffffffffff161415610b935780600581905550610b4d6104e7565b7f13e82c5c5b3f3209882aad241c7f4484411210b55e4032084f37f43338bd956760055442604051808381526020018281526020019250505060405180910390a1610b98565b600080fd5b50565b60008060009054906101000a900473ffffffffffffffffffffffffffffffffffffffff1673ffffffffffffffffffffffffffffffffffffffff163373ffffffffffffffffffffffffffffffffffffffff161415610cd757600460009054906101000a900473ffffffffffffffffffffffffffffffffffffffff1690508073ffffffffffffffffffffffffffffffffffffffff166353a7bec884846040518363ffffffff167c0100000000000000000000000000000000000000000000000000000000028152600401808373ffffffffffffffffffffffffffffffffffffffff1673ffffffffffffffffffffffffffffffffffffffff16815260200182815260200192505050600060405180830381600087803b158015610cba57600080fd5b505af1158015610cce573d6000803e3d6000fd5b50505050610cdc565b600080fd5b505050565b60008060009054906101000a900473ffffffffffffffffffffffffffffffffffffffff1673ffffffffffffffffffffffffffffffffffffffff163373ffffffffffffffffffffffffffffffffffffffff161415610e7d57600260009054906101000a900473ffffffffffffffffffffffffffffffffffffffff1690508073ffffffffffffffffffffffffffffffffffffffff166323b872dd3084866040518463ffffffff167c0100000000000000000000000000000000000000000000000000000000028152600401808473ffffffffffffffffffffffffffffffffffffffff1673ffffffffffffffffffffffffffffffffffffffff1681526020018373ffffffffffffffffffffffffffffffffffffffff1673ffffffffffffffffffffffffffffffffffffffff1681526020018281526020019350505050602060405180830381600087803b158015610e3457600080fd5b505af1158015610e48573d6000803e3d6000fd5b505050506040513d6020811015610e5e57600080fd5b810190808051906020019092919050505050610e786104e7565b610e82565b600080fd5b505050565b6000600260009054906101000a900473ffffffffffffffffffffffffffffffffffffffff1690508073ffffffffffffffffffffffffffffffffffffffff1663a9059cbb84846040518363ffffffff167c0100000000000000000000000000000000000000000000000000000000028152600401808373ffffffffffffffffffffffffffffffffffffffff1673ffffffffffffffffffffffffffffffffffffffff16815260200182815260200192505050602060405180830381600087803b158015610f5157600080fd5b505af1158015610f65573d6000803e3d6000fd5b505050506040513d6020811015610f7b57600080fd5b810190808051906020019092919050505050505050565b600080600160009054906101000a900473ffffffffffffffffffffffffffffffffffffffff1690508073ffffffffffffffffffffffffffffffffffffffff16634e6ec24785856040518363ffffffff167c0100000000000000000000000000000000000000000000000000000000028152600401808373ffffffffffffffffffffffffffffffffffffffff1673ffffffffffffffffffffffffffffffffffffffff16815260200182815260200192505050602060405180830381600087803b15801561105d57600080fd5b505af1158015611071573d6000803e3d6000fd5b505050506040513d602081101561108757600080fd5b8101908080519060200190929190505050915050929150505600a165627a7a7230582006cb01aecc3bb6a01759903159a1c9316010ed0799a4295971c89270977ae7620029",
  "source": "pragma solidity ^0.4.23;\n\nimport \"./DonationTokenOrg.sol\";\nimport \"./FaiToken.sol\";\nimport \"./ManagementOrg.sol\";\n\ncontract MainOrg {\n\n    //hardcoded for each organization\n    address public owner = 0xf62fef864D88e3d70F22468EEe3B412b67114946;\n\n    //hardcoded for easy testing, can be changed and set through functions\n    address public dTContract = 0xbfd0c2b508af2b14d85d2e0c94b5341cdada27ec;\n    address public faiContract = 0x43ddcbc37fb400976be522e20098a15ac846d044;\n    address public vaultContract = 0x4a8db8aef091afc6b71fd617d200e0922368b15c;\n    address public managementContract = 0x3f826e9555370dd06dd46f67c89bcc97d2b6e1dc;\n\n    uint256 currentCost = 1000;\n\n    uint256 public faiBalance;\n\n    modifier onlyOwner(){\n        if(msg.sender == owner){\n            _;\n        }else{\n            revert();\n        }\n    }\n    \n    event ChangedCost(uint256 _newCost, uint256 _time);\n\n    /**\n     send the amount of Ether you want to donate and get a token \n     @dev there should be a min limit to cover the transaction fee (i think it should be changeable)\n     @notice the user \"should\" check the amount of Dai that is avialable in this contract before the donation, he could do that by calling the refreshbalance methode \n        or getBalance in the FaiToken, if there is no Fai in the contract, then he will lose some gas invoking the method\n    */\n    function donateEther() public payable returns (uint256 _tokenId) {\n        refreshBalance();\n        require(msg.value >= 0.05 ether, \"not enough ether\");\n        uint256 i = (msg.value * currentCost);\n        uint256 v = i/1000000000000000000; \n        //require(v <= faiBalance, \"need more Fai\");  \n        transferFaiTo(vaultContract, v);\n        refreshBalance();\n        _tokenId = mintTokens(msg.sender, v);\n    }\n\n    /**\n     mint a new Token when Ether is donated \n     @dev internal function\n     @param _to The address of the recipient \n     @param _value The value of the minted Token\n    */\n    function mintTokens(address _to, uint256 _value) internal returns (uint256 _tokenid) {\n        DonationTokenOrg token = DonationTokenOrg(dTContract);\n        _tokenid = token._mint(_to, _value);\n    }\n\n    /**\n     add a Project which need money to the management contract\n     @notice onlyOwner can invoke it\n     @param _addr The address of the project \n     @param _amount The amount of money does the project need\n    */\n    function addProjectinNeed(address _addr, uint256 _amount) public onlyOwner {\n        ManagementOrg m = ManagementOrg(managementContract);\n        m.addProject(_addr, _amount);\n    }\n\n    /**\n     transfers Fai Tokens  \n     @notice internal Function can only be called when someone donate Ether\n     @param _to The address of the recipient(Vault contract)\n     @param _amount The amount to be transferred\n    */\n    function transferFaiTo(address _to, uint256 _amount) internal {\n        FaiToken fai = FaiToken(faiContract);\n        fai.transfer(_to, _amount);\n    }\n \n    //is usefull???\n    function withdrawFai(uint _amount, address _to) public onlyOwner {\n        FaiToken fai = FaiToken(faiContract);\n        fai.transferFrom(this, _to, _amount);\n        refreshBalance();\n    }\n\n    //refresh the balance, actully not neccessary, people can see the balance from the Fai contract\n    function refreshBalance() public {\n        FaiToken fai = FaiToken(faiContract);\n        faiBalance = fai.balanceOf(this);\n    }\n\n    //set addresses of the contracts.. \n\n    function setDTContract(address _add) public onlyOwner {\n        dTContract = _add;\n    }\n\n    function setFaiContract(address _add) public onlyOwner {\n        faiContract = _add;\n    }\n\n    function setVaultContract(address _add) public onlyOwner {\n        vaultContract = _add;\n    }\n    \n    function setManagementContract(address _add) public onlyOwner {\n        managementContract = _add;\n    }\n       \n    function setcurrentCost(uint256 _currentCost) public onlyOwner {\n        currentCost = _currentCost; \n        refreshBalance();\n        emit ChangedCost(currentCost, now);\n    }\n\n    function withdrawEther() public onlyOwner {\n        msg.sender.transfer(address(this).balance);\n    }\n}",
  "sourcePath": "C:\\Users\\MajdTL\\Desktop\\BachelorArbeit\\Bachelor_Thesis-master\\ProjectLastVersion 0.1\\contracts\\Approach\\MainOrg.sol",
  "compiler": {
    "name": "solc",
    "version": "0.4.24+commit.e67f0147.Emscripten.clang"
  },
  "schemaVersion": "2.0.1",
  "updatedAt": "2018-08-28T12:40:48.327Z"
}