{
  "contractName": "ManagementOrg",
  "abi": [
    {
      "constant": true,
      "inputs": [],
      "name": "dTContract",
      "outputs": [
        {
          "name": "",
          "type": "address"
        }
      ],
      "payable": false,
      "stateMutability": "view",
      "type": "function"
    },
    {
      "constant": true,
      "inputs": [],
      "name": "mainOrgContract",
      "outputs": [
        {
          "name": "",
          "type": "address"
        }
      ],
      "payable": false,
      "stateMutability": "view",
      "type": "function"
    },
    {
      "constant": true,
      "inputs": [
        {
          "name": "",
          "type": "address"
        }
      ],
      "name": "projectNeedMap",
      "outputs": [
        {
          "name": "",
          "type": "uint256"
        }
      ],
      "payable": false,
      "stateMutability": "view",
      "type": "function"
    },
    {
      "constant": true,
      "inputs": [
        {
          "name": "",
          "type": "address"
        }
      ],
      "name": "indexInArray",
      "outputs": [
        {
          "name": "",
          "type": "uint256"
        }
      ],
      "payable": false,
      "stateMutability": "view",
      "type": "function"
    },
    {
      "inputs": [],
      "payable": false,
      "stateMutability": "nonpayable",
      "type": "constructor"
    },
    {
      "constant": false,
      "inputs": [
        {
          "name": "_addr",
          "type": "address"
        },
        {
          "name": "amount",
          "type": "uint256"
        }
      ],
      "name": "addProject",
      "outputs": [],
      "payable": false,
      "stateMutability": "nonpayable",
      "type": "function"
    },
    {
      "constant": false,
      "inputs": [
        {
          "name": "_addr",
          "type": "address"
        },
        {
          "name": "_tokenId",
          "type": "uint256"
        }
      ],
      "name": "donateToProject",
      "outputs": [
        {
          "name": "idx",
          "type": "uint256"
        }
      ],
      "payable": false,
      "stateMutability": "nonpayable",
      "type": "function"
    },
    {
      "constant": false,
      "inputs": [
        {
          "name": "_addr",
          "type": "address"
        }
      ],
      "name": "removeProject",
      "outputs": [],
      "payable": false,
      "stateMutability": "nonpayable",
      "type": "function"
    },
    {
      "constant": false,
      "inputs": [
        {
          "name": "_addr",
          "type": "address"
        },
        {
          "name": "_tokenId",
          "type": "uint256"
        }
      ],
      "name": "transerDToken",
      "outputs": [],
      "payable": false,
      "stateMutability": "nonpayable",
      "type": "function"
    },
    {
      "constant": true,
      "inputs": [
        {
          "name": "_addr",
          "type": "address"
        }
      ],
      "name": "getidxOfProject",
      "outputs": [
        {
          "name": "",
          "type": "uint256"
        }
      ],
      "payable": false,
      "stateMutability": "view",
      "type": "function"
    },
    {
      "constant": true,
      "inputs": [
        {
          "name": "_addr",
          "type": "address"
        }
      ],
      "name": "getNeedof",
      "outputs": [
        {
          "name": "",
          "type": "uint256"
        }
      ],
      "payable": false,
      "stateMutability": "view",
      "type": "function"
    },
    {
      "constant": true,
      "inputs": [],
      "name": "getProjects",
      "outputs": [
        {
          "name": "",
          "type": "address[]"
        }
      ],
      "payable": false,
      "stateMutability": "view",
      "type": "function"
    },
    {
      "constant": false,
      "inputs": [
        {
          "name": "_addr",
          "type": "address"
        }
      ],
      "name": "changeStatusofPorject",
      "outputs": [],
      "payable": false,
      "stateMutability": "nonpayable",
      "type": "function"
    },
    {
      "constant": false,
      "inputs": [
        {
          "name": "_add",
          "type": "address"
        }
      ],
      "name": "setDTContract",
      "outputs": [],
      "payable": false,
      "stateMutability": "nonpayable",
      "type": "function"
    },
    {
      "constant": false,
      "inputs": [
        {
          "name": "_add",
          "type": "address"
        }
      ],
      "name": "setmainOrgContract",
      "outputs": [],
      "payable": false,
      "stateMutability": "nonpayable",
      "type": "function"
    }
  ],
  "bytecode": "0x608060405273f62fef864d88e3d70f22468eee3b412b671149466000806101000a81548173ffffffffffffffffffffffffffffffffffffffff021916908373ffffffffffffffffffffffffffffffffffffffff16021790555073bfd0c2b508af2b14d85d2e0c94b5341cdada27ec600160006101000a81548173ffffffffffffffffffffffffffffffffffffffff021916908373ffffffffffffffffffffffffffffffffffffffff16021790555073601f186d8c2171b78766924af4614f56f94711b1600260006101000a81548173ffffffffffffffffffffffffffffffffffffffff021916908373ffffffffffffffffffffffffffffffffffffffff1602179055503480156200010f57600080fd5b506001604051908082528060200260200182016040528015620001415781602001602082028038833980820191505090505b506003908051906020019062000159929190620001bb565b506000600360008154811015156200016d57fe5b9060005260206000200160006101000a81548173ffffffffffffffffffffffffffffffffffffffff021916908373ffffffffffffffffffffffffffffffffffffffff16021790555062000290565b82805482825590600052602060002090810192821562000237579160200282015b82811115620002365782518260006101000a81548173ffffffffffffffffffffffffffffffffffffffff021916908373ffffffffffffffffffffffffffffffffffffffff16021790555091602001919060010190620001dc565b5b5090506200024691906200024a565b5090565b6200028d91905b808211156200028957600081816101000a81549073ffffffffffffffffffffffffffffffffffffffff02191690555060010162000251565b5090565b90565b61139280620002a06000396000f3006080604052600436106100d0576000357c0100000000000000000000000000000000000000000000000000000000900463ffffffff1680630c0ad299146100d55780632c758fe7146101185780633f2e1d821461016f57806353a7bec8146101b257806368a30db6146101ff5780638c3dc5cf146102605780639940202e146102a357806399c5307d146102fa578063a26029a714610351578063b12c32c61461039e578063c7e8bbf2146103e1578063c803400014610438578063cb49d1851461048f578063dcc60128146104e6575b600080fd5b3480156100e157600080fd5b50610116600480360381019080803573ffffffffffffffffffffffffffffffffffffffff169060200190929190505050610552565b005b34801561012457600080fd5b5061012d610680565b604051808273ffffffffffffffffffffffffffffffffffffffff1673ffffffffffffffffffffffffffffffffffffffff16815260200191505060405180910390f35b34801561017b57600080fd5b506101b0600480360381019080803573ffffffffffffffffffffffffffffffffffffffff1690602001909291905050506106a6565b005b3480156101be57600080fd5b506101fd600480360381019080803573ffffffffffffffffffffffffffffffffffffffff16906020019092919080359060200190929190505050610749565b005b34801561020b57600080fd5b5061024a600480360381019080803573ffffffffffffffffffffffffffffffffffffffff16906020019092919080359060200190929190505050610992565b6040518082815260200191505060405180910390f35b34801561026c57600080fd5b506102a1600480360381019080803573ffffffffffffffffffffffffffffffffffffffff169060200190929190505050610cf7565b005b3480156102af57600080fd5b506102b8610d9a565b604051808273ffffffffffffffffffffffffffffffffffffffff1673ffffffffffffffffffffffffffffffffffffffff16815260200191505060405180910390f35b34801561030657600080fd5b5061033b600480360381019080803573ffffffffffffffffffffffffffffffffffffffff169060200190929190505050610dc0565b6040518082815260200191505060405180910390f35b34801561035d57600080fd5b5061039c600480360381019080803573ffffffffffffffffffffffffffffffffffffffff16906020019092919080359060200190929190505050610dd8565b005b3480156103aa57600080fd5b506103df600480360381019080803573ffffffffffffffffffffffffffffffffffffffff16906020019092919050505061114a565b005b3480156103ed57600080fd5b50610422600480360381019080803573ffffffffffffffffffffffffffffffffffffffff16906020019092919050505061122e565b6040518082815260200191505060405180910390f35b34801561044457600080fd5b50610479600480360381019080803573ffffffffffffffffffffffffffffffffffffffff169060200190929190505050611277565b6040518082815260200191505060405180910390f35b34801561049b57600080fd5b506104d0600480360381019080803573ffffffffffffffffffffffffffffffffffffffff16906020019092919050505061128f565b6040518082815260200191505060405180910390f35b3480156104f257600080fd5b506104fb6112d8565b6040518080602001828103825283818151815260200191508051906020019060200280838360005b8381101561053e578082015181840152602081019050610523565b505050509050019250505060405180910390f35b600080600460008473ffffffffffffffffffffffffffffffffffffffff1673ffffffffffffffffffffffffffffffffffffffff168152602001908152602001600020541415156105a157600080fd5b6000600560008473ffffffffffffffffffffffffffffffffffffffff1673ffffffffffffffffffffffffffffffffffffffff16815260200190815260200160002054141515156105f057600080fd5b6105f98261128f565b905060038181548110151561060a57fe5b9060005260206000200160006101000a81549073ffffffffffffffffffffffffffffffffffffffff02191690556000600560008473ffffffffffffffffffffffffffffffffffffffff1673ffffffffffffffffffffffffffffffffffffffff168152602001908152602001600020819055505050565b600160009054906101000a900473ffffffffffffffffffffffffffffffffffffffff1681565b6000809054906101000a900473ffffffffffffffffffffffffffffffffffffffff1673ffffffffffffffffffffffffffffffffffffffff163373ffffffffffffffffffffffffffffffffffffffff1614156107415780600160006101000a81548173ffffffffffffffffffffffffffffffffffffffff021916908373ffffffffffffffffffffffffffffffffffffffff160217905550610746565b600080fd5b50565b600260009054906101000a900473ffffffffffffffffffffffffffffffffffffffff1673ffffffffffffffffffffffffffffffffffffffff163373ffffffffffffffffffffffffffffffffffffffff1614806107f157506000809054906101000a900473ffffffffffffffffffffffffffffffffffffffff1673ffffffffffffffffffffffffffffffffffffffff163373ffffffffffffffffffffffffffffffffffffffff16145b15156107fc57600080fd5b6000600460008473ffffffffffffffffffffffffffffffffffffffff1673ffffffffffffffffffffffffffffffffffffffff1681526020019081526020016000205414151561084a57600080fd5b6000600560008473ffffffffffffffffffffffffffffffffffffffff1673ffffffffffffffffffffffffffffffffffffffff1681526020019081526020016000205414151561089857600080fd5b60038290806001815401808255809150509060018203906000526020600020016000909192909190916101000a81548173ffffffffffffffffffffffffffffffffffffffff021916908373ffffffffffffffffffffffffffffffffffffffff1602179055505080600460008473ffffffffffffffffffffffffffffffffffffffff1673ffffffffffffffffffffffffffffffffffffffff16815260200190815260200160002081905550600160038054905003600560008473ffffffffffffffffffffffffffffffffffffffff1673ffffffffffffffffffffffffffffffffffffffff168152602001908152602001600020819055505050565b600080600080600460008773ffffffffffffffffffffffffffffffffffffffff1673ffffffffffffffffffffffffffffffffffffffff168152602001908152602001600020541115156109e457600080fd5b600160009054906101000a900473ffffffffffffffffffffffffffffffffffffffff1691508173ffffffffffffffffffffffffffffffffffffffff16630ff4c916856040518263ffffffff167c010000000000000000000000000000000000000000000000000000000002815260040180828152602001915050602060405180830381600087803b158015610a7857600080fd5b505af1158015610a8c573d6000803e3d6000fd5b505050506040513d6020811015610aa257600080fd5b81019080805190602001909291905050509050600460008673ffffffffffffffffffffffffffffffffffffffff1673ffffffffffffffffffffffffffffffffffffffff168152602001908152602001600020548111151515610b0357600080fd5b80600460008773ffffffffffffffffffffffffffffffffffffffff1673ffffffffffffffffffffffffffffffffffffffff1681526020019081526020016000205403600460008773ffffffffffffffffffffffffffffffffffffffff1673ffffffffffffffffffffffffffffffffffffffff168152602001908152602001600020819055508173ffffffffffffffffffffffffffffffffffffffff16638800cedd856040518263ffffffff167c010000000000000000000000000000000000000000000000000000000002815260040180828152602001915050600060405180830381600087803b158015610bf757600080fd5b505af1158015610c0b573d6000803e3d6000fd5b505050508173ffffffffffffffffffffffffffffffffffffffff1663a9059cbb86866040518363ffffffff167c0100000000000000000000000000000000000000000000000000000000028152600401808373ffffffffffffffffffffffffffffffffffffffff1673ffffffffffffffffffffffffffffffffffffffff16815260200182815260200192505050602060405180830381600087803b158015610cb257600080fd5b505af1158015610cc6573d6000803e3d6000fd5b505050506040513d6020811015610cdc57600080fd5b81019080805190602001909291905050509250505092915050565b6000809054906101000a900473ffffffffffffffffffffffffffffffffffffffff1673ffffffffffffffffffffffffffffffffffffffff163373ffffffffffffffffffffffffffffffffffffffff161415610d925780600260006101000a81548173ffffffffffffffffffffffffffffffffffffffff021916908373ffffffffffffffffffffffffffffffffffffffff160217905550610d97565b600080fd5b50565b600260009054906101000a900473ffffffffffffffffffffffffffffffffffffffff1681565b60046020528060005260406000206000915090505481565b6000806000809054906101000a900473ffffffffffffffffffffffffffffffffffffffff1673ffffffffffffffffffffffffffffffffffffffff163373ffffffffffffffffffffffffffffffffffffffff16141561113f57600160009054906101000a900473ffffffffffffffffffffffffffffffffffffffff1691508173ffffffffffffffffffffffffffffffffffffffff16630ff4c916846040518263ffffffff167c010000000000000000000000000000000000000000000000000000000002815260040180828152602001915050602060405180830381600087803b158015610ec457600080fd5b505af1158015610ed8573d6000803e3d6000fd5b505050506040513d6020811015610eee57600080fd5b81019080805190602001909291905050509050600460008573ffffffffffffffffffffffffffffffffffffffff1673ffffffffffffffffffffffffffffffffffffffff168152602001908152602001600020548111151515610f4f57600080fd5b80600460008673ffffffffffffffffffffffffffffffffffffffff1673ffffffffffffffffffffffffffffffffffffffff1681526020019081526020016000205403600460008673ffffffffffffffffffffffffffffffffffffffff1673ffffffffffffffffffffffffffffffffffffffff168152602001908152602001600020819055508173ffffffffffffffffffffffffffffffffffffffff16638800cedd846040518263ffffffff167c010000000000000000000000000000000000000000000000000000000002815260040180828152602001915050600060405180830381600087803b15801561104357600080fd5b505af1158015611057573d6000803e3d6000fd5b505050508173ffffffffffffffffffffffffffffffffffffffff1663a9059cbb85856040518363ffffffff167c0100000000000000000000000000000000000000000000000000000000028152600401808373ffffffffffffffffffffffffffffffffffffffff1673ffffffffffffffffffffffffffffffffffffffff16815260200182815260200192505050602060405180830381600087803b1580156110fe57600080fd5b505af1158015611112573d6000803e3d6000fd5b505050506040513d602081101561112857600080fd5b810190808051906020019092919050505050611144565b600080fd5b50505050565b60008060009054906101000a900473ffffffffffffffffffffffffffffffffffffffff1673ffffffffffffffffffffffffffffffffffffffff163373ffffffffffffffffffffffffffffffffffffffff161415611225578190508073ffffffffffffffffffffffffffffffffffffffff1663085634ec6040518163ffffffff167c0100000000000000000000000000000000000000000000000000000000028152600401600060405180830381600087803b15801561120857600080fd5b505af115801561121c573d6000803e3d6000fd5b5050505061122a565b600080fd5b5050565b6000600460008373ffffffffffffffffffffffffffffffffffffffff1673ffffffffffffffffffffffffffffffffffffffff168152602001908152602001600020549050919050565b60056020528060005260406000206000915090505481565b6000600560008373ffffffffffffffffffffffffffffffffffffffff1673ffffffffffffffffffffffffffffffffffffffff168152602001908152602001600020549050919050565b6060600380548060200260200160405190810160405280929190818152602001828054801561135c57602002820191906000526020600020905b8160009054906101000a900473ffffffffffffffffffffffffffffffffffffffff1673ffffffffffffffffffffffffffffffffffffffff1681526020019060010190808311611312575b50505050509050905600a165627a7a72305820a98a3dd8fa32e2db4ec1f19cde799e8bf06ebd1c8cd66fdc0ff9562c81a2c1c50029",
  "source": "pragma solidity ^0.4.23;\n\nimport \"./ProjectOrg.sol\";\nimport \"./DonationTokenOrg.sol\";\nimport \"./MainOrg.sol\";\n\ncontract ManagementOrg {\n\n    //hardcoded for each organization\n    address owner = 0xf62fef864D88e3d70F22468EEe3B412b67114946;\n    \n    //hardcoded for easy testing, can be changed and set through functions\n    address public dTContract = 0xbfd0c2b508af2b14d85d2e0c94b5341cdada27ec;\n    address public mainOrgContract = 0x601f186d8c2171b78766924af4614f56f94711b1;\n\n    //in this array are the project which currently need money\n    address[] projectsArray;\n\n    mapping (address => uint256) public  projectNeedMap;\n    mapping (address => uint256) public indexInArray;\n\n    modifier onlyOwner(){\n        if(msg.sender == owner){\n            _;\n        }else{\n            revert();\n        }\n    }\n\n    constructor() public{\n        projectsArray = new address[](1);\n        projectsArray[0] = 0x0;\n    }\n\n    /**\n     Add a project in need, to enable a direct donation for it\n     @notice only the owner can call this function\n     @param _addr The address of the project\n     @param amount The amount to money is needed\n    */\n    function addProject(address _addr, uint256 amount) public {\n        require(msg.sender == mainOrgContract || msg.sender == owner);\n        require(projectNeedMap[_addr] == 0);\n        require(indexInArray[_addr] == 0);\n        projectsArray.push(_addr);\n        projectNeedMap[_addr] = amount;\n        indexInArray[_addr] = projectsArray.length - 1;\n    }\n\n \n    /**\n     donate to a project in need \n     @notice this function is just for the first donation of each token\n     @param _addr The address of the project\n     @param _tokenId The id of the Token  \n    */\n    function donateToProject(address _addr, uint256 _tokenId) public returns(uint256 idx) {\n        require(projectNeedMap[_addr] > 0);\n        DonationTokenOrg dtoken = DonationTokenOrg(dTContract);\n        uint256 v = dtoken.getValue(_tokenId);\n        require(v <= projectNeedMap[_addr]);\n        projectNeedMap[_addr] = projectNeedMap[_addr] - v;\n        dtoken.setdonated(_tokenId);\n        idx = dtoken.transfer(_addr, _tokenId);\n    }\n\n \n    /**\n     remove a project from the need Array \n     @notice anyone can call it, project will be remove iff the amount of need equal to null\n     @param _addr The address of the project\n    */\n    function removeProject(address _addr) public {\n        require(projectNeedMap[_addr] == 0);\n        require(indexInArray[_addr] != 0);\n        uint256 _idx = getidxOfProject(_addr);\n        delete projectsArray[_idx];\n        indexInArray[_addr] = 0;\n    }\n\n    /**\n     transfer Token in case a doanter missed the free donationTime \n     @notice only the owner can call it, and it only donate to a project in need\n     @param _addr The address of the project\n     @param _tokenId The id of the Token  \n    */\n    function transerDToken(address _addr, uint256 _tokenId) public onlyOwner {\n        DonationTokenOrg dtoken = DonationTokenOrg(dTContract);\n        uint256 v = dtoken.getValue(_tokenId);\n        require(v <= projectNeedMap[_addr]);\n        projectNeedMap[_addr] = projectNeedMap[_addr] - v;\n        dtoken.setdonated(_tokenId);\n        dtoken.transfer(_addr, _tokenId);\n    }\n\n   //get methods\n    function getidxOfProject(address _addr) public view returns(uint256) {\n        return indexInArray[_addr]; \n    }\n\n    function getNeedof(address _addr) public view returns(uint256) {\n        return projectNeedMap[_addr];\n    }\n\n    function getProjects() public view returns (address[]) {\n        return projectsArray;\n    }\n\n    function changeStatusofPorject(address _addr) public onlyOwner {\n        ProjectOrg p = ProjectOrg(_addr);\n        p.changeStatus();\n    }\n\n    //set the related addressest\n    function setDTContract(address _add) public onlyOwner {\n        dTContract = _add;\n    }\n\n    function setmainOrgContract(address _add) public onlyOwner {\n        mainOrgContract = _add;\n    }\n \n}",
  "sourcePath": "C:\\Users\\MajdTL\\Desktop\\BachelorArbeit\\Bachelor_Thesis-master\\ProjectLastVersion 0.1\\contracts\\Approach\\ManagementOrg.sol",
  "compiler": {
    "name": "solc",
    "version": "0.4.24+commit.e67f0147.Emscripten.clang"
  },
  "schemaVersion": "2.0.1",
  "updatedAt": "2018-08-28T12:40:48.442Z"
}