{
  "contractName": "ProjectOrg",
  "abi": [
    {
      "constant": true,
      "inputs": [],
      "name": "active",
      "outputs": [
        {
          "name": "",
          "type": "bool"
        }
      ],
      "payable": false,
      "stateMutability": "view",
      "type": "function"
    },
    {
      "constant": true,
      "inputs": [],
      "name": "name",
      "outputs": [
        {
          "name": "",
          "type": "string"
        }
      ],
      "payable": false,
      "stateMutability": "view",
      "type": "function"
    },
    {
      "constant": true,
      "inputs": [],
      "name": "vaultContract",
      "outputs": [
        {
          "name": "",
          "type": "address"
        }
      ],
      "payable": false,
      "stateMutability": "view",
      "type": "function"
    },
    {
      "constant": true,
      "inputs": [],
      "name": "dTContract",
      "outputs": [
        {
          "name": "",
          "type": "address"
        }
      ],
      "payable": false,
      "stateMutability": "view",
      "type": "function"
    },
    {
      "constant": true,
      "inputs": [],
      "name": "location",
      "outputs": [
        {
          "name": "",
          "type": "string"
        }
      ],
      "payable": false,
      "stateMutability": "view",
      "type": "function"
    },
    {
      "constant": true,
      "inputs": [],
      "name": "webPage",
      "outputs": [
        {
          "name": "",
          "type": "string"
        }
      ],
      "payable": false,
      "stateMutability": "view",
      "type": "function"
    },
    {
      "constant": true,
      "inputs": [],
      "name": "startTime",
      "outputs": [
        {
          "name": "",
          "type": "uint256"
        }
      ],
      "payable": false,
      "stateMutability": "view",
      "type": "function"
    },
    {
      "constant": true,
      "inputs": [],
      "name": "faiContract",
      "outputs": [
        {
          "name": "",
          "type": "address"
        }
      ],
      "payable": false,
      "stateMutability": "view",
      "type": "function"
    },
    {
      "constant": true,
      "inputs": [],
      "name": "managementOrg",
      "outputs": [
        {
          "name": "",
          "type": "address"
        }
      ],
      "payable": false,
      "stateMutability": "view",
      "type": "function"
    },
    {
      "inputs": [
        {
          "name": "_name",
          "type": "string"
        },
        {
          "name": "_webPage",
          "type": "string"
        },
        {
          "name": "_location",
          "type": "string"
        }
      ],
      "payable": false,
      "stateMutability": "nonpayable",
      "type": "constructor"
    },
    {
      "constant": false,
      "inputs": [
        {
          "name": "_to",
          "type": "address"
        },
        {
          "name": "_id",
          "type": "uint256"
        }
      ],
      "name": "transferTokens",
      "outputs": [],
      "payable": false,
      "stateMutability": "nonpayable",
      "type": "function"
    },
    {
      "constant": false,
      "inputs": [
        {
          "name": "_to",
          "type": "address"
        },
        {
          "name": "_amount",
          "type": "uint256"
        }
      ],
      "name": "transferFaiTo",
      "outputs": [],
      "payable": false,
      "stateMutability": "nonpayable",
      "type": "function"
    },
    {
      "constant": false,
      "inputs": [
        {
          "name": "_tokenId",
          "type": "uint256"
        },
        {
          "name": "_valueOne",
          "type": "uint256"
        },
        {
          "name": "_valueTwo",
          "type": "uint256"
        }
      ],
      "name": "splitToken",
      "outputs": [],
      "payable": false,
      "stateMutability": "nonpayable",
      "type": "function"
    },
    {
      "constant": false,
      "inputs": [],
      "name": "changeStatus",
      "outputs": [],
      "payable": false,
      "stateMutability": "nonpayable",
      "type": "function"
    },
    {
      "constant": true,
      "inputs": [],
      "name": "getStatus",
      "outputs": [
        {
          "name": "",
          "type": "bool"
        }
      ],
      "payable": false,
      "stateMutability": "view",
      "type": "function"
    },
    {
      "constant": false,
      "inputs": [
        {
          "name": "_add",
          "type": "address"
        }
      ],
      "name": "setDTContract",
      "outputs": [],
      "payable": false,
      "stateMutability": "nonpayable",
      "type": "function"
    },
    {
      "constant": false,
      "inputs": [
        {
          "name": "_add",
          "type": "address"
        }
      ],
      "name": "setFaiContract",
      "outputs": [],
      "payable": false,
      "stateMutability": "nonpayable",
      "type": "function"
    },
    {
      "constant": false,
      "inputs": [
        {
          "name": "_add",
          "type": "address"
        }
      ],
      "name": "setVaultContract",
      "outputs": [],
      "payable": false,
      "stateMutability": "nonpayable",
      "type": "function"
    },
    {
      "constant": false,
      "inputs": [
        {
          "name": "_add",
          "type": "address"
        }
      ],
      "name": "setManagementOrg",
      "outputs": [],
      "payable": false,
      "stateMutability": "nonpayable",
      "type": "function"
    }
  ],
  "bytecode": "0x60806040527357f62bf8531672814b906bb38971e992ff22ce286000806101000a81548173ffffffffffffffffffffffffffffffffffffffff021916908373ffffffffffffffffffffffffffffffffffffffff160217905550733f826e9555370dd06dd46f67c89bcc97d2b6e1dc600160006101000a81548173ffffffffffffffffffffffffffffffffffffffff021916908373ffffffffffffffffffffffffffffffffffffffff16021790555073bfd0c2b508af2b14d85d2e0c94b5341cdada27ec600260006101000a81548173ffffffffffffffffffffffffffffffffffffffff021916908373ffffffffffffffffffffffffffffffffffffffff1602179055507343ddcbc37fb400976be522e20098a15ac846d044600360006101000a81548173ffffffffffffffffffffffffffffffffffffffff021916908373ffffffffffffffffffffffffffffffffffffffff160217905550734a8db8aef091afc6b71fd617d200e0922368b15c600460006101000a81548173ffffffffffffffffffffffffffffffffffffffff021916908373ffffffffffffffffffffffffffffffffffffffff160217905550348015620001b957600080fd5b5060405162001394380380620013948339810180604052810190808051820192919060200180518201929190602001805182019291905050506001600960006101000a81548160ff02191690831515021790555082600590805190602001906200022592919062000268565b5080600690805190602001906200023e92919062000268565b5081600890805190602001906200025792919062000268565b504260078190555050505062000317565b828054600181600116156101000203166002900490600052602060002090601f016020900481019282601f10620002ab57805160ff1916838001178555620002dc565b82800160010185558215620002dc579182015b82811115620002db578251825591602001919060010190620002be565b5b509050620002eb9190620002ef565b5090565b6200031491905b8082111562000310576000816000905550600101620002f6565b5090565b90565b61106d80620003276000396000f3006080604052600436106100fc576000357c0100000000000000000000000000000000000000000000000000000000900463ffffffff16806302fb0c5e1461010157806306fdde0314610130578063085634ec146101c05780632274346b146101d75780632c758fe71461022e57806337913d71146102855780633f2e1d82146102c65780634e69d56014610309578063516f279e1461033857806371ee3a34146103c857806378e9792514610458578063790fef80146104835780637bde237f146104da57806386db5f8f1461052757806396f4ada61461057e578063bec3fa17146105c1578063bf92ee781461060e578063d671d0a214610651575b600080fd5b34801561010d57600080fd5b50610116610694565b604051808215151515815260200191505060405180910390f35b34801561013c57600080fd5b506101456106a7565b6040518080602001828103825283818151815260200191508051906020019080838360005b8381101561018557808201518184015260208101905061016a565b50505050905090810190601f1680156101b25780820380516001836020036101000a031916815260200191505b509250505060405180910390f35b3480156101cc57600080fd5b506101d5610745565b005b3480156101e357600080fd5b506101ec6107cd565b604051808273ffffffffffffffffffffffffffffffffffffffff1673ffffffffffffffffffffffffffffffffffffffff16815260200191505060405180910390f35b34801561023a57600080fd5b506102436107f3565b604051808273ffffffffffffffffffffffffffffffffffffffff1673ffffffffffffffffffffffffffffffffffffffff16815260200191505060405180910390f35b34801561029157600080fd5b506102c4600480360381019080803590602001909291908035906020019092919080359060200190929190505050610819565b005b3480156102d257600080fd5b50610307600480360381019080803573ffffffffffffffffffffffffffffffffffffffff16906020019092919050505061093c565b005b34801561031557600080fd5b5061031e6109df565b604051808215151515815260200191505060405180910390f35b34801561034457600080fd5b5061034d6109f6565b6040518080602001828103825283818151815260200191508051906020019080838360005b8381101561038d578082015181840152602081019050610372565b50505050905090810190601f1680156103ba5780820380516001836020036101000a031916815260200191505b509250505060405180910390f35b3480156103d457600080fd5b506103dd610a94565b6040518080602001828103825283818151815260200191508051906020019080838360005b8381101561041d578082015181840152602081019050610402565b50505050905090810190601f16801561044a5780820380516001836020036101000a031916815260200191505b509250505060405180910390f35b34801561046457600080fd5b5061046d610b32565b6040518082815260200191505060405180910390f35b34801561048f57600080fd5b50610498610b38565b604051808273ffffffffffffffffffffffffffffffffffffffff1673ffffffffffffffffffffffffffffffffffffffff16815260200191505060405180910390f35b3480156104e657600080fd5b50610525600480360381019080803573ffffffffffffffffffffffffffffffffffffffff16906020019092919080359060200190929190505050610b5e565b005b34801561053357600080fd5b5061053c610cc8565b604051808273ffffffffffffffffffffffffffffffffffffffff1673ffffffffffffffffffffffffffffffffffffffff16815260200191505060405180910390f35b34801561058a57600080fd5b506105bf600480360381019080803573ffffffffffffffffffffffffffffffffffffffff169060200190929190505050610cee565b005b3480156105cd57600080fd5b5061060c600480360381019080803573ffffffffffffffffffffffffffffffffffffffff16906020019092919080359060200190929190505050610d91565b005b34801561061a57600080fd5b5061064f600480360381019080803573ffffffffffffffffffffffffffffffffffffffff169060200190929190505050610efb565b005b34801561065d57600080fd5b50610692600480360381019080803573ffffffffffffffffffffffffffffffffffffffff169060200190929190505050610f9e565b005b600960009054906101000a900460ff1681565b60058054600181600116156101000203166002900480601f01602080910402602001604051908101604052809291908181526020018280546001816001161561010002031660029004801561073d5780601f106107125761010080835404028352916020019161073d565b820191906000526020600020905b81548152906001019060200180831161072057829003601f168201915b505050505081565b600160009054906101000a900473ffffffffffffffffffffffffffffffffffffffff1673ffffffffffffffffffffffffffffffffffffffff163373ffffffffffffffffffffffffffffffffffffffff161415156107a157600080fd5b600960009054906101000a900460ff1615600960006101000a81548160ff021916908315150217905550565b600460009054906101000a900473ffffffffffffffffffffffffffffffffffffffff1681565b600260009054906101000a900473ffffffffffffffffffffffffffffffffffffffff1681565b60008060009054906101000a900473ffffffffffffffffffffffffffffffffffffffff1673ffffffffffffffffffffffffffffffffffffffff163373ffffffffffffffffffffffffffffffffffffffff16141561093157600260009054906101000a900473ffffffffffffffffffffffffffffffffffffffff1690508073ffffffffffffffffffffffffffffffffffffffff16633eee36c68585856040518463ffffffff167c0100000000000000000000000000000000000000000000000000000000028152600401808481526020018381526020018281526020019350505050600060405180830381600087803b15801561091457600080fd5b505af1158015610928573d6000803e3d6000fd5b50505050610936565b600080fd5b50505050565b6000809054906101000a900473ffffffffffffffffffffffffffffffffffffffff1673ffffffffffffffffffffffffffffffffffffffff163373ffffffffffffffffffffffffffffffffffffffff1614156109d75780600260006101000a81548173ffffffffffffffffffffffffffffffffffffffff021916908373ffffffffffffffffffffffffffffffffffffffff1602179055506109dc565b600080fd5b50565b6000600960009054906101000a900460ff16905090565b60068054600181600116156101000203166002900480601f016020809104026020016040519081016040528092919081815260200182805460018160011615610100020316600290048015610a8c5780601f10610a6157610100808354040283529160200191610a8c565b820191906000526020600020905b815481529060010190602001808311610a6f57829003601f168201915b505050505081565b60088054600181600116156101000203166002900480601f016020809104026020016040519081016040528092919081815260200182805460018160011615610100020316600290048015610b2a5780601f10610aff57610100808354040283529160200191610b2a565b820191906000526020600020905b815481529060010190602001808311610b0d57829003601f168201915b505050505081565b60075481565b600360009054906101000a900473ffffffffffffffffffffffffffffffffffffffff1681565b60008060009054906101000a900473ffffffffffffffffffffffffffffffffffffffff1673ffffffffffffffffffffffffffffffffffffffff163373ffffffffffffffffffffffffffffffffffffffff161415610cbe57600360009054906101000a900473ffffffffffffffffffffffffffffffffffffffff1690508073ffffffffffffffffffffffffffffffffffffffff1663a9059cbb84846040518363ffffffff167c0100000000000000000000000000000000000000000000000000000000028152600401808373ffffffffffffffffffffffffffffffffffffffff1673ffffffffffffffffffffffffffffffffffffffff16815260200182815260200192505050602060405180830381600087803b158015610c7d57600080fd5b505af1158015610c91573d6000803e3d6000fd5b505050506040513d6020811015610ca757600080fd5b810190808051906020019092919050505050610cc3565b600080fd5b505050565b600160009054906101000a900473ffffffffffffffffffffffffffffffffffffffff1681565b6000809054906101000a900473ffffffffffffffffffffffffffffffffffffffff1673ffffffffffffffffffffffffffffffffffffffff163373ffffffffffffffffffffffffffffffffffffffff161415610d895780600460006101000a81548173ffffffffffffffffffffffffffffffffffffffff021916908373ffffffffffffffffffffffffffffffffffffffff160217905550610d8e565b600080fd5b50565b60008060009054906101000a900473ffffffffffffffffffffffffffffffffffffffff1673ffffffffffffffffffffffffffffffffffffffff163373ffffffffffffffffffffffffffffffffffffffff161415610ef157600260009054906101000a900473ffffffffffffffffffffffffffffffffffffffff1690508073ffffffffffffffffffffffffffffffffffffffff1663a9059cbb84846040518363ffffffff167c0100000000000000000000000000000000000000000000000000000000028152600401808373ffffffffffffffffffffffffffffffffffffffff1673ffffffffffffffffffffffffffffffffffffffff16815260200182815260200192505050602060405180830381600087803b158015610eb057600080fd5b505af1158015610ec4573d6000803e3d6000fd5b505050506040513d6020811015610eda57600080fd5b810190808051906020019092919050505050610ef6565b600080fd5b505050565b6000809054906101000a900473ffffffffffffffffffffffffffffffffffffffff1673ffffffffffffffffffffffffffffffffffffffff163373ffffffffffffffffffffffffffffffffffffffff161415610f965780600360006101000a81548173ffffffffffffffffffffffffffffffffffffffff021916908373ffffffffffffffffffffffffffffffffffffffff160217905550610f9b565b600080fd5b50565b6000809054906101000a900473ffffffffffffffffffffffffffffffffffffffff1673ffffffffffffffffffffffffffffffffffffffff163373ffffffffffffffffffffffffffffffffffffffff1614156110395780600160006101000a81548173ffffffffffffffffffffffffffffffffffffffff021916908373ffffffffffffffffffffffffffffffffffffffff16021790555061103e565b600080fd5b505600a165627a7a7230582078e5f90afe3f9acb35826df71711d113e6d312e87fb17625b0deb81f586103ed0029",
  "source": "pragma solidity ^0.4.23;\n\nimport \"./DonationTokenOrg.sol\";\nimport \"./FaiToken.sol\";\nimport \"./VaultOrg.sol\";\n\ncontract ProjectOrg {\n\n    // hard coded for every Project\n    address owner = 0x57F62bf8531672814B906Bb38971E992ff22Ce28;\n    \n    // address of the related Contracts \n    address public managementOrg = 0x3f826e9555370dd06dd46f67c89bcc97d2b6e1dc;\n    address public dTContract = 0xbfd0c2b508af2b14d85d2e0c94b5341cdada27ec;\n    address public faiContract = 0x43ddcbc37fb400976be522e20098a15ac846d044;\n    address public vaultContract = 0x4a8db8aef091afc6b71fd617d200e0922368b15c;\n\n    string public name;\n    string public location;\n    uint256 public startTime; \n    string public webPage;  \n    bool public active;\n  \n    modifier onlyOwner(){\n        if(msg.sender == owner){\n            _;\n        }else{\n            revert();\n        }\n    }\n\n    constructor(string _name, string _webPage, string _location) public {\n        active = true;\n        name = _name; \n        location = _location;\n        webPage = _webPage;\n        startTime = block.timestamp;\n    }\n\n    /**\n     transfers a specific Donation-Token  \n     @notice only the owner of the project can transfer token\n     @param _to The address of the recipient\n     @param _id The Id of token to be transferred\n    */\n    function transferTokens(address _to, uint256 _id) public onlyOwner {\n        DonationTokenOrg token = DonationTokenOrg(dTContract);\n        token.transfer(_to, _id);\n    }\n\n    /**\n     transfers Fai Tokens  \n     @notice only the owner can transfer token\n     @param _to The address of the recipient\n     @param _amount The amount to be transferred\n    */\n    function transferFaiTo(address _to, uint256 _amount) public onlyOwner {\n        FaiToken fai = FaiToken(faiContract);\n        fai.transfer(_to, _amount);\n    }\n\n    /**\n     Split donation Token  \n     @notice only the owner can split token\n     @param _valueOne  the new value of the original Token\n     @param _valueTwo  the value of the new Token\n     @param _tokenId the Id of the burned Token\n    */\n    function splitToken(uint256 _tokenId, uint256 _valueOne, uint256 _valueTwo) public onlyOwner {\n        DonationTokenOrg token = DonationTokenOrg(dTContract);\n        token._split(_tokenId, _valueOne, _valueTwo);\n    }\n\n   /**\n     change the status of the project \n     @notice only the ManagementOrg contract invoke this function\n    */\n    function changeStatus() external {\n        require(msg.sender == managementOrg);\n        active = !active;\n    }\n\n    function getStatus() view public returns (bool) {\n        return active;\n    }\n\n    //set addresses of the contracts.  \n    function setDTContract(address _add) public onlyOwner {\n        dTContract = _add;\n    }\n\n    function setFaiContract(address _add) public onlyOwner {\n        faiContract = _add;\n    }\n\n    function setVaultContract(address _add) public onlyOwner {\n        vaultContract = _add;\n    }\n\n    function setManagementOrg(address _add) public onlyOwner {\n        managementOrg = _add;\n    }\n\n}",
  "sourcePath": "C:\\Users\\MajdTL\\Desktop\\BachelorArbeit\\Bachelor_Thesis-master\\ProjectLastVersion 0.1\\contracts\\Approach\\ProjectOrg.sol",
  "compiler": {
    "name": "solc",
    "version": "0.4.24+commit.e67f0147.Emscripten.clang"
  },
  "schemaVersion": "2.0.1",
  "updatedAt": "2018-08-28T12:40:48.322Z"
}