{
  "contractName": "TCSVotingSystem",
  "abi": [
    {
      "constant": true,
      "inputs": [
        {
          "name": "",
          "type": "address"
        }
      ],
      "name": "alreadyVoted",
      "outputs": [
        {
          "name": "",
          "type": "bool"
        }
      ],
      "payable": false,
      "stateMutability": "view",
      "type": "function"
    },
    {
      "constant": true,
      "inputs": [
        {
          "name": "",
          "type": "address"
        }
      ],
      "name": "managerVote",
      "outputs": [
        {
          "name": "",
          "type": "uint8"
        }
      ],
      "payable": false,
      "stateMutability": "view",
      "type": "function"
    },
    {
      "constant": true,
      "inputs": [],
      "name": "reward",
      "outputs": [
        {
          "name": "",
          "type": "uint256"
        }
      ],
      "payable": false,
      "stateMutability": "view",
      "type": "function"
    },
    {
      "constant": true,
      "inputs": [
        {
          "name": "",
          "type": "address"
        }
      ],
      "name": "votingTime",
      "outputs": [
        {
          "name": "",
          "type": "uint256"
        }
      ],
      "payable": false,
      "stateMutability": "view",
      "type": "function"
    },
    {
      "constant": true,
      "inputs": [],
      "name": "voteCounter",
      "outputs": [
        {
          "name": "",
          "type": "uint256"
        }
      ],
      "payable": false,
      "stateMutability": "view",
      "type": "function"
    },
    {
      "constant": true,
      "inputs": [],
      "name": "timeNowV",
      "outputs": [
        {
          "name": "",
          "type": "uint256"
        }
      ],
      "payable": false,
      "stateMutability": "view",
      "type": "function"
    },
    {
      "constant": true,
      "inputs": [
        {
          "name": "",
          "type": "address"
        }
      ],
      "name": "numPosVoteUser",
      "outputs": [
        {
          "name": "",
          "type": "uint256"
        }
      ],
      "payable": false,
      "stateMutability": "view",
      "type": "function"
    },
    {
      "constant": true,
      "inputs": [
        {
          "name": "",
          "type": "uint256"
        }
      ],
      "name": "recordVoter",
      "outputs": [
        {
          "name": "",
          "type": "address"
        }
      ],
      "payable": false,
      "stateMutability": "view",
      "type": "function"
    },
    {
      "constant": true,
      "inputs": [],
      "name": "managerTSC",
      "outputs": [
        {
          "name": "",
          "type": "address"
        }
      ],
      "payable": false,
      "stateMutability": "view",
      "type": "function"
    },
    {
      "constant": true,
      "inputs": [
        {
          "name": "",
          "type": "address"
        }
      ],
      "name": "numOfVoterOrg",
      "outputs": [
        {
          "name": "",
          "type": "uint256"
        }
      ],
      "payable": false,
      "stateMutability": "view",
      "type": "function"
    },
    {
      "constant": true,
      "inputs": [
        {
          "name": "",
          "type": "address"
        }
      ],
      "name": "numOfVoterUser",
      "outputs": [
        {
          "name": "",
          "type": "uint256"
        }
      ],
      "payable": false,
      "stateMutability": "view",
      "type": "function"
    },
    {
      "constant": true,
      "inputs": [],
      "name": "mainContract",
      "outputs": [
        {
          "name": "",
          "type": "address"
        }
      ],
      "payable": false,
      "stateMutability": "view",
      "type": "function"
    },
    {
      "constant": true,
      "inputs": [
        {
          "name": "",
          "type": "address"
        }
      ],
      "name": "voteResult",
      "outputs": [
        {
          "name": "",
          "type": "uint256"
        }
      ],
      "payable": false,
      "stateMutability": "view",
      "type": "function"
    },
    {
      "constant": true,
      "inputs": [
        {
          "name": "",
          "type": "address"
        }
      ],
      "name": "numPosVoteOrg",
      "outputs": [
        {
          "name": "",
          "type": "uint256"
        }
      ],
      "payable": false,
      "stateMutability": "view",
      "type": "function"
    },
    {
      "constant": true,
      "inputs": [
        {
          "name": "",
          "type": "address"
        }
      ],
      "name": "orgReportedMap",
      "outputs": [
        {
          "name": "",
          "type": "bool"
        }
      ],
      "payable": false,
      "stateMutability": "view",
      "type": "function"
    },
    {
      "inputs": [
        {
          "name": "_add",
          "type": "address"
        }
      ],
      "payable": false,
      "stateMutability": "nonpayable",
      "type": "constructor"
    },
    {
      "payable": false,
      "stateMutability": "nonpayable",
      "type": "fallback"
    },
    {
      "constant": true,
      "inputs": [
        {
          "name": "_add",
          "type": "address"
        }
      ],
      "name": "getvotingTime",
      "outputs": [
        {
          "name": "",
          "type": "uint256"
        }
      ],
      "payable": false,
      "stateMutability": "view",
      "type": "function"
    },
    {
      "constant": true,
      "inputs": [
        {
          "name": "_add",
          "type": "address"
        }
      ],
      "name": "isOrgReported",
      "outputs": [
        {
          "name": "",
          "type": "bool"
        }
      ],
      "payable": false,
      "stateMutability": "view",
      "type": "function"
    },
    {
      "constant": true,
      "inputs": [
        {
          "name": "_add",
          "type": "address"
        }
      ],
      "name": "resultOfVoting",
      "outputs": [
        {
          "name": "",
          "type": "uint256"
        }
      ],
      "payable": false,
      "stateMutability": "view",
      "type": "function"
    },
    {
      "constant": false,
      "inputs": [
        {
          "name": "_orgadd",
          "type": "address"
        }
      ],
      "name": "startVotingProcess",
      "outputs": [],
      "payable": true,
      "stateMutability": "payable",
      "type": "function"
    },
    {
      "constant": false,
      "inputs": [
        {
          "name": "_add",
          "type": "address"
        }
      ],
      "name": "calculatePoints",
      "outputs": [
        {
          "name": "",
          "type": "uint256"
        }
      ],
      "payable": false,
      "stateMutability": "nonpayable",
      "type": "function"
    },
    {
      "constant": false,
      "inputs": [
        {
          "name": "_add",
          "type": "address"
        },
        {
          "name": "_vote",
          "type": "bool"
        }
      ],
      "name": "voteUser",
      "outputs": [],
      "payable": false,
      "stateMutability": "nonpayable",
      "type": "function"
    },
    {
      "constant": false,
      "inputs": [
        {
          "name": "_add",
          "type": "address"
        },
        {
          "name": "_vote",
          "type": "bool"
        }
      ],
      "name": "voteOrg",
      "outputs": [],
      "payable": false,
      "stateMutability": "nonpayable",
      "type": "function"
    },
    {
      "constant": false,
      "inputs": [
        {
          "name": "_add",
          "type": "address"
        },
        {
          "name": "vote",
          "type": "uint8"
        }
      ],
      "name": "voteTCS",
      "outputs": [],
      "payable": false,
      "stateMutability": "nonpayable",
      "type": "function"
    },
    {
      "constant": false,
      "inputs": [],
      "name": "getReward",
      "outputs": [],
      "payable": false,
      "stateMutability": "nonpayable",
      "type": "function"
    },
    {
      "constant": true,
      "inputs": [],
      "name": "getRewardValue",
      "outputs": [
        {
          "name": "",
          "type": "uint256"
        }
      ],
      "payable": false,
      "stateMutability": "view",
      "type": "function"
    }
  ],
  "bytecode": "0x608060405273f62fef864d88e3d70f22468eee3b412b67114946600160006101000a81548173ffffffffffffffffffffffffffffffffffffffff021916908373ffffffffffffffffffffffffffffffffffffffff16021790555042600255600160075534801561006e57600080fd5b50604051602080611edf83398101806040528101908080519060200190929190505050806000806101000a81548173ffffffffffffffffffffffffffffffffffffffff021916908373ffffffffffffffffffffffffffffffffffffffff160217905550600160009054906101000a900473ffffffffffffffffffffffffffffffffffffffff166006600080815260200190815260200160002060006101000a81548173ffffffffffffffffffffffffffffffffffffffff021916908373ffffffffffffffffffffffffffffffffffffffff16021790555050611d8a806101556000396000f300608060405260043610610149576000357c0100000000000000000000000000000000000000000000000000000000900463ffffffff16806306d2ad401461015b5780630f2bdef6146101b657806310333a1b146101e1578063228cb7331461023e5780632e0c98e81461026957806339e91305146102c05780633d18b912146102f65780633dab4e7e1461030d578063433c586714610364578063599f36d1146103b45780635e780e25146103df57806362453ee01461040a578063700a7350146104615780637468e6f7146104ce5780637e5c9a291461051d5780637fd2306a146105745780638e05cf31146105cb578063a46b90d714610622578063afbe539114610679578063be87c85c146106d0578063d270e7ab1461072b578063e893a5e714610782578063f7401545146107d9578063fa973a9414610830578063fc9dd3cd1461088b575b34801561015557600080fd5b50600080fd5b34801561016757600080fd5b5061019c600480360381019080803573ffffffffffffffffffffffffffffffffffffffff1690602001909291905050506108da565b604051808215151515815260200191505060405180910390f35b3480156101c257600080fd5b506101cb6108fa565b6040518082815260200191505060405180910390f35b3480156101ed57600080fd5b50610222600480360381019080803573ffffffffffffffffffffffffffffffffffffffff169060200190929190505050610904565b604051808260ff1660ff16815260200191505060405180910390f35b34801561024a57600080fd5b50610253610924565b6040518082815260200191505060405180910390f35b34801561027557600080fd5b506102aa600480360381019080803573ffffffffffffffffffffffffffffffffffffffff16906020019092919050505061092a565b6040518082815260200191505060405180910390f35b6102f4600480360381019080803573ffffffffffffffffffffffffffffffffffffffff169060200190929190505050610942565b005b34801561030257600080fd5b5061030b610a57565b005b34801561031957600080fd5b5061034e600480360381019080803573ffffffffffffffffffffffffffffffffffffffff169060200190929190505050610b74565b6040518082815260200191505060405180910390f35b34801561037057600080fd5b506103b2600480360381019080803573ffffffffffffffffffffffffffffffffffffffff169060200190929190803560ff169060200190929190505050610f60565b005b3480156103c057600080fd5b506103c9611178565b6040518082815260200191505060405180910390f35b3480156103eb57600080fd5b506103f461117e565b6040518082815260200191505060405180910390f35b34801561041657600080fd5b5061044b600480360381019080803573ffffffffffffffffffffffffffffffffffffffff169060200190929190505050611184565b6040518082815260200191505060405180910390f35b34801561046d57600080fd5b5061048c6004803603810190808035906020019092919050505061119c565b604051808273ffffffffffffffffffffffffffffffffffffffff1673ffffffffffffffffffffffffffffffffffffffff16815260200191505060405180910390f35b3480156104da57600080fd5b5061051b600480360381019080803573ffffffffffffffffffffffffffffffffffffffff1690602001909291908035151590602001909291905050506111cf565b005b34801561052957600080fd5b5061055e600480360381019080803573ffffffffffffffffffffffffffffffffffffffff1690602001909291905050506115d9565b6040518082815260200191505060405180910390f35b34801561058057600080fd5b506105b5600480360381019080803573ffffffffffffffffffffffffffffffffffffffff169060200190929190505050611622565b6040518082815260200191505060405180910390f35b3480156105d757600080fd5b506105e061166b565b604051808273ffffffffffffffffffffffffffffffffffffffff1673ffffffffffffffffffffffffffffffffffffffff16815260200191505060405180910390f35b34801561062e57600080fd5b50610663600480360381019080803573ffffffffffffffffffffffffffffffffffffffff169060200190929190505050611691565b6040518082815260200191505060405180910390f35b34801561068557600080fd5b506106ba600480360381019080803573ffffffffffffffffffffffffffffffffffffffff1690602001909291905050506116a9565b6040518082815260200191505060405180910390f35b3480156106dc57600080fd5b50610711600480360381019080803573ffffffffffffffffffffffffffffffffffffffff1690602001909291905050506116c1565b604051808215151515815260200191505060405180910390f35b34801561073757600080fd5b50610740611717565b604051808273ffffffffffffffffffffffffffffffffffffffff1673ffffffffffffffffffffffffffffffffffffffff16815260200191505060405180910390f35b34801561078e57600080fd5b506107c3600480360381019080803573ffffffffffffffffffffffffffffffffffffffff16906020019092919050505061173c565b6040518082815260200191505060405180910390f35b3480156107e557600080fd5b5061081a600480360381019080803573ffffffffffffffffffffffffffffffffffffffff169060200190929190505050611754565b6040518082815260200191505060405180910390f35b34801561083c57600080fd5b50610871600480360381019080803573ffffffffffffffffffffffffffffffffffffffff16906020019092919050505061176c565b604051808215151515815260200191505060405180910390f35b34801561089757600080fd5b506108d8600480360381019080803573ffffffffffffffffffffffffffffffffffffffff16906020019092919080351515906020019092919050505061178c565b005b60056020528060005260406000206000915054906101000a900460ff1681565b6000600854905090565b600a6020528060005260406000206000915054906101000a900460ff1681565b60085481565b60046020528060005260406000206000915090505481565b6709b6e64a8ec600003414151561095857600080fd5b6000809054906101000a900473ffffffffffffffffffffffffffffffffffffffff1673ffffffffffffffffffffffffffffffffffffffff163373ffffffffffffffffffffffffffffffffffffffff161415156109b357600080fd5b6001600360008373ffffffffffffffffffffffffffffffffffffffff1673ffffffffffffffffffffffffffffffffffffffff16815260200190815260200160002060006101000a81548160ff02191690831515021790555060b460025401600460008373ffffffffffffffffffffffffffffffffffffffff1673ffffffffffffffffffffffffffffffffffffffff1681526020019081526020016000208190555050565b600960009054906101000a900460ff161515610a7257600080fd5b60011515600560003373ffffffffffffffffffffffffffffffffffffffff1673ffffffffffffffffffffffffffffffffffffffff16815260200190815260200160002060009054906101000a900460ff161515141515610ad157600080fd5b6000600560003373ffffffffffffffffffffffffffffffffffffffff1673ffffffffffffffffffffffffffffffffffffffff16815260200190815260200160002060006101000a81548160ff0219169083151502179055503373ffffffffffffffffffffffffffffffffffffffff166108fc6008549081150290604051600060405180830381858888f19350505050158015610b71573d6000803e3d6000fd5b50565b600080600080600460008673ffffffffffffffffffffffffffffffffffffffff1673ffffffffffffffffffffffffffffffffffffffff1681526020019081526020016000205442111515610bc757600080fd5b60011515600360008773ffffffffffffffffffffffffffffffffffffffff1673ffffffffffffffffffffffffffffffffffffffff16815260200190815260200160002060009054906101000a900460ff161515141515610c2657600080fd5b6001600a60008773ffffffffffffffffffffffffffffffffffffffff1673ffffffffffffffffffffffffffffffffffffffff16815260200190815260200160002060009054906101000a900460ff1660ff161415610c875760059250610cee565b6002600a60008773ffffffffffffffffffffffffffffffffffffffff1673ffffffffffffffffffffffffffffffffffffffff16815260200190815260200160002060009054906101000a900460ff1660ff161415610ce85760009250610ced565b600292505b5b610cf785611a89565b610d0086611bd2565b84010191506000600360008773ffffffffffffffffffffffffffffffffffffffff1673ffffffffffffffffffffffffffffffffffffffff16815260200190815260200160002060006101000a81548160ff0219169083151502179055506000809054906101000a900473ffffffffffffffffffffffffffffffffffffffff169050600882101515610e4c578073ffffffffffffffffffffffffffffffffffffffff1663096010358660026040518363ffffffff167c0100000000000000000000000000000000000000000000000000000000028152600401808373ffffffffffffffffffffffffffffffffffffffff1673ffffffffffffffffffffffffffffffffffffffff16815260200182815260200192505050600060405180830381600087803b158015610e2f57600080fd5b505af1158015610e43573d6000803e3d6000fd5b50505050610f09565b8073ffffffffffffffffffffffffffffffffffffffff1663096010358660046040518363ffffffff167c0100000000000000000000000000000000000000000000000000000000028152600401808373ffffffffffffffffffffffffffffffffffffffff1673ffffffffffffffffffffffffffffffffffffffff16815260200182815260200192505050600060405180830381600087803b158015610ef057600080fd5b505af1158015610f04573d6000803e3d6000fd5b505050505b81600f60008773ffffffffffffffffffffffffffffffffffffffff1673ffffffffffffffffffffffffffffffffffffffff16815260200190815260200160002081905550610f55611d07565b819350505050919050565b600160009054906101000a900473ffffffffffffffffffffffffffffffffffffffff1673ffffffffffffffffffffffffffffffffffffffff163373ffffffffffffffffffffffffffffffffffffffff16141561116f57600460008373ffffffffffffffffffffffffffffffffffffffff1673ffffffffffffffffffffffffffffffffffffffff16815260200190815260200160002054421115151561100457600080fd5b60011515600360008473ffffffffffffffffffffffffffffffffffffffff1673ffffffffffffffffffffffffffffffffffffffff16815260200190815260200160002060009054906101000a900460ff1615151480156110b4575060001515600560003373ffffffffffffffffffffffffffffffffffffffff1673ffffffffffffffffffffffffffffffffffffffff16815260200190815260200160002060009054906101000a900460ff161515145b1561116a576001600560003373ffffffffffffffffffffffffffffffffffffffff1673ffffffffffffffffffffffffffffffffffffffff16815260200190815260200160002060006101000a81548160ff02191690831515021790555080600a60008473ffffffffffffffffffffffffffffffffffffffff1673ffffffffffffffffffffffffffffffffffffffff16815260200190815260200160002060006101000a81548160ff021916908360ff1602179055505b611174565b600080fd5b5050565b60075481565b60025481565b600e6020528060005260406000206000915090505481565b60066020528060005260406000206000915054906101000a900473ffffffffffffffffffffffffffffffffffffffff1681565b600080600460008573ffffffffffffffffffffffffffffffffffffffff1673ffffffffffffffffffffffffffffffffffffffff16815260200190815260200160002054421115151561122057600080fd5b60001515600560003373ffffffffffffffffffffffffffffffffffffffff1673ffffffffffffffffffffffffffffffffffffffff16815260200190815260200160002060009054906101000a900460ff16151514151561127f57600080fd5b6000809054906101000a900473ffffffffffffffffffffffffffffffffffffffff1691508173ffffffffffffffffffffffffffffffffffffffff1663dc50b41d336040518263ffffffff167c0100000000000000000000000000000000000000000000000000000000028152600401808273ffffffffffffffffffffffffffffffffffffffff1673ffffffffffffffffffffffffffffffffffffffff168152602001915050602060405180830381600087803b15801561133e57600080fd5b505af1158015611352573d6000803e3d6000fd5b505050506040513d602081101561136857600080fd5b810190808051906020019092919050505090506002811480156113db575060011515600360008673ffffffffffffffffffffffffffffffffffffffff1673ffffffffffffffffffffffffffffffffffffffff16815260200190815260200160002060009054906101000a900460ff161515145b156115ce576001600560003373ffffffffffffffffffffffffffffffffffffffff1673ffffffffffffffffffffffffffffffffffffffff16815260200190815260200160002060006101000a81548160ff0219169083151502179055503360066000600754815260200190815260200160002060006101000a81548173ffffffffffffffffffffffffffffffffffffffff021916908373ffffffffffffffffffffffffffffffffffffffff1602179055506007600081548092919060010191905055506001600b60008673ffffffffffffffffffffffffffffffffffffffff1673ffffffffffffffffffffffffffffffffffffffff168152602001908152602001600020600082825401925050819055508215611545576001600d60008673ffffffffffffffffffffffffffffffffffffffff1673ffffffffffffffffffffffffffffffffffffffff168152602001908152602001600020600082825401925050819055506115c9565b600d60008573ffffffffffffffffffffffffffffffffffffffff1673ffffffffffffffffffffffffffffffffffffffff16815260200190815260200160002054600d60008673ffffffffffffffffffffffffffffffffffffffff1673ffffffffffffffffffffffffffffffffffffffff168152602001908152602001600020819055505b6115d3565b600080fd5b50505050565b6000600460008373ffffffffffffffffffffffffffffffffffffffff1673ffffffffffffffffffffffffffffffffffffffff168152602001908152602001600020549050919050565b6000600f60008373ffffffffffffffffffffffffffffffffffffffff1673ffffffffffffffffffffffffffffffffffffffff168152602001908152602001600020549050919050565b600160009054906101000a900473ffffffffffffffffffffffffffffffffffffffff1681565b600b6020528060005260406000206000915090505481565b600c6020528060005260406000206000915090505481565b6000600360008373ffffffffffffffffffffffffffffffffffffffff1673ffffffffffffffffffffffffffffffffffffffff16815260200190815260200160002060009054906101000a900460ff169050919050565b6000809054906101000a900473ffffffffffffffffffffffffffffffffffffffff1681565b600f6020528060005260406000206000915090505481565b600d6020528060005260406000206000915090505481565b60036020528060005260406000206000915054906101000a900460ff1681565b600460008373ffffffffffffffffffffffffffffffffffffffff1673ffffffffffffffffffffffffffffffffffffffff1681526020019081526020016000205442111515156117da57600080fd5b60001515600560003373ffffffffffffffffffffffffffffffffffffffff1673ffffffffffffffffffffffffffffffffffffffff16815260200190815260200160002060009054906101000a900460ff16151514151561183957600080fd5b60011515600360008473ffffffffffffffffffffffffffffffffffffffff1673ffffffffffffffffffffffffffffffffffffffff16815260200190815260200160002060009054906101000a900460ff1615151415611a80576001600560003373ffffffffffffffffffffffffffffffffffffffff1673ffffffffffffffffffffffffffffffffffffffff16815260200190815260200160002060006101000a81548160ff0219169083151502179055503360066000600754815260200190815260200160002060006101000a81548173ffffffffffffffffffffffffffffffffffffffff021916908373ffffffffffffffffffffffffffffffffffffffff1602179055506007600081548092919060010191905055506001600c60008473ffffffffffffffffffffffffffffffffffffffff1673ffffffffffffffffffffffffffffffffffffffff1681526020019081526020016000206000828254019250508190555080156119f7576001600e60008473ffffffffffffffffffffffffffffffffffffffff1673ffffffffffffffffffffffffffffffffffffffff16815260200190815260200160002060008282540192505081905550611a7b565b600e60008373ffffffffffffffffffffffffffffffffffffffff1673ffffffffffffffffffffffffffffffffffffffff16815260200190815260200160002054600e60008473ffffffffffffffffffffffffffffffffffffffff1673ffffffffffffffffffffffffffffffffffffffff168152602001908152602001600020819055505b611a85565b600080fd5b5050565b600080600080600b60008673ffffffffffffffffffffffffffffffffffffffff1673ffffffffffffffffffffffffffffffffffffffff168152602001908152602001600020541415611ade5760029250611bcb565b611b66600d60008673ffffffffffffffffffffffffffffffffffffffff1673ffffffffffffffffffffffffffffffffffffffff16815260200190815260200160002054600b60008773ffffffffffffffffffffffffffffffffffffffff1673ffffffffffffffffffffffffffffffffffffffff16815260200190815260200160002054611d40565b9050605a81101515611b7b5760059150611bc7565b605081101515611b8e5760049050611bc6565b604681101515611ba15760039150611bc5565b603c81101515611bb45760029150611bc4565b603281101515611bc357600191505b5b5b5b5b8192505b5050919050565b600080600080600c60008673ffffffffffffffffffffffffffffffffffffffff1673ffffffffffffffffffffffffffffffffffffffff168152602001908152602001600020541415611c275760029250611d00565b611caf600e60008673ffffffffffffffffffffffffffffffffffffffff1673ffffffffffffffffffffffffffffffffffffffff16815260200190815260200160002054600c60008773ffffffffffffffffffffffffffffffffffffffff1673ffffffffffffffffffffffffffffffffffffffff16815260200190815260200160002054611d40565b9050605a81101515611cc45760049150611cfc565b605081101515611cd75760039150611cfb565b604681101515611cea5760029150611cfa565b603c81101515611cf957600191505b5b5b5b8192505b5050919050565b6007546709b6e64a8ec60000811515611d1c57fe5b046008819055506001600960006101000a81548160ff021916908315150217905550565b6000808260648502811515611d5157fe5b04905080915050929150505600a165627a7a72305820161c2ba7f279fbdfa4f3a38f7277ec66a272eeb06bdb72adf129e856d83eeb900029",
  "source": "pragma solidity ^0.4.23;\n\nimport \"./TransparentCivilSociety.sol\";\n\ncontract TCSVotingSystem {\n \n    //the address of TCS contract\n    address public mainContract ;\n    //the address of Owner\n    address public managerTSC = 0xf62fef864D88e3d70F22468EEe3B412b67114946 ; \n    uint256 public timeNowV = now;\n    mapping (address => bool) public orgReportedMap;\n    mapping (address => uint256) public votingTime;   \n    //to control the voting\n    mapping (address => bool) public alreadyVoted;\n    mapping (uint => address) public recordVoter;\n    \n    uint256 public voteCounter = 1;\n    uint256 public reward ;\n    bool voteEnd;\n    //vote counting \n    mapping(address => uint8) public managerVote; \n    mapping(address => uint) public numOfVoterOrg;\n    mapping(address => uint) public numOfVoterUser;\n    mapping(address => uint) public numPosVoteOrg;\n    mapping(address => uint) public numPosVoteUser;\n \n    mapping (address => uint) public  voteResult;\n    \n    modifier onlyOwner(){\n        if (msg.sender == managerTSC) {\n            _;\n        }else {\n            revert();\n        }\n    }\n    \n    // Constructor\n    constructor(address _add) public {\n        mainContract = _add;\n        recordVoter[0] = managerTSC;\n    }\n\n    //fallback function\n    function () public {\n        revert();\n    }  \n\n    //get information about the voting event of an organisation\n    function getvotingTime (address _add) public view returns (uint256) {\n        return votingTime[_add];\n    }\n\n    function isOrgReported (address _add) public view returns (bool) {\n        return orgReportedMap[_add];\n    }\n\n    function resultOfVoting (address _add) public view returns (uint) {\n        return voteResult[_add];\n    }\n  \n    \n    /**\n    @notice will init the voting vars and set time after checking the conditions\n    @dev    the values are in the main contract\n    @param _orgadd the Address of the organisation \n    */\n    function startVotingProcess (address _orgadd) external payable {\n        require(msg.value == 0.7 ether);\n        require(msg.sender == mainContract);\n        orgReportedMap[_orgadd] = true;\n        votingTime[_orgadd] = timeNowV + 3 minutes;\n    }\n    \n    /**\n    @notice for normal users, calc the user votes and give points based on the percentage\n    @dev    internal function\n    @param _add the Address of the organisation \n    */\n    function calcUserPoints (address _add) internal view returns (uint) {\n        uint userPoints;\n        if (numOfVoterUser[_add] == 0) {\n            return 2;\n        }\n        uint userPerc = divP(numPosVoteUser[_add],numOfVoterUser[_add]);\n        if (userPerc >= 90) {\n            userPoints = 4;\n        } else if (userPerc >= 80) {\n            userPoints = 3;\n        } else if (userPerc >= 70) {\n            userPoints = 2;\n        } else if (userPerc >= 60) {\n            userPoints = 1;\n        }\n        return userPoints;\n    }\n    \n    /**\n    @notice for organisations, calc the votes and give points based on the percentage\n    @dev    internal function\n    @param _add the Address of the organisation \n    */\n    function calcOrgPoints (address _add) internal view returns(uint) {\n        uint orgPoints;\n        if (numOfVoterOrg[_add] == 0) {\n            return 2;\n        }\n        uint orgPerc = divP(numPosVoteOrg[_add],numOfVoterOrg[_add]);\n        if (orgPerc >= 90) {\n            orgPoints = 5;\n        } else if (orgPerc >= 80) {\n            orgPerc = 4;\n        } else if (orgPerc >= 70) {\n            orgPoints = 3;\n        } else if (orgPerc >= 60) {\n            orgPoints = 2;\n        } else if (orgPerc >= 50) {\n            orgPoints = 1;\n        }\n        return orgPoints;\n    }\n    \n    /**\n    @notice after the time is over, this function will calc the points and invoke the methode\n            in the other contract which will change the status depends on the results\n    @param _add the Address of the organisation \n    */\n    function calculatePoints(address _add) public returns (uint) {\n        require(block.timestamp > votingTime[_add]);\n        require(orgReportedMap[_add] == true);\n        uint iTZPoints;\n        if (managerVote[_add] == 1) {  //trusted\n            iTZPoints = 5; \n        }else if (managerVote[_add] == 2) {  //not trusted\n            iTZPoints = 0; \n        }else {\n            iTZPoints = 2;\n        }\n        uint result = iTZPoints + calcUserPoints(_add) + calcOrgPoints (_add);\n        orgReportedMap[_add] = false;   \n        TransparentCivilSociety tcs = TransparentCivilSociety(mainContract);\n        if (result >= 8) {\n            tcs.changeStatusFromVoting(_add, 2);\n        } else {\n            tcs.changeStatusFromVoting(_add, 4);\n        }\n        voteResult[_add] = result;\n        rewardVoters();\n        return result;\n    }\n \n    /*\n        Voting section\n        voting with yes mean the data of the org are complete & mostly correct\n    */\n\n    /**\n    @notice user can vote one time with true or false \n    @param _add the Address of the organisation \n    @param _vote true mean trusted, false mean not trusted\n    */\n    function voteUser(address _add, bool _vote) public {\n        require(now <= votingTime[_add]);\n        require(alreadyVoted[msg.sender] == false);\n        if (orgReportedMap[_add] == true) {\n            alreadyVoted[msg.sender] = true;\n            recordVoter[voteCounter] = msg.sender;\n            voteCounter++;\n            numOfVoterUser[_add] += 1;\n            if (_vote) {\n                numPosVoteUser[_add] += 1;\n            } else {\n                numPosVoteUser[_add] = numPosVoteUser[_add];\n            }\n        } else {\n            revert();\n        }\n    }\n    \n    /**\n    @notice Org can vote one time with true or false \n    @param _add the Address of the organisation \n    @param _vote true mean trusted, false mean not trusted\n    */\n    function voteOrg(address _add,bool _vote) public {\n        require(now <= votingTime[_add]);\n        require(alreadyVoted[msg.sender] == false);\n        TransparentCivilSociety tcs = TransparentCivilSociety(mainContract);\n        uint s = tcs.getOrganizationStatus(msg.sender);\n        if (s == 2 && orgReportedMap[_add] == true) {\n            alreadyVoted[msg.sender] = true;\n            recordVoter[voteCounter] = msg.sender;\n            voteCounter++;\n            numOfVoterOrg[_add] += 1;\n            if (_vote) {\n                numPosVoteOrg[_add] += 1;\n            }else {\n                numPosVoteOrg[_add] = numPosVoteOrg[_add];\n            }\n        } else {\n            revert();\n        }\n    }\n\n    /**\n    @notice the vote of the Owner\n    @param _add the Address of the organisation \n    @param vote with number 1 for trusted and number 2 for untrusted\n    */\n    function voteTCS(address _add, uint8 vote) public onlyOwner {\n        require(now <= votingTime[_add]);\n        if (orgReportedMap[_add] == true && alreadyVoted[msg.sender] == false) {\n            alreadyVoted[msg.sender] = true;\n            managerVote[_add] = vote;\n        }\n    }\n    // END voting section\n    \n    /**\n    @notice get the reward for voting after the end of the votingtime\n    @dev    there is no easy/free way to loop all the voter and send them the reward, that is why they should withdraw it by themself\n            voteEnd will be True only after the vote is finished and the result and reward is calculated \n    */\n    function getReward() public {\n        require(voteEnd);\n        require(alreadyVoted[msg.sender] == true);\n        alreadyVoted[msg.sender] = false;\n        msg.sender.transfer(reward);\n    }\n    \n    // get the reward value\n    function getRewardValue() public view returns (uint256){\n        return reward;\n    }\n\n    function rewardVoters() internal{\n        reward = (0.7 ether) / (voteCounter);\n        voteEnd = true;\n    }\n  \n    //help functions\n    function divP(uint256 a, uint256 b) internal pure returns (uint256) {\n        uint256 c = (a*100) / b;\n        // assert(a == b * c + a % b); // There is no case in which this doesn't hold\n        return c;\n    }\n      \n}",
  "sourcePath": "C:\\Users\\MajdTL\\Desktop\\BachelorArbeit\\Bachelor_Thesis-master\\ProjectLastVersion 0.1\\contracts\\UseCase\\TCSVotingSystem.sol",
  "compiler": {
    "name": "solc",
    "version": "0.4.24+commit.e67f0147.Emscripten.clang"
  },
  "schemaVersion": "2.0.1",
  "updatedAt": "2018-08-15T12:18:46.802Z"
}