{
  "contractName": "TransparentCivilSociety",
  "abi": [
    {
      "constant": true,
      "inputs": [],
      "name": "managerTCS",
      "outputs": [
        {
          "name": "",
          "type": "address"
        }
      ],
      "payable": false,
      "stateMutability": "view",
      "type": "function"
    },
    {
      "constant": true,
      "inputs": [
        {
          "name": "",
          "type": "address"
        }
      ],
      "name": "organisationMap2",
      "outputs": [
        {
          "name": "mission",
          "type": "bytes32"
        },
        {
          "name": "certificate",
          "type": "bytes32"
        },
        {
          "name": "personnelStructure",
          "type": "bytes32"
        },
        {
          "name": "currentResource",
          "type": "bytes32"
        },
        {
          "name": "institutionallist",
          "type": "bytes32"
        },
        {
          "name": "legalentities",
          "type": "bytes32"
        }
      ],
      "payable": false,
      "stateMutability": "view",
      "type": "function"
    },
    {
      "constant": true,
      "inputs": [
        {
          "name": "",
          "type": "address"
        }
      ],
      "name": "votingCAddress",
      "outputs": [
        {
          "name": "",
          "type": "address"
        }
      ],
      "payable": false,
      "stateMutability": "view",
      "type": "function"
    },
    {
      "constant": true,
      "inputs": [
        {
          "name": "",
          "type": "address"
        }
      ],
      "name": "organisationMap1",
      "outputs": [
        {
          "name": "status",
          "type": "uint256"
        },
        {
          "name": "orgBala",
          "type": "uint256"
        },
        {
          "name": "verifiedToken",
          "type": "bool"
        },
        {
          "name": "registeredName",
          "type": "string"
        },
        {
          "name": "ethAddress",
          "type": "address"
        },
        {
          "name": "officeAddress",
          "type": "string"
        },
        {
          "name": "webPage",
          "type": "string"
        },
        {
          "name": "foundingYear",
          "type": "uint256"
        },
        {
          "name": "registrationDate",
          "type": "uint256"
        }
      ],
      "payable": false,
      "stateMutability": "view",
      "type": "function"
    },
    {
      "constant": true,
      "inputs": [
        {
          "name": "",
          "type": "address"
        }
      ],
      "name": "reportedbyUser",
      "outputs": [
        {
          "name": "",
          "type": "address"
        }
      ],
      "payable": false,
      "stateMutability": "view",
      "type": "function"
    },
    {
      "inputs": [],
      "payable": false,
      "stateMutability": "nonpayable",
      "type": "constructor"
    },
    {
      "payable": false,
      "stateMutability": "nonpayable",
      "type": "fallback"
    },
    {
      "anonymous": false,
      "inputs": [
        {
          "indexed": true,
          "name": "orgransationAdd",
          "type": "address"
        },
        {
          "indexed": true,
          "name": "timeRR",
          "type": "uint256"
        }
      ],
      "name": "RegistrationRequests",
      "type": "event"
    },
    {
      "anonymous": false,
      "inputs": [
        {
          "indexed": true,
          "name": "_add",
          "type": "address"
        },
        {
          "indexed": true,
          "name": "timeM",
          "type": "uint256"
        }
      ],
      "name": "ModifiedData",
      "type": "event"
    },
    {
      "anonymous": false,
      "inputs": [
        {
          "indexed": true,
          "name": "_add",
          "type": "address"
        },
        {
          "indexed": false,
          "name": "time",
          "type": "uint256"
        }
      ],
      "name": "ReportedbyStake",
      "type": "event"
    },
    {
      "anonymous": false,
      "inputs": [
        {
          "indexed": true,
          "name": "orgransationAdd",
          "type": "address"
        },
        {
          "indexed": false,
          "name": "timeA",
          "type": "uint256"
        }
      ],
      "name": "RegistrationAccept",
      "type": "event"
    },
    {
      "anonymous": false,
      "inputs": [
        {
          "indexed": true,
          "name": "orgransationAdd",
          "type": "address"
        },
        {
          "indexed": false,
          "name": "timeR",
          "type": "uint256"
        }
      ],
      "name": "RegistrationReject",
      "type": "event"
    },
    {
      "anonymous": false,
      "inputs": [
        {
          "indexed": true,
          "name": "orgransationAdd",
          "type": "address"
        },
        {
          "indexed": true,
          "name": "status",
          "type": "uint256"
        },
        {
          "indexed": true,
          "name": "timeC",
          "type": "uint256"
        }
      ],
      "name": "ChangingStatus",
      "type": "event"
    },
    {
      "constant": false,
      "inputs": [
        {
          "name": "_registeredName",
          "type": "string"
        },
        {
          "name": "_officeAddress",
          "type": "string"
        },
        {
          "name": "_webPage",
          "type": "string"
        },
        {
          "name": "_contactName",
          "type": "string"
        },
        {
          "name": "_contactPhone",
          "type": "string"
        },
        {
          "name": "_foundingYear",
          "type": "uint256"
        }
      ],
      "name": "registration",
      "outputs": [],
      "payable": true,
      "stateMutability": "payable",
      "type": "function"
    },
    {
      "constant": false,
      "inputs": [
        {
          "name": "_mission",
          "type": "bytes32"
        },
        {
          "name": "_certificate",
          "type": "bytes32"
        },
        {
          "name": "_personnelStructure",
          "type": "bytes32"
        },
        {
          "name": "_currentResource",
          "type": "bytes32"
        },
        {
          "name": "_institutionallist",
          "type": "bytes32"
        },
        {
          "name": "_legalentities",
          "type": "bytes32"
        }
      ],
      "name": "setAdditionalInfo",
      "outputs": [],
      "payable": false,
      "stateMutability": "nonpayable",
      "type": "function"
    },
    {
      "constant": false,
      "inputs": [
        {
          "name": "_name",
          "type": "string"
        },
        {
          "name": "_functions",
          "type": "bytes32"
        }
      ],
      "name": "setDecisionmaker",
      "outputs": [],
      "payable": false,
      "stateMutability": "nonpayable",
      "type": "function"
    },
    {
      "constant": false,
      "inputs": [
        {
          "name": "_year",
          "type": "uint256"
        },
        {
          "name": "_annualReport",
          "type": "bytes32"
        }
      ],
      "name": "setAnnualReport",
      "outputs": [],
      "payable": false,
      "stateMutability": "nonpayable",
      "type": "function"
    },
    {
      "constant": false,
      "inputs": [
        {
          "name": "_name",
          "type": "string"
        },
        {
          "name": "_phoneNumber",
          "type": "string"
        }
      ],
      "name": "setContactList",
      "outputs": [],
      "payable": false,
      "stateMutability": "nonpayable",
      "type": "function"
    },
    {
      "constant": false,
      "inputs": [],
      "name": "closeAccount",
      "outputs": [],
      "payable": false,
      "stateMutability": "nonpayable",
      "type": "function"
    },
    {
      "constant": true,
      "inputs": [
        {
          "name": "_add",
          "type": "address"
        },
        {
          "name": "_name",
          "type": "string"
        }
      ],
      "name": "getContactList",
      "outputs": [
        {
          "name": "",
          "type": "string"
        }
      ],
      "payable": false,
      "stateMutability": "view",
      "type": "function"
    },
    {
      "constant": true,
      "inputs": [
        {
          "name": "_add",
          "type": "address"
        }
      ],
      "name": "getBasicOrganizationInfos",
      "outputs": [
        {
          "name": "_status",
          "type": "uint256"
        },
        {
          "name": "_organisationname",
          "type": "string"
        },
        {
          "name": "_officeaddress",
          "type": "string"
        },
        {
          "name": "_ethAdd",
          "type": "address"
        },
        {
          "name": "_webPage",
          "type": "string"
        },
        {
          "name": "_foundingYear",
          "type": "uint256"
        },
        {
          "name": "_b",
          "type": "uint256"
        }
      ],
      "payable": false,
      "stateMutability": "view",
      "type": "function"
    },
    {
      "constant": true,
      "inputs": [
        {
          "name": "_add",
          "type": "address"
        }
      ],
      "name": "getOrganizationStatus",
      "outputs": [
        {
          "name": "",
          "type": "uint256"
        }
      ],
      "payable": false,
      "stateMutability": "view",
      "type": "function"
    },
    {
      "constant": true,
      "inputs": [
        {
          "name": "_add",
          "type": "address"
        },
        {
          "name": "_name",
          "type": "string"
        }
      ],
      "name": "getdecisionmaking",
      "outputs": [
        {
          "name": "",
          "type": "bytes32"
        }
      ],
      "payable": false,
      "stateMutability": "view",
      "type": "function"
    },
    {
      "constant": true,
      "inputs": [
        {
          "name": "_add",
          "type": "address"
        },
        {
          "name": "_year",
          "type": "uint256"
        }
      ],
      "name": "getannualReport",
      "outputs": [
        {
          "name": "",
          "type": "bytes32"
        }
      ],
      "payable": false,
      "stateMutability": "view",
      "type": "function"
    },
    {
      "constant": true,
      "inputs": [
        {
          "name": "_add",
          "type": "address"
        }
      ],
      "name": "getadditionalInfos",
      "outputs": [
        {
          "name": "",
          "type": "bytes32"
        },
        {
          "name": "",
          "type": "bytes32"
        },
        {
          "name": "",
          "type": "bytes32"
        },
        {
          "name": "",
          "type": "bytes32"
        },
        {
          "name": "",
          "type": "bytes32"
        },
        {
          "name": "",
          "type": "bytes32"
        }
      ],
      "payable": false,
      "stateMutability": "view",
      "type": "function"
    },
    {
      "constant": true,
      "inputs": [
        {
          "name": "_orgAdd",
          "type": "address"
        }
      ],
      "name": "getVotingContractOfOrg",
      "outputs": [
        {
          "name": "",
          "type": "address"
        }
      ],
      "payable": false,
      "stateMutability": "view",
      "type": "function"
    },
    {
      "constant": true,
      "inputs": [
        {
          "name": "_orgAdd",
          "type": "address"
        }
      ],
      "name": "getTokenStatus",
      "outputs": [
        {
          "name": "",
          "type": "bool"
        }
      ],
      "payable": false,
      "stateMutability": "view",
      "type": "function"
    },
    {
      "constant": false,
      "inputs": [
        {
          "name": "_reportedAdd",
          "type": "address"
        }
      ],
      "name": "reportWithFund",
      "outputs": [],
      "payable": true,
      "stateMutability": "payable",
      "type": "function"
    },
    {
      "constant": false,
      "inputs": [
        {
          "name": "_acceptedorgaddress",
          "type": "address"
        }
      ],
      "name": "acceptRegRequest",
      "outputs": [],
      "payable": false,
      "stateMutability": "nonpayable",
      "type": "function"
    },
    {
      "constant": false,
      "inputs": [
        {
          "name": "_rejectedorgaddress",
          "type": "address"
        }
      ],
      "name": "rejectRegRequest",
      "outputs": [],
      "payable": false,
      "stateMutability": "nonpayable",
      "type": "function"
    },
    {
      "constant": false,
      "inputs": [
        {
          "name": "_orgAdd",
          "type": "address"
        },
        {
          "name": "_status",
          "type": "bool"
        }
      ],
      "name": "setverfiedToken",
      "outputs": [],
      "payable": false,
      "stateMutability": "nonpayable",
      "type": "function"
    },
    {
      "constant": false,
      "inputs": [
        {
          "name": "_add",
          "type": "address"
        },
        {
          "name": "_s",
          "type": "uint256"
        }
      ],
      "name": "changeStatusFromVoting",
      "outputs": [],
      "payable": false,
      "stateMutability": "nonpayable",
      "type": "function"
    }
  ],
  "bytecode": "0x608060405234801561001057600080fd5b50336000806101000a81548173ffffffffffffffffffffffffffffffffffffffff021916908373ffffffffffffffffffffffffffffffffffffffff160217905550614c33806100606000396000f30060806040526004361061013e576000357c0100000000000000000000000000000000000000000000000000000000900463ffffffff16806306349d8c1461015057806309601035146102ce5780630e240bfe1461031b578063133c79681461035e578063175470b5146103b55780632003d6681461045f5780632640e60b1461050957806327f618e31461058c578063299660d41461077a5780632cf9efd5146107b05780632e5efb8e1461085f5780634b0b9bbf146109615780636dd22fc6146109ca57806373ec92e3146109e1578063a3ff31b514610a64578063a8686d2e14610abf578063b64dce4814610afa578063c74d883d14610b49578063d975495e14610d25578063d980939314610d68578063dc50b41d14610deb578063e88be11814610e42578063ed26725f14610eb9578063fea58ba114610f5e575b34801561014a57600080fd5b50600080fd5b6102cc600480360381019080803590602001908201803590602001908080601f0160208091040260200160405190810160405280939291908181526020018383808284378201915050505050509192919290803590602001908201803590602001908080601f0160208091040260200160405190810160405280939291908181526020018383808284378201915050505050509192919290803590602001908201803590602001908080601f0160208091040260200160405190810160405280939291908181526020018383808284378201915050505050509192919290803590602001908201803590602001908080601f0160208091040260200160405190810160405280939291908181526020018383808284378201915050505050509192919290803590602001908201803590602001908080601f016020809104026020016040519081016040528093929190818152602001838380828437820191505050505050919291929080359060200190929190505050610fd5565b005b3480156102da57600080fd5b50610319600480360381019080803573ffffffffffffffffffffffffffffffffffffffff1690602001909291908035906020019092919050505061123c565b005b34801561032757600080fd5b5061035c600480360381019080803573ffffffffffffffffffffffffffffffffffffffff1690602001909291905050506115cb565b005b34801561036a57600080fd5b506103736116dc565b604051808273ffffffffffffffffffffffffffffffffffffffff1673ffffffffffffffffffffffffffffffffffffffff16815260200191505060405180910390f35b3480156103c157600080fd5b506103f6600480360381019080803573ffffffffffffffffffffffffffffffffffffffff169060200190929190505050611701565b60405180876000191660001916815260200186600019166000191681526020018560001916600019168152602001846000191660001916815260200183600019166000191681526020018260001916600019168152602001965050505050505060405180910390f35b34801561046b57600080fd5b506104a0600480360381019080803573ffffffffffffffffffffffffffffffffffffffff16906020019092919050505061173d565b60405180876000191660001916815260200186600019166000191681526020018560001916600019168152602001846000191660001916815260200183600019166000191681526020018260001916600019168152602001965050505050505060405180910390f35b34801561051557600080fd5b5061054a600480360381019080803573ffffffffffffffffffffffffffffffffffffffff1690602001909291905050506117bd565b604051808273ffffffffffffffffffffffffffffffffffffffff1673ffffffffffffffffffffffffffffffffffffffff16815260200191505060405180910390f35b34801561059857600080fd5b506105cd600480360381019080803573ffffffffffffffffffffffffffffffffffffffff1690602001909291905050506117f0565b604051808a815260200189815260200188151515158152602001806020018773ffffffffffffffffffffffffffffffffffffffff1673ffffffffffffffffffffffffffffffffffffffff168152602001806020018060200186815260200185815260200184810384528a818151815260200191508051906020019080838360005b8381101561066957808201518184015260208101905061064e565b50505050905090810190601f1680156106965780820380516001836020036101000a031916815260200191505b50848103835288818151815260200191508051906020019080838360005b838110156106cf5780820151818401526020810190506106b4565b50505050905090810190601f1680156106fc5780820380516001836020036101000a031916815260200191505b50848103825287818151815260200191508051906020019080838360005b8381101561073557808201518184015260208101905061071a565b50505050905090810190601f1680156107625780820380516001836020036101000a031916815260200191505b509c5050505050505050505050505060405180910390f35b6107ae600480360381019080803573ffffffffffffffffffffffffffffffffffffffff169060200190929190505050611a33565b005b3480156107bc57600080fd5b5061085d600480360381019080803590602001908201803590602001908080601f0160208091040260200160405190810160405280939291908181526020018383808284378201915050505050509192919290803590602001908201803590602001908080601f0160208091040260200160405190810160405280939291908181526020018383808284378201915050505050509192919290505050611e16565b005b34801561086b57600080fd5b506108e6600480360381019080803573ffffffffffffffffffffffffffffffffffffffff169060200190929190803590602001908201803590602001908080601f0160208091040260200160405190810160405280939291908181526020018383808284378201915050505050509192919290505050611f24565b6040518080602001828103825283818151815260200191508051906020019080838360005b8381101561092657808201518184015260208101905061090b565b50505050905090810190601f1680156109535780820380516001836020036101000a031916815260200191505b509250505060405180910390f35b34801561096d57600080fd5b506109ac600480360381019080803573ffffffffffffffffffffffffffffffffffffffff16906020019092919080359060200190929190505050612078565b60405180826000191660001916815260200191505060405180910390f35b3480156109d657600080fd5b506109df6120db565b005b3480156109ed57600080fd5b50610a22600480360381019080803573ffffffffffffffffffffffffffffffffffffffff1690602001909291905050506122c1565b604051808273ffffffffffffffffffffffffffffffffffffffff1673ffffffffffffffffffffffffffffffffffffffff16815260200191505060405180910390f35b348015610a7057600080fd5b50610aa5600480360381019080803573ffffffffffffffffffffffffffffffffffffffff16906020019092919050505061232a565b604051808215151515815260200191505060405180910390f35b348015610acb57600080fd5b50610af8600480360381019080803590602001909291908035600019169060200190929190505050612388565b005b348015610b0657600080fd5b50610b47600480360381019080803573ffffffffffffffffffffffffffffffffffffffff169060200190929190803515159060200190929190505050612432565b005b348015610b5557600080fd5b50610b8a600480360381019080803573ffffffffffffffffffffffffffffffffffffffff1690602001909291905050506124f5565b6040518088815260200180602001806020018773ffffffffffffffffffffffffffffffffffffffff1673ffffffffffffffffffffffffffffffffffffffff1681526020018060200186815260200185815260200184810384528a818151815260200191508051906020019080838360005b83811015610c16578082015181840152602081019050610bfb565b50505050905090810190601f168015610c435780820380516001836020036101000a031916815260200191505b50848103835289818151815260200191508051906020019080838360005b83811015610c7c578082015181840152602081019050610c61565b50505050905090810190601f168015610ca95780820380516001836020036101000a031916815260200191505b50848103825287818151815260200191508051906020019080838360005b83811015610ce2578082015181840152602081019050610cc7565b50505050905090810190601f168015610d0f5780820380516001836020036101000a031916815260200191505b509a505050505050505050505060405180910390f35b348015610d3157600080fd5b50610d66600480360381019080803573ffffffffffffffffffffffffffffffffffffffff16906020019092919050505061277e565b005b348015610d7457600080fd5b50610da9600480360381019080803573ffffffffffffffffffffffffffffffffffffffff1690602001909291905050506128e8565b604051808273ffffffffffffffffffffffffffffffffffffffff1673ffffffffffffffffffffffffffffffffffffffff16815260200191505060405180910390f35b348015610df757600080fd5b50610e2c600480360381019080803573ffffffffffffffffffffffffffffffffffffffff16906020019092919050505061291b565b6040518082815260200191505060405180910390f35b348015610e4e57600080fd5b50610eb760048036038101908080356000191690602001909291908035600019169060200190929190803560001916906020019092919080356000191690602001909291908035600019169060200190929190803560001916906020019092919050505061296c565b005b348015610ec557600080fd5b50610f40600480360381019080803573ffffffffffffffffffffffffffffffffffffffff169060200190929190803590602001908201803590602001908080601f0160208091040260200160405190810160405280939291908181526020018383808284378201915050505050509192919290505050612ab6565b60405180826000191660001916815260200191505060405180910390f35b348015610f6a57600080fd5b50610fd3600480360381019080803590602001908201803590602001908080601f01602080910402602001604051908101604052809392919081815260200183838082843782019150505050505091929192908035600019169060200190929190505050612b71565b005b6000600260003373ffffffffffffffffffffffffffffffffffffffff1673ffffffffffffffffffffffffffffffffffffffff16815260200190815260200160002090506718fae27693b400003414151561102e57600080fd5b600381600001541415151561104257600080fd5b6000809054906101000a900473ffffffffffffffffffffffffffffffffffffffff1673ffffffffffffffffffffffffffffffffffffffff166108fc67058d15e1762800009081150290604051600060405180830381858888f193505050501580156110b1573d6000803e3d6000fd5b5067136dcc951d8c0000816001018190555042816009018190555060018160000181905550868160030190805190602001906110ee929190612c73565b50338160040160006101000a81548173ffffffffffffffffffffffffffffffffffffffff021916908373ffffffffffffffffffffffffffffffffffffffff1602179055508581600501908051906020019061114a929190612c73565b5084816006019080519060200190611163929190612c73565b508281600701856040518082805190602001908083835b60208310151561119f578051825260208201915060208101905060208303925061117a565b6001836020036101000a038019825116818451168082178552505050505050905001915050908152602001604051809103902090805190602001906111e5929190612c73565b50818160080181905550423373ffffffffffffffffffffffffffffffffffffffff167fdb00db150fa964483aef6aa610280a8af3f201511194b7b3d0c184733ee22ca460405160405180910390a350505050505050565b600080600160008573ffffffffffffffffffffffffffffffffffffffff1673ffffffffffffffffffffffffffffffffffffffff16815260200190815260200160002060009054906101000a900473ffffffffffffffffffffffffffffffffffffffff1673ffffffffffffffffffffffffffffffffffffffff163373ffffffffffffffffffffffffffffffffffffffff161415156112d857600080fd5b600260008573ffffffffffffffffffffffffffffffffffffffff1673ffffffffffffffffffffffffffffffffffffffff16815260200190815260200160002091506003826000015414151561132c57600080fd5b6000600160008673ffffffffffffffffffffffffffffffffffffffff1673ffffffffffffffffffffffffffffffffffffffff16815260200190815260200160002060006101000a81548173ffffffffffffffffffffffffffffffffffffffff021916908373ffffffffffffffffffffffffffffffffffffffff16021790555082826000018190555060048260000154141561150057600460008573ffffffffffffffffffffffffffffffffffffffff1673ffffffffffffffffffffffffffffffffffffffff16815260200190815260200160002060009054906101000a900473ffffffffffffffffffffffffffffffffffffffff1690506000600460008673ffffffffffffffffffffffffffffffffffffffff1673ffffffffffffffffffffffffffffffffffffffff16815260200190815260200160002060006101000a81548173ffffffffffffffffffffffffffffffffffffffff021916908373ffffffffffffffffffffffffffffffffffffffff160217905550600082600101819055508073ffffffffffffffffffffffffffffffffffffffff166108fc67136dcc951d8c00009081150290604051600060405180830381858888f193505050501580156114fa573d6000803e3d6000fd5b50611580565b6000600460008673ffffffffffffffffffffffffffffffffffffffff1673ffffffffffffffffffffffffffffffffffffffff16815260200190815260200160002060006101000a81548173ffffffffffffffffffffffffffffffffffffffff021916908373ffffffffffffffffffffffffffffffffffffffff1602179055505b42838573ffffffffffffffffffffffffffffffffffffffff167fdbbab7d9aaa325e9fb9d41ab37acc8f5555e36f236c968561fd456019006c70260405160405180910390a450505050565b60008060009054906101000a900473ffffffffffffffffffffffffffffffffffffffff1673ffffffffffffffffffffffffffffffffffffffff163373ffffffffffffffffffffffffffffffffffffffff1614156116d357600260008373ffffffffffffffffffffffffffffffffffffffff1673ffffffffffffffffffffffffffffffffffffffff16815260200190815260200160002090506001816000015414151561167657600080fd5b600281600001819055508173ffffffffffffffffffffffffffffffffffffffff167fbbb8d21ee6dbc66f24687ff0b30755d59788b0ad7c222009104c98d48194667a426040518082815260200191505060405180910390a26116d8565b600080fd5b5050565b6000809054906101000a900473ffffffffffffffffffffffffffffffffffffffff1681565b60036020528060005260406000206000915090508060000154908060010154908060040154908060050154908060060154908060070154905086565b6000806000806000806000600360008973ffffffffffffffffffffffffffffffffffffffff1673ffffffffffffffffffffffffffffffffffffffff16815260200190815260200160002090508060000154816001015482600401548360050154846006015485600701549650965096509650965096505091939550919395565b60016020528060005260406000206000915054906101000a900473ffffffffffffffffffffffffffffffffffffffff1681565b60026020528060005260406000206000915090508060000154908060010154908060020160009054906101000a900460ff1690806003018054600181600116156101000203166002900480601f0160208091040260200160405190810160405280929190818152602001828054600181600116156101000203166002900480156118bb5780601f10611890576101008083540402835291602001916118bb565b820191906000526020600020905b81548152906001019060200180831161189e57829003601f168201915b5050505050908060040160009054906101000a900473ffffffffffffffffffffffffffffffffffffffff1690806005018054600181600116156101000203166002900480601f01602080910402602001604051908101604052809291908181526020018280546001816001161561010002031660029004801561197f5780601f106119545761010080835404028352916020019161197f565b820191906000526020600020905b81548152906001019060200180831161196257829003601f168201915b505050505090806006018054600181600116156101000203166002900480601f016020809104026020016040519081016040528092919081815260200182805460018160011615610100020316600290048015611a1d5780601f106119f257610100808354040283529160200191611a1d565b820191906000526020600020905b815481529060010190602001808311611a0057829003601f168201915b5050505050908060080154908060090154905089565b6000806709b6e64a8ec6000034141515611a4c57600080fd5b6000600160008573ffffffffffffffffffffffffffffffffffffffff1673ffffffffffffffffffffffffffffffffffffffff16815260200190815260200160002060009054906101000a900473ffffffffffffffffffffffffffffffffffffffff1673ffffffffffffffffffffffffffffffffffffffff16141515611ad057600080fd5b600260008473ffffffffffffffffffffffffffffffffffffffff1673ffffffffffffffffffffffffffffffffffffffff168152602001908152602001600020915060028260000154141515611b2457600080fd5b30611b2d612cf3565b808273ffffffffffffffffffffffffffffffffffffffff1673ffffffffffffffffffffffffffffffffffffffff168152602001915050604051809103906000f080158015611b7f573d6000803e3d6000fd5b50905080600160008573ffffffffffffffffffffffffffffffffffffffff1673ffffffffffffffffffffffffffffffffffffffff16815260200190815260200160002060006101000a81548173ffffffffffffffffffffffffffffffffffffffff021916908373ffffffffffffffffffffffffffffffffffffffff1602179055506000600460008573ffffffffffffffffffffffffffffffffffffffff1673ffffffffffffffffffffffffffffffffffffffff16815260200190815260200160002060009054906101000a900473ffffffffffffffffffffffffffffffffffffffff1673ffffffffffffffffffffffffffffffffffffffff161415611dc3576003826000018190555033600460008573ffffffffffffffffffffffffffffffffffffffff1673ffffffffffffffffffffffffffffffffffffffff16815260200190815260200160002060006101000a81548173ffffffffffffffffffffffffffffffffffffffff021916908373ffffffffffffffffffffffffffffffffffffffff1602179055508073ffffffffffffffffffffffffffffffffffffffff166339e913056709b6e64a8ec60000856040518363ffffffff167c0100000000000000000000000000000000000000000000000000000000028152600401808273ffffffffffffffffffffffffffffffffffffffff1673ffffffffffffffffffffffffffffffffffffffff1681526020019150506000604051808303818588803b158015611da957600080fd5b505af1158015611dbd573d6000803e3d6000fd5b50505050505b8273ffffffffffffffffffffffffffffffffffffffff167fa9cd44c948a76ce70bfce6256858578e111e8f9c1e7eaeded249eaabca30a0b4426040518082815260200191505060405180910390a2505050565b6000600260003373ffffffffffffffffffffffffffffffffffffffff1673ffffffffffffffffffffffffffffffffffffffff16815260200190815260200160002090508181600701846040518082805190602001908083835b602083101515611e945780518252602082019150602081019050602083039250611e6f565b6001836020036101000a03801982511681845116808217855250505050505090500191505090815260200160405180910390209080519060200190611eda929190612c73565b50423373ffffffffffffffffffffffffffffffffffffffff167fefcb14639a706380df0250e87a8ea47d27b790965624366c254db1bd776b29b560405160405180910390a3505050565b60606000600260008573ffffffffffffffffffffffffffffffffffffffff1673ffffffffffffffffffffffffffffffffffffffff168152602001908152602001600020905080600701836040518082805190602001908083835b602083101515611fa35780518252602082019150602081019050602083039250611f7e565b6001836020036101000a03801982511681845116808217855250505050505090500191505090815260200160405180910390208054600181600116156101000203166002900480601f01602080910402602001604051908101604052809291908181526020018280546001816001161561010002031660029004801561206a5780601f1061203f5761010080835404028352916020019161206a565b820191906000526020600020905b81548152906001019060200180831161204d57829003601f168201915b505050505091505092915050565b600080600360008573ffffffffffffffffffffffffffffffffffffffff1673ffffffffffffffffffffffffffffffffffffffff16815260200190815260200160002090508060030160008481526020019081526020016000205491505092915050565b600080600260003373ffffffffffffffffffffffffffffffffffffffff1673ffffffffffffffffffffffffffffffffffffffff16815260200190815260200160002091506002826000015414151561213257600080fd5b60008260020160006101000a81548160ff021916908315150217905550600082600001819055506020604051908101604052806000815250826006019080519060200190612181929190612c73565b506040805190810160405280600681526020017f636c6f73656400000000000000000000000000000000000000000000000000008152508260030190805190602001906121cf929190612c73565b5081600101549050600082600101819055508160040160009054906101000a900473ffffffffffffffffffffffffffffffffffffffff1673ffffffffffffffffffffffffffffffffffffffff166108fc829081150290604051600060405180830381858888f1935050505015801561224b573d6000803e3d6000fd5b5060008260040160006101000a81548173ffffffffffffffffffffffffffffffffffffffff021916908373ffffffffffffffffffffffffffffffffffffffff16021790555060206040519081016040528060008152508260050190805190602001906122b8929190612c73565b50600090505050565b6000600160008373ffffffffffffffffffffffffffffffffffffffff1673ffffffffffffffffffffffffffffffffffffffff16815260200190815260200160002060009054906101000a900473ffffffffffffffffffffffffffffffffffffffff169050919050565b600080600260008473ffffffffffffffffffffffffffffffffffffffff1673ffffffffffffffffffffffffffffffffffffffff16815260200190815260200160002090508060020160009054906101000a900460ff16915050919050565b6000600360003373ffffffffffffffffffffffffffffffffffffffff1673ffffffffffffffffffffffffffffffffffffffff1681526020019081526020016000209050818160030160008581526020019081526020016000208160001916905550423373ffffffffffffffffffffffffffffffffffffffff167fefcb14639a706380df0250e87a8ea47d27b790965624366c254db1bd776b29b560405160405180910390a3505050565b60008060009054906101000a900473ffffffffffffffffffffffffffffffffffffffff1673ffffffffffffffffffffffffffffffffffffffff163373ffffffffffffffffffffffffffffffffffffffff1614156124eb57600260008473ffffffffffffffffffffffffffffffffffffffff1673ffffffffffffffffffffffffffffffffffffffff1681526020019081526020016000209050818160020160006101000a81548160ff0219169083151502179055506124f0565b600080fd5b505050565b6000606080600060606000806000600260008a73ffffffffffffffffffffffffffffffffffffffff1673ffffffffffffffffffffffffffffffffffffffff168152602001908152602001600020905080600001549750806003018054600181600116156101000203166002900480601f0160208091040260200160405190810160405280929190818152602001828054600181600116156101000203166002900480156125e35780601f106125b8576101008083540402835291602001916125e3565b820191906000526020600020905b8154815290600101906020018083116125c657829003601f168201915b50505050509650806005018054600181600116156101000203166002900480601f0160208091040260200160405190810160405280929190818152602001828054600181600116156101000203166002900480156126825780601f1061265757610100808354040283529160200191612682565b820191906000526020600020905b81548152906001019060200180831161266557829003601f168201915b505050505095508060040160009054906101000a900473ffffffffffffffffffffffffffffffffffffffff169450806006018054600181600116156101000203166002900480601f0160208091040260200160405190810160405280929190818152602001828054600181600116156101000203166002900480156127485780601f1061271d57610100808354040283529160200191612748565b820191906000526020600020905b81548152906001019060200180831161272b57829003601f168201915b50505050509350806008015492508060010154915087878787878787975097509750975097509750975050919395979092949650565b60008060009054906101000a900473ffffffffffffffffffffffffffffffffffffffff1673ffffffffffffffffffffffffffffffffffffffff163373ffffffffffffffffffffffffffffffffffffffff1614156128df57600260008373ffffffffffffffffffffffffffffffffffffffff1673ffffffffffffffffffffffffffffffffffffffff16815260200190815260200160002090506001816000015414151561282957600080fd5b60068160000181905550600081600101819055508173ffffffffffffffffffffffffffffffffffffffff166108fc67136dcc951d8c00009081150290604051600060405180830381858888f1935050505015801561288b573d6000803e3d6000fd5b508173ffffffffffffffffffffffffffffffffffffffff167fac6b651a56d5cd5d15513b70fdf8aaf608e4967290d06847665f24a491ad5f4f426040518082815260200191505060405180910390a26128e4565b600080fd5b5050565b60046020528060005260406000206000915054906101000a900473ffffffffffffffffffffffffffffffffffffffff1681565b600080600260008473ffffffffffffffffffffffffffffffffffffffff1673ffffffffffffffffffffffffffffffffffffffff16815260200190815260200160002090508060000154915050919050565b6000600360003373ffffffffffffffffffffffffffffffffffffffff1673ffffffffffffffffffffffffffffffffffffffff1681526020019081526020016000209050600060010287600019161415156129ce57868160000181600019169055505b600060010286600019161415156129ed57858160010181600019169055505b60006001028560001916141515612a0c57848160040181600019169055505b60006001028460001916141515612a2b57838160050181600019169055505b60006001028360001916141515612a4a57828160060181600019169055505b60006001028260001916141515612a6957818160070181600019169055505b423373ffffffffffffffffffffffffffffffffffffffff167fefcb14639a706380df0250e87a8ea47d27b790965624366c254db1bd776b29b560405160405180910390a350505050505050565b600080600360008573ffffffffffffffffffffffffffffffffffffffff1673ffffffffffffffffffffffffffffffffffffffff168152602001908152602001600020905080600201836040518082805190602001908083835b602083101515612b345780518252602082019150602081019050602083039250612b0f565b6001836020036101000a03801982511681845116808217855250505050505090500191505090815260200160405180910390205491505092915050565b6000600360003373ffffffffffffffffffffffffffffffffffffffff1673ffffffffffffffffffffffffffffffffffffffff16815260200190815260200160002090508181600201846040518082805190602001908083835b602083101515612bef5780518252602082019150602081019050602083039250612bca565b6001836020036101000a03801982511681845116808217855250505050505090500191505090815260200160405180910390208160001916905550423373ffffffffffffffffffffffffffffffffffffffff167fefcb14639a706380df0250e87a8ea47d27b790965624366c254db1bd776b29b560405160405180910390a3505050565b828054600181600116156101000203166002900490600052602060002090601f016020900481019282601f10612cb457805160ff1916838001178555612ce2565b82800160010185558215612ce2579182015b82811115612ce1578251825591602001919060010190612cc6565b5b509050612cef9190612d03565b5090565b604051611edf80612d2983390190565b612d2591905b80821115612d21576000816000905550600101612d09565b5090565b905600608060405273f62fef864d88e3d70f22468eee3b412b67114946600160006101000a81548173ffffffffffffffffffffffffffffffffffffffff021916908373ffffffffffffffffffffffffffffffffffffffff16021790555042600255600160075534801561006e57600080fd5b50604051602080611edf83398101806040528101908080519060200190929190505050806000806101000a81548173ffffffffffffffffffffffffffffffffffffffff021916908373ffffffffffffffffffffffffffffffffffffffff160217905550600160009054906101000a900473ffffffffffffffffffffffffffffffffffffffff166006600080815260200190815260200160002060006101000a81548173ffffffffffffffffffffffffffffffffffffffff021916908373ffffffffffffffffffffffffffffffffffffffff16021790555050611d8a806101556000396000f300608060405260043610610149576000357c0100000000000000000000000000000000000000000000000000000000900463ffffffff16806306d2ad401461015b5780630f2bdef6146101b657806310333a1b146101e1578063228cb7331461023e5780632e0c98e81461026957806339e91305146102c05780633d18b912146102f65780633dab4e7e1461030d578063433c586714610364578063599f36d1146103b45780635e780e25146103df57806362453ee01461040a578063700a7350146104615780637468e6f7146104ce5780637e5c9a291461051d5780637fd2306a146105745780638e05cf31146105cb578063a46b90d714610622578063afbe539114610679578063be87c85c146106d0578063d270e7ab1461072b578063e893a5e714610782578063f7401545146107d9578063fa973a9414610830578063fc9dd3cd1461088b575b34801561015557600080fd5b50600080fd5b34801561016757600080fd5b5061019c600480360381019080803573ffffffffffffffffffffffffffffffffffffffff1690602001909291905050506108da565b604051808215151515815260200191505060405180910390f35b3480156101c257600080fd5b506101cb6108fa565b6040518082815260200191505060405180910390f35b3480156101ed57600080fd5b50610222600480360381019080803573ffffffffffffffffffffffffffffffffffffffff169060200190929190505050610904565b604051808260ff1660ff16815260200191505060405180910390f35b34801561024a57600080fd5b50610253610924565b6040518082815260200191505060405180910390f35b34801561027557600080fd5b506102aa600480360381019080803573ffffffffffffffffffffffffffffffffffffffff16906020019092919050505061092a565b6040518082815260200191505060405180910390f35b6102f4600480360381019080803573ffffffffffffffffffffffffffffffffffffffff169060200190929190505050610942565b005b34801561030257600080fd5b5061030b610a57565b005b34801561031957600080fd5b5061034e600480360381019080803573ffffffffffffffffffffffffffffffffffffffff169060200190929190505050610b74565b6040518082815260200191505060405180910390f35b34801561037057600080fd5b506103b2600480360381019080803573ffffffffffffffffffffffffffffffffffffffff169060200190929190803560ff169060200190929190505050610f60565b005b3480156103c057600080fd5b506103c9611178565b6040518082815260200191505060405180910390f35b3480156103eb57600080fd5b506103f461117e565b6040518082815260200191505060405180910390f35b34801561041657600080fd5b5061044b600480360381019080803573ffffffffffffffffffffffffffffffffffffffff169060200190929190505050611184565b6040518082815260200191505060405180910390f35b34801561046d57600080fd5b5061048c6004803603810190808035906020019092919050505061119c565b604051808273ffffffffffffffffffffffffffffffffffffffff1673ffffffffffffffffffffffffffffffffffffffff16815260200191505060405180910390f35b3480156104da57600080fd5b5061051b600480360381019080803573ffffffffffffffffffffffffffffffffffffffff1690602001909291908035151590602001909291905050506111cf565b005b34801561052957600080fd5b5061055e600480360381019080803573ffffffffffffffffffffffffffffffffffffffff1690602001909291905050506115d9565b6040518082815260200191505060405180910390f35b34801561058057600080fd5b506105b5600480360381019080803573ffffffffffffffffffffffffffffffffffffffff169060200190929190505050611622565b6040518082815260200191505060405180910390f35b3480156105d757600080fd5b506105e061166b565b604051808273ffffffffffffffffffffffffffffffffffffffff1673ffffffffffffffffffffffffffffffffffffffff16815260200191505060405180910390f35b34801561062e57600080fd5b50610663600480360381019080803573ffffffffffffffffffffffffffffffffffffffff169060200190929190505050611691565b6040518082815260200191505060405180910390f35b34801561068557600080fd5b506106ba600480360381019080803573ffffffffffffffffffffffffffffffffffffffff1690602001909291905050506116a9565b6040518082815260200191505060405180910390f35b3480156106dc57600080fd5b50610711600480360381019080803573ffffffffffffffffffffffffffffffffffffffff1690602001909291905050506116c1565b604051808215151515815260200191505060405180910390f35b34801561073757600080fd5b50610740611717565b604051808273ffffffffffffffffffffffffffffffffffffffff1673ffffffffffffffffffffffffffffffffffffffff16815260200191505060405180910390f35b34801561078e57600080fd5b506107c3600480360381019080803573ffffffffffffffffffffffffffffffffffffffff16906020019092919050505061173c565b6040518082815260200191505060405180910390f35b3480156107e557600080fd5b5061081a600480360381019080803573ffffffffffffffffffffffffffffffffffffffff169060200190929190505050611754565b6040518082815260200191505060405180910390f35b34801561083c57600080fd5b50610871600480360381019080803573ffffffffffffffffffffffffffffffffffffffff16906020019092919050505061176c565b604051808215151515815260200191505060405180910390f35b34801561089757600080fd5b506108d8600480360381019080803573ffffffffffffffffffffffffffffffffffffffff16906020019092919080351515906020019092919050505061178c565b005b60056020528060005260406000206000915054906101000a900460ff1681565b6000600854905090565b600a6020528060005260406000206000915054906101000a900460ff1681565b60085481565b60046020528060005260406000206000915090505481565b6709b6e64a8ec600003414151561095857600080fd5b6000809054906101000a900473ffffffffffffffffffffffffffffffffffffffff1673ffffffffffffffffffffffffffffffffffffffff163373ffffffffffffffffffffffffffffffffffffffff161415156109b357600080fd5b6001600360008373ffffffffffffffffffffffffffffffffffffffff1673ffffffffffffffffffffffffffffffffffffffff16815260200190815260200160002060006101000a81548160ff02191690831515021790555060b460025401600460008373ffffffffffffffffffffffffffffffffffffffff1673ffffffffffffffffffffffffffffffffffffffff1681526020019081526020016000208190555050565b600960009054906101000a900460ff161515610a7257600080fd5b60011515600560003373ffffffffffffffffffffffffffffffffffffffff1673ffffffffffffffffffffffffffffffffffffffff16815260200190815260200160002060009054906101000a900460ff161515141515610ad157600080fd5b6000600560003373ffffffffffffffffffffffffffffffffffffffff1673ffffffffffffffffffffffffffffffffffffffff16815260200190815260200160002060006101000a81548160ff0219169083151502179055503373ffffffffffffffffffffffffffffffffffffffff166108fc6008549081150290604051600060405180830381858888f19350505050158015610b71573d6000803e3d6000fd5b50565b600080600080600460008673ffffffffffffffffffffffffffffffffffffffff1673ffffffffffffffffffffffffffffffffffffffff1681526020019081526020016000205442111515610bc757600080fd5b60011515600360008773ffffffffffffffffffffffffffffffffffffffff1673ffffffffffffffffffffffffffffffffffffffff16815260200190815260200160002060009054906101000a900460ff161515141515610c2657600080fd5b6001600a60008773ffffffffffffffffffffffffffffffffffffffff1673ffffffffffffffffffffffffffffffffffffffff16815260200190815260200160002060009054906101000a900460ff1660ff161415610c875760059250610cee565b6002600a60008773ffffffffffffffffffffffffffffffffffffffff1673ffffffffffffffffffffffffffffffffffffffff16815260200190815260200160002060009054906101000a900460ff1660ff161415610ce85760009250610ced565b600292505b5b610cf785611a89565b610d0086611bd2565b84010191506000600360008773ffffffffffffffffffffffffffffffffffffffff1673ffffffffffffffffffffffffffffffffffffffff16815260200190815260200160002060006101000a81548160ff0219169083151502179055506000809054906101000a900473ffffffffffffffffffffffffffffffffffffffff169050600882101515610e4c578073ffffffffffffffffffffffffffffffffffffffff1663096010358660026040518363ffffffff167c0100000000000000000000000000000000000000000000000000000000028152600401808373ffffffffffffffffffffffffffffffffffffffff1673ffffffffffffffffffffffffffffffffffffffff16815260200182815260200192505050600060405180830381600087803b158015610e2f57600080fd5b505af1158015610e43573d6000803e3d6000fd5b50505050610f09565b8073ffffffffffffffffffffffffffffffffffffffff1663096010358660046040518363ffffffff167c0100000000000000000000000000000000000000000000000000000000028152600401808373ffffffffffffffffffffffffffffffffffffffff1673ffffffffffffffffffffffffffffffffffffffff16815260200182815260200192505050600060405180830381600087803b158015610ef057600080fd5b505af1158015610f04573d6000803e3d6000fd5b505050505b81600f60008773ffffffffffffffffffffffffffffffffffffffff1673ffffffffffffffffffffffffffffffffffffffff16815260200190815260200160002081905550610f55611d07565b819350505050919050565b600160009054906101000a900473ffffffffffffffffffffffffffffffffffffffff1673ffffffffffffffffffffffffffffffffffffffff163373ffffffffffffffffffffffffffffffffffffffff16141561116f57600460008373ffffffffffffffffffffffffffffffffffffffff1673ffffffffffffffffffffffffffffffffffffffff16815260200190815260200160002054421115151561100457600080fd5b60011515600360008473ffffffffffffffffffffffffffffffffffffffff1673ffffffffffffffffffffffffffffffffffffffff16815260200190815260200160002060009054906101000a900460ff1615151480156110b4575060001515600560003373ffffffffffffffffffffffffffffffffffffffff1673ffffffffffffffffffffffffffffffffffffffff16815260200190815260200160002060009054906101000a900460ff161515145b1561116a576001600560003373ffffffffffffffffffffffffffffffffffffffff1673ffffffffffffffffffffffffffffffffffffffff16815260200190815260200160002060006101000a81548160ff02191690831515021790555080600a60008473ffffffffffffffffffffffffffffffffffffffff1673ffffffffffffffffffffffffffffffffffffffff16815260200190815260200160002060006101000a81548160ff021916908360ff1602179055505b611174565b600080fd5b5050565b60075481565b60025481565b600e6020528060005260406000206000915090505481565b60066020528060005260406000206000915054906101000a900473ffffffffffffffffffffffffffffffffffffffff1681565b600080600460008573ffffffffffffffffffffffffffffffffffffffff1673ffffffffffffffffffffffffffffffffffffffff16815260200190815260200160002054421115151561122057600080fd5b60001515600560003373ffffffffffffffffffffffffffffffffffffffff1673ffffffffffffffffffffffffffffffffffffffff16815260200190815260200160002060009054906101000a900460ff16151514151561127f57600080fd5b6000809054906101000a900473ffffffffffffffffffffffffffffffffffffffff1691508173ffffffffffffffffffffffffffffffffffffffff1663dc50b41d336040518263ffffffff167c0100000000000000000000000000000000000000000000000000000000028152600401808273ffffffffffffffffffffffffffffffffffffffff1673ffffffffffffffffffffffffffffffffffffffff168152602001915050602060405180830381600087803b15801561133e57600080fd5b505af1158015611352573d6000803e3d6000fd5b505050506040513d602081101561136857600080fd5b810190808051906020019092919050505090506002811480156113db575060011515600360008673ffffffffffffffffffffffffffffffffffffffff1673ffffffffffffffffffffffffffffffffffffffff16815260200190815260200160002060009054906101000a900460ff161515145b156115ce576001600560003373ffffffffffffffffffffffffffffffffffffffff1673ffffffffffffffffffffffffffffffffffffffff16815260200190815260200160002060006101000a81548160ff0219169083151502179055503360066000600754815260200190815260200160002060006101000a81548173ffffffffffffffffffffffffffffffffffffffff021916908373ffffffffffffffffffffffffffffffffffffffff1602179055506007600081548092919060010191905055506001600b60008673ffffffffffffffffffffffffffffffffffffffff1673ffffffffffffffffffffffffffffffffffffffff168152602001908152602001600020600082825401925050819055508215611545576001600d60008673ffffffffffffffffffffffffffffffffffffffff1673ffffffffffffffffffffffffffffffffffffffff168152602001908152602001600020600082825401925050819055506115c9565b600d60008573ffffffffffffffffffffffffffffffffffffffff1673ffffffffffffffffffffffffffffffffffffffff16815260200190815260200160002054600d60008673ffffffffffffffffffffffffffffffffffffffff1673ffffffffffffffffffffffffffffffffffffffff168152602001908152602001600020819055505b6115d3565b600080fd5b50505050565b6000600460008373ffffffffffffffffffffffffffffffffffffffff1673ffffffffffffffffffffffffffffffffffffffff168152602001908152602001600020549050919050565b6000600f60008373ffffffffffffffffffffffffffffffffffffffff1673ffffffffffffffffffffffffffffffffffffffff168152602001908152602001600020549050919050565b600160009054906101000a900473ffffffffffffffffffffffffffffffffffffffff1681565b600b6020528060005260406000206000915090505481565b600c6020528060005260406000206000915090505481565b6000600360008373ffffffffffffffffffffffffffffffffffffffff1673ffffffffffffffffffffffffffffffffffffffff16815260200190815260200160002060009054906101000a900460ff169050919050565b6000809054906101000a900473ffffffffffffffffffffffffffffffffffffffff1681565b600f6020528060005260406000206000915090505481565b600d6020528060005260406000206000915090505481565b60036020528060005260406000206000915054906101000a900460ff1681565b600460008373ffffffffffffffffffffffffffffffffffffffff1673ffffffffffffffffffffffffffffffffffffffff1681526020019081526020016000205442111515156117da57600080fd5b60001515600560003373ffffffffffffffffffffffffffffffffffffffff1673ffffffffffffffffffffffffffffffffffffffff16815260200190815260200160002060009054906101000a900460ff16151514151561183957600080fd5b60011515600360008473ffffffffffffffffffffffffffffffffffffffff1673ffffffffffffffffffffffffffffffffffffffff16815260200190815260200160002060009054906101000a900460ff1615151415611a80576001600560003373ffffffffffffffffffffffffffffffffffffffff1673ffffffffffffffffffffffffffffffffffffffff16815260200190815260200160002060006101000a81548160ff0219169083151502179055503360066000600754815260200190815260200160002060006101000a81548173ffffffffffffffffffffffffffffffffffffffff021916908373ffffffffffffffffffffffffffffffffffffffff1602179055506007600081548092919060010191905055506001600c60008473ffffffffffffffffffffffffffffffffffffffff1673ffffffffffffffffffffffffffffffffffffffff1681526020019081526020016000206000828254019250508190555080156119f7576001600e60008473ffffffffffffffffffffffffffffffffffffffff1673ffffffffffffffffffffffffffffffffffffffff16815260200190815260200160002060008282540192505081905550611a7b565b600e60008373ffffffffffffffffffffffffffffffffffffffff1673ffffffffffffffffffffffffffffffffffffffff16815260200190815260200160002054600e60008473ffffffffffffffffffffffffffffffffffffffff1673ffffffffffffffffffffffffffffffffffffffff168152602001908152602001600020819055505b611a85565b600080fd5b5050565b600080600080600b60008673ffffffffffffffffffffffffffffffffffffffff1673ffffffffffffffffffffffffffffffffffffffff168152602001908152602001600020541415611ade5760029250611bcb565b611b66600d60008673ffffffffffffffffffffffffffffffffffffffff1673ffffffffffffffffffffffffffffffffffffffff16815260200190815260200160002054600b60008773ffffffffffffffffffffffffffffffffffffffff1673ffffffffffffffffffffffffffffffffffffffff16815260200190815260200160002054611d40565b9050605a81101515611b7b5760059150611bc7565b605081101515611b8e5760049050611bc6565b604681101515611ba15760039150611bc5565b603c81101515611bb45760029150611bc4565b603281101515611bc357600191505b5b5b5b5b8192505b5050919050565b600080600080600c60008673ffffffffffffffffffffffffffffffffffffffff1673ffffffffffffffffffffffffffffffffffffffff168152602001908152602001600020541415611c275760029250611d00565b611caf600e60008673ffffffffffffffffffffffffffffffffffffffff1673ffffffffffffffffffffffffffffffffffffffff16815260200190815260200160002054600c60008773ffffffffffffffffffffffffffffffffffffffff1673ffffffffffffffffffffffffffffffffffffffff16815260200190815260200160002054611d40565b9050605a81101515611cc45760049150611cfc565b605081101515611cd75760039150611cfb565b604681101515611cea5760029150611cfa565b603c81101515611cf957600191505b5b5b5b8192505b5050919050565b6007546709b6e64a8ec60000811515611d1c57fe5b046008819055506001600960006101000a81548160ff021916908315150217905550565b6000808260648502811515611d5157fe5b04905080915050929150505600a165627a7a72305820161c2ba7f279fbdfa4f3a38f7277ec66a272eeb06bdb72adf129e856d83eeb900029a165627a7a72305820873b905413e43ebe804f62f23a16400846206ef1ec4c55459dcc75bd058793a30029",
  "source": "pragma solidity ^0.4.23;\n\nimport \"./TCSVotingSystem.sol\";\n\ncontract TransparentCivilSociety {\n\n    // management owner\n    address public managerTCS ;\n\n    //mapping a reported Org with the related generated votingcontract\n    mapping (address => address) public votingCAddress;\n\n    struct Organization1 {\n        //1.Pending , 2.verified, 3.underInvestigation, 4.untrusted, 6.failed\n        uint status;\n        uint256 orgBala;\n        //P1.\n        bool verifiedToken;\n        string registeredName;\n        address ethAddress; // which is used by AddressBook contract as the main Address\n        string officeAddress;\n        string webPage;     //where the information are provided\n        mapping (string => string) contactlist;     //map name -> phoneNumber or email\n        uint foundingYear;\n        uint256 registrationDate;\n    }\n    \n    struct Organization2 {\n        //P2. Complete Charter and information about the organisations mission\n        bytes32 mission;\n        //P3. Tax exempt status\n        bytes32 certificate;\n        //P4. Name und Function of main decision-making bodies\n        mapping(string => bytes32) decisionmaking; // mapping  name -> hash of the functionality of that person or his infos\n        //P5. Annual Report\n        mapping (uint => bytes32) annualReport; // mapping year => hash of the doc\n        //P6. Organisation personnelStructure\n        bytes32 personnelStructure;  \n        //P7. Funding + P8. Allocation of Resources, \n        bytes32 currentResource;  \n        //P9.  Institutional Relationships\n        bytes32 institutionallist;\n        //P10. Name of legal entities, contributing with more than 10 per cent to the organisations budget\n        bytes32 legalentities; \n    }\n    // mapping an organisation with its address\n    mapping (address => Organization1) public organisationMap1;\n    mapping (address => Organization2) public organisationMap2;\n    //mapping Address of the reported organisation -> Address of the user who reported it\n    mapping (address => address) public reportedbyUser; \n\n    event RegistrationRequests(address indexed orgransationAdd, uint indexed timeRR);\n    event ModifiedData(address indexed _add, uint256 indexed timeM);\n    event ReportedbyStake(address indexed _add, uint256 time);\n    event RegistrationAccept(address indexed  orgransationAdd, uint256 timeA);\n    event RegistrationReject(address indexed  orgransationAdd, uint256 timeR);\n    event ChangingStatus(address indexed  orgransationAdd, uint indexed status, uint indexed timeC );\n\n    modifier onlyOwner(){\n        if (msg.sender == managerTCS) {\n            _;\n        }else {\n            revert();\n        }\n    }\n    \n    // Constructor\n    constructor() public {\n        managerTCS = msg.sender;\n    }\n    \n    //fallback function\n    function () public {\n        revert();\n    }  \n\n    /**\n    Register an Org in the contract\n    @notice payable function\n    @dev    event RegistrationRequests\n    @param _registeredName the registered name of the organisation\n    @param _officeAddress the offical Address of the organisation\n    @param _webPage the webPage where the Points are showen\n    @param _contactName a person name\n    @param _contactPhone email or Phone\n    @param _foundingYear the founding year\n    */\n    function registration(\n        string _registeredName,\n        string _officeAddress,\n        string _webPage,\n        string _contactName,\n        string _contactPhone,\n        uint _foundingYear\n    )\n        payable public \n    {\n        Organization1 storage org = organisationMap1[msg.sender];\n        require(msg.value == 1.8 ether);\n        require(org.status != 3);\n        managerTCS.transfer(0.4 ether);\n        org.orgBala = 1.4 ether;\n        org.registrationDate = block.timestamp;\n        org.status = 1;\n        org.registeredName = _registeredName;\n        org.ethAddress = msg.sender;\n        org.officeAddress = _officeAddress;\n        org.webPage = _webPage;\n        org.contactlist[_contactName] = _contactPhone;\n        org.foundingYear = _foundingYear;\n        emit RegistrationRequests(msg.sender, block.timestamp);\n    }\n    \n    /**\n    @notice not payable function, input should start with \"0x\", they can change one or more information without changing the others\n    @dev    event ModifiedData\n    @param _mission hash of Complete Charter and information about the organisations mission\n    @param _certificate hash of Tax exempt status\n    @param _personnelStructure hash of the Organisation personnelStructure\n    @param _currentResource hash of Funding + Allocation of Resources\n    @param _institutionallist hash of Institutional Relationships\n    @param _legalentities hash of the legal entities, contributing with more than 10 per cent to the organisations budget\n    */\n    function setAdditionalInfo(\n        bytes32 _mission,\n        bytes32 _certificate,\n        bytes32 _personnelStructure,\n        bytes32 _currentResource,\n        bytes32 _institutionallist,\n        bytes32 _legalentities\n    ) \n        public \n    { \n        Organization2 storage org = organisationMap2[msg.sender];\n        if (_mission != 0) {\n            org.mission = _mission;\n        }\n        if (_certificate != 0) {\n            org.certificate = _certificate; \n        }\n        if (_personnelStructure != 0) {\n            org.personnelStructure = _personnelStructure;\n        }\n        if (_currentResource != 0) {\n            org.currentResource = _currentResource;\n        }\n        if (_institutionallist != 0) {\n            org.institutionallist = _institutionallist;\n        }\n        if (_legalentities != 0) {\n            org.legalentities = _legalentities;\n        }\n        emit ModifiedData(msg.sender, block.timestamp);\n    }\n    \n    /**\n    add the name and info of a decisionMaker\n    @notice not payable function, input (_functions) should start with \"0x\"\n    @dev    event ModifiedData\n    @param _name name of the decisionmaker \n    @param _functions hash of the role and function of this person\n    */\n    function setDecisionmaker( string _name, bytes32 _functions) public {\n        Organization2 storage org = organisationMap2[msg.sender];\n        org.decisionmaking[_name] = _functions;\n        emit ModifiedData(msg.sender, block.timestamp);\n    }\n\n    /**\n    add AnnualReport of a year\n    @notice not payable function, input (_annualReport) should start with \"0x\" \n    @dev    event ModifiedData\n    @param _year the year of the AnnualReport\n    @param _annualReport hash of the AnnualReport in that year\n    */\n    function setAnnualReport( uint _year, bytes32 _annualReport) public {\n        Organization2 storage org = organisationMap2[msg.sender];\n        org.annualReport[_year] = _annualReport;\n        emit ModifiedData(msg.sender, block.timestamp);\n    }\n\n    /**\n    add contactList\n    @notice not payable function\n    @dev    event ModifiedData\n    @param _name name of the contact person in the organisation\n    @param _phoneNumber number or email\n    */\n    function setContactList(string _name, string _phoneNumber) public {\n        Organization1 storage org = organisationMap1[msg.sender];\n        org.contactlist[_name] = _phoneNumber;\n        emit ModifiedData(msg.sender, block.timestamp);\n    }\n    \n    /**\n    close the Account\n    @notice send the rest of the balance back\n    @dev    the organization should be in status 2\n    */\n    function closeAccount() public {\n        Organization1 storage org = organisationMap1[msg.sender];\n        require(org.status == 2);\n        org.verifiedToken = false;\n        org.status = 0;\n        org.webPage = \"\";\n        org.registeredName = \"closed\";\n        uint256 fund = org.orgBala;\n        org.orgBala = 0 ether;\n        (org.ethAddress).transfer(fund);\n        org.ethAddress = 0x0;\n        org.officeAddress = \"\";\n        fund = 0 ether;\n    }\n    \n\n    /* SECTION  GET */\n\n    /**\n    return the number or email of a person\n    @notice view function \n    @param _add the Address of the organisation \n    @param _name name of the person in that organisation\n    */\n    function getContactList(address _add, string _name) view public returns (string) {\n        Organization1 storage org = organisationMap1[_add];\n        return org.contactlist[_name];\n    }\n    \n    /**\n    return Basic Information\n    @notice view function \n    @param _add the Address of the organisation\n    */\n    function getBasicOrganizationInfos(address _add) view public \n        returns(\n            uint _status, \n            string _organisationname, \n            string _officeaddress, \n            address _ethAdd, \n            string _webPage, \n            uint _foundingYear, \n            uint256 _b) \n        {\n        Organization1 storage org = organisationMap1[_add];\n        _status = org.status;\n        _organisationname = org.registeredName;\n        _officeaddress = org.officeAddress;\n        _ethAdd = org.ethAddress;\n        _webPage = org.webPage;\n        _foundingYear = org.foundingYear;\n        _b = org.orgBala;\n        return ( _status, _organisationname, _officeaddress, _ethAdd, _webPage, _foundingYear, _b);\n    }\n\n    /**\n    return the status of the organisation\n    @notice view function\n    @param _add the Address of the organisation\n    */\n    function getOrganizationStatus(address _add) public view returns (uint) {\n        Organization1 storage org = organisationMap1[_add];\n        return org.status ;\n    }\n\n    /**\n    return the hash of the functionality of aspecfice person\n    @notice view function\n    @param _add the Address of the organisation\n    @param _name the name of the decisionmaker\n    */\n    function getdecisionmaking(address _add, string _name) public view returns (bytes32) { \n        Organization2 storage org = organisationMap2[_add];\n        return org.decisionmaking[_name];\n    }\n\n    /**\n    return the hash of AnnualReport in a specfice year \n    @notice view function\n    @param _add the Address of the organisation\n    @param _year the year of the AnnualReport\n    */\n    function getannualReport(address _add, uint _year) public view returns (bytes32) {\n        Organization2 storage org = organisationMap2[_add];\n        return org.annualReport[_year];\n    }\n\n    /**\n    return hashs of the Additional Information  \n    @notice view function\n    @param _add the Address of the organisation\n    */\n    function getadditionalInfos(address _add) public view returns (bytes32, bytes32, bytes32, bytes32, bytes32, bytes32) {\n        Organization2 storage org = organisationMap2[_add];\n        return (org.mission, org.certificate, org.personnelStructure, org.currentResource, org.institutionallist, org.legalentities);\n    }\n\n    /**\n    get the voting address for the Org, which is under inv.      \n    @notice view Function, will be used to use the related Voting contract\n    @param _orgAdd the Address of the organisation\n    */\n    function getVotingContractOfOrg(address _orgAdd) view public returns(address){\n        return votingCAddress[_orgAdd];\n    }\n\n\n    /**\n    get if the smart contracts of the Tokens are verfied\n    @param _orgAdd the Address of the organisation\n    @return if the token contracts are verfied\n    */\n    function getTokenStatus(address _orgAdd) view public returns(bool){\n        Organization1 storage org = organisationMap1[_orgAdd];\n        return org.verifiedToken;\n    }\n\n   // END SECTION GETs\n    \n\n    /* SECTION Report */\n    \n    /**\n    forces an Investigation and start a voting process\n    @notice pay 0.7 as fund and if the report was right, the user git a reward + his funds back \n    @dev    payable, event ReportedbyStake\n    @param _reportedAdd the Address of the organisation\n    */\n    function reportWithFund(address _reportedAdd) public payable {\n        require (msg.value == 0.7 ether);\n        require (votingCAddress[_reportedAdd] == 0x00);\n        Organization1  storage org = organisationMap1[_reportedAdd];\n        require(org.status == 2);\n        TCSVotingSystem tscV = new  TCSVotingSystem(this);\n        votingCAddress[_reportedAdd] = tscV;\n        if (reportedbyUser[_reportedAdd] == 0x00) {\n            org.status = 3;\n            reportedbyUser[_reportedAdd] = msg.sender;\n            tscV.startVotingProcess.value(0.7 ether)(_reportedAdd);\n        }\n        emit ReportedbyStake(_reportedAdd, now);\n    }\n    // //  END SECTION Report\n      \n\n\n    /* SECTION Management methods */\n    \n    /**\n    Accept the request of an Organisation\n    @notice only the owner can invoke it\n    @dev    event RegistrationAccept\n    @param _acceptedorgaddress the Address of the organisation\n    */\n    function acceptRegRequest(address _acceptedorgaddress) public onlyOwner {\n        Organization1 storage org = organisationMap1[_acceptedorgaddress];\n        require(org.status == 1);\n        org.status = 2;\n        emit RegistrationAccept(_acceptedorgaddress, now);\n    }\n   \n    /**\n    reject the request of an Organisation, will give 1.4 back of the 1.8\n    @notice will give 0.14 back of 0.18, only the owner can invoke it\n    @dev    event RegistrationReject\n    @param _rejectedorgaddress the Address of the organisation\n    */\n    function rejectRegRequest(address _rejectedorgaddress) public onlyOwner {\n        Organization1 storage org = organisationMap1[_rejectedorgaddress];\n        require(org.status == 1);\n        org.status = 6;\n        org.orgBala = 0 ether;\n        _rejectedorgaddress.transfer(1.4 ether);\n        emit RegistrationReject(_rejectedorgaddress, now);\n    }\n\n    /**\n    set the status of the token smart contracts\n    @param _orgAdd the Address of the organisation\n    @param _status the status of the contracts\n    */\n    function setverfiedToken(address _orgAdd, bool _status) public onlyOwner {\n        Organization1 storage org = organisationMap1[_orgAdd];\n        org.verifiedToken = _status;\n    }\n    \n    /**\n    will change the status of an Org depends on the voting result\n    @notice only the votingcontract can invoke it\n    @dev    event ChangingStatus\n    @param _add the Address of the organisation\n    @param _s the new status of the organisation\n    */\n    function changeStatusFromVoting(address _add, uint _s) public {\n        require(msg.sender == votingCAddress[_add]);\n        Organization1  storage org = organisationMap1[_add];\n        require(org.status == 3);\n        votingCAddress[_add] = 0x0;\n        org.status = _s;\n        if (org.status == 4) {\n            address rewardAdd = reportedbyUser[_add];\n            reportedbyUser[_add] = 0x0;\n            org.orgBala = 0;\n            rewardAdd.transfer(1.4 ether);\n        }else {\n            reportedbyUser[_add] = 0x0;\n        }\n        emit ChangingStatus(_add, _s, now);\n    }\n    // // // END SECTION Management methods\n    \n}",
  "sourcePath": "C:\\Users\\MajdTL\\Desktop\\BachelorArbeit\\Bachelor_Thesis-master\\ProjectLastVersion 0.1\\contracts\\UseCase\\TransparentCivilSociety.sol",
  "compiler": {
    "name": "solc",
    "version": "0.4.24+commit.e67f0147.Emscripten.clang"
  },
  "schemaVersion": "2.0.1",
  "updatedAt": "2018-08-28T12:40:46.035Z"
}