{
  "contractName": "VaultOrg",
  "abi": [
    {
      "constant": true,
      "inputs": [],
      "name": "dTContract",
      "outputs": [
        {
          "name": "",
          "type": "address"
        }
      ],
      "payable": false,
      "stateMutability": "view",
      "type": "function"
    },
    {
      "constant": true,
      "inputs": [],
      "name": "faiContract",
      "outputs": [
        {
          "name": "",
          "type": "address"
        }
      ],
      "payable": false,
      "stateMutability": "view",
      "type": "function"
    },
    {
      "constant": true,
      "inputs": [],
      "name": "owner",
      "outputs": [
        {
          "name": "",
          "type": "address"
        }
      ],
      "payable": false,
      "stateMutability": "view",
      "type": "function"
    },
    {
      "constant": true,
      "inputs": [],
      "name": "addrBookContract",
      "outputs": [
        {
          "name": "",
          "type": "address"
        }
      ],
      "payable": false,
      "stateMutability": "view",
      "type": "function"
    },
    {
      "inputs": [],
      "payable": false,
      "stateMutability": "nonpayable",
      "type": "constructor"
    },
    {
      "anonymous": false,
      "inputs": [
        {
          "indexed": true,
          "name": "_from",
          "type": "address"
        },
        {
          "indexed": true,
          "name": "_tokenId",
          "type": "uint256"
        },
        {
          "indexed": true,
          "name": "_orgAdd",
          "type": "address"
        }
      ],
      "name": "UnlockedFai",
      "type": "event"
    },
    {
      "constant": true,
      "inputs": [
        {
          "name": "_orgAdd",
          "type": "address"
        },
        {
          "name": "_category",
          "type": "uint256"
        },
        {
          "name": "_idxOf",
          "type": "uint256"
        }
      ],
      "name": "checkAddress",
      "outputs": [
        {
          "name": "",
          "type": "bool"
        }
      ],
      "payable": false,
      "stateMutability": "view",
      "type": "function"
    },
    {
      "constant": false,
      "inputs": [
        {
          "name": "_tokenId",
          "type": "uint256"
        },
        {
          "name": "_orgAdd",
          "type": "address"
        },
        {
          "name": "_category",
          "type": "uint256"
        },
        {
          "name": "_idxOf",
          "type": "uint256"
        }
      ],
      "name": "unlockFai",
      "outputs": [],
      "payable": false,
      "stateMutability": "nonpayable",
      "type": "function"
    },
    {
      "constant": false,
      "inputs": [
        {
          "name": "_add",
          "type": "address"
        }
      ],
      "name": "setDTContract",
      "outputs": [],
      "payable": false,
      "stateMutability": "nonpayable",
      "type": "function"
    },
    {
      "constant": false,
      "inputs": [
        {
          "name": "_add",
          "type": "address"
        }
      ],
      "name": "setFaiContract",
      "outputs": [],
      "payable": false,
      "stateMutability": "nonpayable",
      "type": "function"
    },
    {
      "constant": false,
      "inputs": [
        {
          "name": "_add",
          "type": "address"
        }
      ],
      "name": "setaddrBookContract",
      "outputs": [],
      "payable": false,
      "stateMutability": "nonpayable",
      "type": "function"
    }
  ],
  "bytecode": "0x608060405273f62fef864d88e3d70f22468eee3b412b671149466000806101000a81548173ffffffffffffffffffffffffffffffffffffffff021916908373ffffffffffffffffffffffffffffffffffffffff16021790555073bfd0c2b508af2b14d85d2e0c94b5341cdada27ec600160006101000a81548173ffffffffffffffffffffffffffffffffffffffff021916908373ffffffffffffffffffffffffffffffffffffffff1602179055507343ddcbc37fb400976be522e20098a15ac846d044600260006101000a81548173ffffffffffffffffffffffffffffffffffffffff021916908373ffffffffffffffffffffffffffffffffffffffff16021790555073d61293b0e98fc8439976d89333261739e7d02d81600360006101000a81548173ffffffffffffffffffffffffffffffffffffffff021916908373ffffffffffffffffffffffffffffffffffffffff16021790555034801561016357600080fd5b50610bc1806101736000396000f300608060405260043610610099576000357c0100000000000000000000000000000000000000000000000000000000900463ffffffff1680632c758fe71461009e5780633f2e1d82146100f5578063790fef80146101385780638da5cb5b1461018f578063b84d02d1146101e6578063bf92ee7814610255578063cdf65bb914610298578063cf06c08b146102f9578063e64485451461033c575b600080fd5b3480156100aa57600080fd5b506100b3610393565b604051808273ffffffffffffffffffffffffffffffffffffffff1673ffffffffffffffffffffffffffffffffffffffff16815260200191505060405180910390f35b34801561010157600080fd5b50610136600480360381019080803573ffffffffffffffffffffffffffffffffffffffff1690602001909291905050506103b9565b005b34801561014457600080fd5b5061014d61045c565b604051808273ffffffffffffffffffffffffffffffffffffffff1673ffffffffffffffffffffffffffffffffffffffff16815260200191505060405180910390f35b34801561019b57600080fd5b506101a4610482565b604051808273ffffffffffffffffffffffffffffffffffffffff1673ffffffffffffffffffffffffffffffffffffffff16815260200191505060405180910390f35b3480156101f257600080fd5b5061023b600480360381019080803573ffffffffffffffffffffffffffffffffffffffff16906020019092919080359060200190929190803590602001909291905050506104a7565b604051808215151515815260200191505060405180910390f35b34801561026157600080fd5b50610296600480360381019080803573ffffffffffffffffffffffffffffffffffffffff1690602001909291905050506105f3565b005b3480156102a457600080fd5b506102f760048036038101908080359060200190929190803573ffffffffffffffffffffffffffffffffffffffff1690602001909291908035906020019092919080359060200190929190505050610696565b005b34801561030557600080fd5b5061033a600480360381019080803573ffffffffffffffffffffffffffffffffffffffff169060200190929190505050610acc565b005b34801561034857600080fd5b50610351610b6f565b604051808273ffffffffffffffffffffffffffffffffffffffff1673ffffffffffffffffffffffffffffffffffffffff16815260200191505060405180910390f35b600160009054906101000a900473ffffffffffffffffffffffffffffffffffffffff1681565b6000809054906101000a900473ffffffffffffffffffffffffffffffffffffffff1673ffffffffffffffffffffffffffffffffffffffff163373ffffffffffffffffffffffffffffffffffffffff1614156104545780600160006101000a81548173ffffffffffffffffffffffffffffffffffffffff021916908373ffffffffffffffffffffffffffffffffffffffff160217905550610459565b600080fd5b50565b600260009054906101000a900473ffffffffffffffffffffffffffffffffffffffff1681565b6000809054906101000a900473ffffffffffffffffffffffffffffffffffffffff1681565b600080600360009054906101000a900473ffffffffffffffffffffffffffffffffffffffff1690508073ffffffffffffffffffffffffffffffffffffffff166326bc876c863387876040518563ffffffff167c0100000000000000000000000000000000000000000000000000000000028152600401808573ffffffffffffffffffffffffffffffffffffffff1673ffffffffffffffffffffffffffffffffffffffff1681526020018473ffffffffffffffffffffffffffffffffffffffff1673ffffffffffffffffffffffffffffffffffffffff168152602001838152602001828152602001945050505050602060405180830381600087803b1580156105ae57600080fd5b505af11580156105c2573d6000803e3d6000fd5b505050506040513d60208110156105d857600080fd5b81019080805190602001909291905050509150509392505050565b6000809054906101000a900473ffffffffffffffffffffffffffffffffffffffff1673ffffffffffffffffffffffffffffffffffffffff163373ffffffffffffffffffffffffffffffffffffffff16141561068e5780600260006101000a81548173ffffffffffffffffffffffffffffffffffffffff021916908373ffffffffffffffffffffffffffffffffffffffff160217905550610693565b600080fd5b50565b60008073f62fef864d88e3d70f22468eee3b412b6711494673ffffffffffffffffffffffffffffffffffffffff168573ffffffffffffffffffffffffffffffffffffffff161415156106e757600080fd5b6106f28585856104a7565b15156106fd57600080fd5b600160009054906101000a900473ffffffffffffffffffffffffffffffffffffffff1691508173ffffffffffffffffffffffffffffffffffffffff1663a9059cbb30886040518363ffffffff167c0100000000000000000000000000000000000000000000000000000000028152600401808373ffffffffffffffffffffffffffffffffffffffff1673ffffffffffffffffffffffffffffffffffffffff16815260200182815260200192505050602060405180830381600087803b1580156107c557600080fd5b505af11580156107d9573d6000803e3d6000fd5b505050506040513d60208110156107ef57600080fd5b810190808051906020019092919050505050600260009054906101000a900473ffffffffffffffffffffffffffffffffffffffff1690508073ffffffffffffffffffffffffffffffffffffffff1663a9059cbb338473ffffffffffffffffffffffffffffffffffffffff16630ff4c9168a6040518263ffffffff167c010000000000000000000000000000000000000000000000000000000002815260040180828152602001915050602060405180830381600087803b1580156108b257600080fd5b505af11580156108c6573d6000803e3d6000fd5b505050506040513d60208110156108dc57600080fd5b81019080805190602001909291905050506040518363ffffffff167c0100000000000000000000000000000000000000000000000000000000028152600401808373ffffffffffffffffffffffffffffffffffffffff1673ffffffffffffffffffffffffffffffffffffffff16815260200182815260200192505050602060405180830381600087803b15801561097257600080fd5b505af1158015610986573d6000803e3d6000fd5b505050506040513d602081101561099c57600080fd5b8101908080519060200190929190505050508173ffffffffffffffffffffffffffffffffffffffff1663243467f887306040518363ffffffff167c0100000000000000000000000000000000000000000000000000000000028152600401808381526020018273ffffffffffffffffffffffffffffffffffffffff1673ffffffffffffffffffffffffffffffffffffffff16815260200192505050600060405180830381600087803b158015610a5157600080fd5b505af1158015610a65573d6000803e3d6000fd5b505050508473ffffffffffffffffffffffffffffffffffffffff16863373ffffffffffffffffffffffffffffffffffffffff167f73d92c03bd73a267bd9c46b8aaa48245a492e5cf7b308347ee0b7ad8846dd0ff60405160405180910390a4505050505050565b6000809054906101000a900473ffffffffffffffffffffffffffffffffffffffff1673ffffffffffffffffffffffffffffffffffffffff163373ffffffffffffffffffffffffffffffffffffffff161415610b675780600360006101000a81548173ffffffffffffffffffffffffffffffffffffffff021916908373ffffffffffffffffffffffffffffffffffffffff160217905550610b6c565b600080fd5b50565b600360009054906101000a900473ffffffffffffffffffffffffffffffffffffffff16815600a165627a7a72305820cc3b089fe962a1411ded30e11aaf8b9a0e4332bb69135c3c34064b787f72b6960029",
  "source": "pragma solidity ^0.4.23;\n\nimport \"./DonationTokenOrg.sol\";\nimport \"./FaiToken.sol\";\nimport \"../UseCase/AddressBook.sol\";\n\ncontract VaultOrg {\n\n    //hardcoded for each organization\n    address public owner = 0xf62fef864D88e3d70F22468EEe3B412b67114946;\n    //hardcoded for easy testing, can be changed and set through functions\n    address public dTContract = 0xbfd0c2b508af2b14d85d2e0c94b5341cdada27ec;\n    address public faiContract = 0x43ddcbc37fb400976be522e20098a15ac846d044;\n    address public addrBookContract = 0xd61293b0e98fc8439976d89333261739e7d02d81;\n\n    modifier onlyOwner(){\n        if(msg.sender == owner){\n            _;\n        }else{\n            revert();\n        }\n    }\n\n    event UnlockedFai(address indexed _from, uint256 indexed _tokenId, address indexed _orgAdd);\n\n    constructor() public {\n    }\n\n    /**\n     check if the address, which unlock the Dai is valid \n     @dev   Internal function\n     @notice the address should be registerd in the addressbook contract\n     @param _orgAdd  The Address of the orginal Organisation \n     @param _category The category in which the msg.sender registerd\n     @param _idxOf at which Index in the array is the msg.sender \n    */\n    function checkAddress(address _orgAdd, uint _category, uint _idxOf) view public returns(bool) {\n        AddressBook b = AddressBook(addrBookContract);\n        return b.checkEofAddress(_orgAdd, msg.sender, _category, _idxOf);\n    }\n\n    /**\n     unlock the dai and send it to the msg.sender  \n     @notice the address should be registerd in the addressbook contract\n     @dev   the first line is where the orgAdd should be changed \n     @param _tokenId The Id of the Token\n     @param _orgAdd  The Address of the orginal Organisation \n     @param _category The category in which the msg.sender registerd\n     @param _idxOf at which Index in the array is the msg.sender \n    */\n    function unlockFai(uint256 _tokenId, address _orgAdd, uint _category, uint _idxOf) external {\n        require(_orgAdd == 0xf62fef864D88e3d70F22468EEe3B412b67114946);\n        require(checkAddress(_orgAdd, _category, _idxOf)); \n        DonationTokenOrg dtToken = DonationTokenOrg(dTContract);\n        dtToken.transfer(this, _tokenId);\n        FaiToken faiToken = FaiToken(faiContract);\n        faiToken.transfer(msg.sender, dtToken.getValue(_tokenId));\n        dtToken._burn(_tokenId, this);\n        emit UnlockedFai(msg.sender, _tokenId, _orgAdd);\n    }\n \n    // set the related Addresses\n    function setDTContract(address _add) public onlyOwner {\n        dTContract = _add;\n    }\n\n    function setFaiContract(address _add) public onlyOwner {\n        faiContract = _add;\n    }\n\n    function setaddrBookContract(address _add) public onlyOwner {\n        addrBookContract = _add;\n    }\n\n}",
  "sourcePath": "C:\\Users\\MajdTL\\Desktop\\BachelorArbeit\\Bachelor_Thesis-master\\ProjectLastVersion 0.1\\contracts\\Approach\\VaultOrg.sol",
  "compiler": {
    "name": "solc",
    "version": "0.4.24+commit.e67f0147.Emscripten.clang"
  },
  "schemaVersion": "2.0.1",
  "updatedAt": "2018-08-28T12:40:48.351Z"
}